{"contracts/VericastArbiter.sol":{"VericastArbiter":{"abi":[{"inputs":[],"stateMutability":"nonpayable","type":"constructor"},{"inputs":[{"internalType":"address","name":"target","type":"address"}],"name":"AddressEmptyCode","type":"error"},{"inputs":[{"internalType":"bytes32","name":"commitId","type":"bytes32"}],"name":"CommitAlreadyDisputed","type":"error"},{"inputs":[{"internalType":"bytes32","name":"commitId","type":"bytes32"}],"name":"CommitAlreadyExists","type":"error"},{"inputs":[{"internalType":"bytes32","name":"commitId","type":"bytes32"}],"name":"CommitAlreadyFinalized","type":"error"},{"inputs":[{"internalType":"bytes32","name":"commitId","type":"bytes32"}],"name":"CommitIsDisputed","type":"error"},{"inputs":[{"internalType":"bytes32","name":"commitId","type":"bytes32"}],"name":"CommitNotFound","type":"error"},{"inputs":[{"internalType":"bytes32","name":"commitId","type":"bytes32"},{"internalType":"uint32","name":"disputeEnd","type":"uint32"}],"name":"CommitStillInDisputeWindow","type":"error"},{"inputs":[{"internalType":"address","name":"implementation","type":"address"}],"name":"ERC1967InvalidImplementation","type":"error"},{"inputs":[],"name":"ERC1967NonPayable","type":"error"},{"inputs":[],"name":"FailedCall","type":"error"},{"inputs":[{"internalType":"uint256","name":"provided","type":"uint256"},{"internalType":"uint256","name":"required","type":"uint256"}],"name":"InsufficientStake","type":"error"},{"inputs":[],"name":"InvalidInitialization","type":"error"},{"inputs":[],"name":"NotInitializing","type":"error"},{"inputs":[{"internalType":"address","name":"owner","type":"address"}],"name":"OwnableInvalidOwner","type":"error"},{"inputs":[{"internalType":"address","name":"account","type":"address"}],"name":"OwnableUnauthorizedAccount","type":"error"},{"inputs":[],"name":"ReentrancyGuardReentrantCall","type":"error"},{"inputs":[],"name":"StakeTransferFailed","type":"error"},{"inputs":[],"name":"UUPSUnauthorizedCallContext","type":"error"},{"inputs":[{"internalType":"bytes32","name":"slot","type":"bytes32"}],"name":"UUPSUnsupportedProxiableUUID","type":"error"},{"inputs":[{"internalType":"bytes32","name":"commitId","type":"bytes32"}],"name":"ZKVerificationFailed","type":"error"},{"anonymous":false,"inputs":[{"indexed":true,"internalType":"bytes32","name":"commitId","type":"bytes32"},{"indexed":true,"internalType":"address","name":"challenger","type":"address"},{"indexed":false,"internalType":"uint256","name":"stake","type":"uint256"}],"name":"DisputeOpened","type":"event"},{"anonymous":false,"inputs":[{"indexed":true,"internalType":"bytes32","name":"commitId","type":"bytes32"},{"indexed":false,"internalType":"bool","name":"valid","type":"bool"},{"indexed":true,"internalType":"address","name":"resolver","type":"address"}],"name":"DisputeResolved","type":"event"},{"anonymous":false,"inputs":[{"indexed":false,"internalType":"uint64","name":"version","type":"uint64"}],"name":"Initialized","type":"event"},{"anonymous":false,"inputs":[{"indexed":true,"internalType":"address","name":"previousOwner","type":"address"},{"indexed":true,"internalType":"address","name":"newOwner","type":"address"}],"name":"OwnershipTransferred","type":"event"},{"anonymous":false,"inputs":[{"indexed":true,"internalType":"bytes32","name":"commitId","type":"bytes32"}],"name":"StateFinalized","type":"event"},{"anonymous":false,"inputs":[{"indexed":true,"internalType":"bytes32","name":"commitId","type":"bytes32"},{"indexed":false,"internalType":"bytes32","name":"stateRoot","type":"bytes32"},{"indexed":false,"internalType":"bytes32","name":"teeSeal","type":"bytes32"},{"indexed":true,"internalType":"address","name":"sequencer","type":"address"}],"name":"StateSubmitted","type":"event"},{"anonymous":false,"inputs":[{"indexed":true,"internalType":"address","name":"implementation","type":"address"}],"name":"Upgraded","type":"event"},{"inputs":[],"name":"DISPUTE_WINDOW","outputs":[{"internalType":"uint32","name":"","type":"uint32"}],"stateMutability":"view","type":"function"},{"inputs":[],"name":"MIN_STAKE","outputs":[{"internalType":"uint256","name":"","type":"uint256"}],"stateMutability":"view","type":"function"},{"inputs":[],"name":"STAKE_LOCK","outputs":[{"internalType":"uint32","name":"","type":"uint32"}],"stateMutability":"view","type":"function"},{"inputs":[],"name":"UPGRADE_INTERFACE_VERSION","outputs":[{"internalType":"string","name":"","type":"string"}],"stateMutability":"view","type":"function"},{"inputs":[{"components":[{"internalType":"bytes32","name":"streamId","type":"bytes32"},{"internalType":"bytes32","name":"key","type":"bytes32"},{"internalType":"bytes32","name":"stateRoot","type":"bytes32"},{"internalType":"bytes32","name":"teeSeal","type":"bytes32"},{"internalType":"bytes32","name":"proofHash","type":"bytes32"}],"internalType":"struct IVericastArbiter.Submission[]","name":"subs","type":"tuple[]"}],"name":"batchSubmit","outputs":[],"stateMutability":"nonpayable","type":"function"},{"inputs":[{"internalType":"bytes32","name":"","type":"bytes32"}],"name":"challengers","outputs":[{"internalType":"address","name":"","type":"address"}],"stateMutability":"view","type":"function"},{"inputs":[],"name":"commitCount","outputs":[{"internalType":"uint256","name":"","type":"uint256"}],"stateMutability":"view","type":"function"},{"inputs":[{"internalType":"bytes32","name":"commitId","type":"bytes32"},{"internalType":"uint256","name":"stake","type":"uint256"}],"name":"dispute","outputs":[],"stateMutability":"nonpayable","type":"function"},{"inputs":[{"internalType":"bytes32","name":"commitId","type":"bytes32"}],"name":"finalize","outputs":[],"stateMutability":"nonpayable","type":"function"},{"inputs":[{"internalType":"bytes32","name":"commitId","type":"bytes32"}],"name":"getCommit","outputs":[{"components":[{"internalType":"bytes32","name":"stateRoot","type":"bytes32"},{"internalType":"bytes32","name":"teeSeal","type":"bytes32"},{"internalType":"bytes32","name":"proofHash","type":"bytes32"},{"internalType":"uint64","name":"blockHeight","type":"uint64"},{"internalType":"uint32","name":"disputeEnd","type":"uint32"},{"internalType":"bool","name":"disputed","type":"bool"},{"internalType":"bool","name":"finalized","type":"bool"}],"internalType":"struct IVericastArbiter.StateCommit","name":"","type":"tuple"}],"stateMutability":"view","type":"function"},{"inputs":[{"internalType":"address","name":"_owner","type":"address"},{"internalType":"address","name":"_zkVerifier","type":"address"},{"internalType":"address","name":"_veriToken","type":"address"}],"name":"initialize","outputs":[],"stateMutability":"nonpayable","type":"function"},{"inputs":[{"internalType":"bytes32","name":"commitId","type":"bytes32"}],"name":"isFinalized","outputs":[{"internalType":"bool","name":"","type":"bool"}],"stateMutability":"view","type":"function"},{"inputs":[],"name":"owner","outputs":[{"internalType":"address","name":"","type":"address"}],"stateMutability":"view","type":"function"},{"inputs":[],"name":"proxiableUUID","outputs":[{"internalType":"bytes32","name":"","type":"bytes32"}],"stateMutability":"view","type":"function"},{"inputs":[],"name":"renounceOwnership","outputs":[],"stateMutability":"nonpayable","type":"function"},{"inputs":[{"internalType":"bytes32","name":"commitId","type":"bytes32"},{"internalType":"bytes","name":"seal","type":"bytes"},{"internalType":"bytes","name":"journal","type":"bytes"}],"name":"resolveDispute","outputs":[],"stateMutability":"nonpayable","type":"function"},{"inputs":[{"internalType":"bytes32","name":"","type":"bytes32"}],"name":"sequencers","outputs":[{"internalType":"address","name":"","type":"address"}],"stateMutability":"view","type":"function"},{"inputs":[{"internalType":"bytes32","name":"streamId","type":"bytes32"},{"internalType":"bytes32","name":"key","type":"bytes32"},{"internalType":"bytes32","name":"stateRoot","type":"bytes32"},{"internalType":"bytes32","name":"teeSeal","type":"bytes32"},{"internalType":"bytes32","name":"proofHash","type":"bytes32"}],"name":"submitStateRoot","outputs":[],"stateMutability":"nonpayable","type":"function"},{"inputs":[{"internalType":"address","name":"newOwner","type":"address"}],"name":"transferOwnership","outputs":[],"stateMutability":"nonpayable","type":"function"},{"inputs":[{"internalType":"address","name":"newImplementation","type":"address"},{"internalType":"bytes","name":"data","type":"bytes"}],"name":"upgradeToAndCall","outputs":[],"stateMutability":"payable","type":"function"},{"inputs":[],"name":"veriToken","outputs":[{"internalType":"address","name":"","type":"address"}],"stateMutability":"view","type":"function"},{"inputs":[],"name":"zkVerifier","outputs":[{"internalType":"address","name":"","type":"address"}],"stateMutability":"view","type":"function"}],"evm":{"bytecode":{"linkReferences":{},"object":"60a080604052346100cc57306080527ff0c57e16840df040f15088dc2f81fe391c3923bec73e23a9662efc9c229c6a009081549060ff8260401c166100bd57506001600160401b036002600160401b031982821601610078575b6040516113ff90816100d18239608051818181610c010152610cde0152f35b6001600160401b031990911681179091556040519081527fc7f505b2f371ae2175ee4913f4499e1f2633a7b5936321eed1cdaeb6115181d290602090a15f8080610059565b63f92ee8a960e01b8152600490fd5b5f80fdfe6080604081815260049182361015610015575f80fd5b5f3560e01c9081632f2eaf1f14610f33575080633c57f7cf14610e7e5780634f1ef28614610c6557806352d1902d14610bee5780635ae3f660146108fe5780635e3d91f0146108d2578063715018a61461086b5780637f8d429e146108395780638784ea96146107485780638da5cb5b146107145780639123988b146106f657806392584d8014610602578063a12358471461042e578063ad3cb1cc14610391578063b2d0351814610362578063c0c53b8b146101f9578063cb1c2b5c146101d7578063d600d1c6146101af578063d6df096d14610188578063f2fde38b1461015d578063f585dc57146101425763fc322d7314610111575f80fd5b3461013e57602036600319011261013e5781602092355f52825260018060a01b03815f2054169051908152f35b5f80fd5b503461013e575f36600319011261013e576020905160968152f35b3461013e57602036600319011261013e57610186610179610f4d565b61018161129f565b611057565b005b503461013e575f36600319011261013e575f5490516001600160a01b039091168152602090f35b503461013e575f36600319011261013e5760015490516001600160a01b039091168152602090f35b503461013e575f36600319011261013e5760209051670de0b6b3a76400008152f35b50903461013e57606036600319011261013e57610214610f4d565b906001600160a01b036024358181169081900361013e5760443591821680920361013e577ff0c57e16840df040f15088dc2f81fe391c3923bec73e23a9662efc9c229c6a0093845460ff81881c1615946001600160401b0382168015908161035a575b6001149081610350575b159081610347575b50610339575067ffffffffffffffff19811660011786556102bc91908561031a575b506102b46112d7565b6101816112d7565b6001600160601b0360a01b90815f5416175f5560015416176001556102dd57005b805468ff00000000000000001916905551600181527fc7f505b2f371ae2175ee4913f4499e1f2633a7b5936321eed1cdaeb6115181d290602090a1005b68ffffffffffffffffff1916680100000000000000011786555f6102ab565b875163f92ee8a960e01b8152fd5b9050155f610289565b303b159150610281565b879150610277565b503461013e57602036600319011261013e57602091355f526003825260018060a01b03815f2054169051908152f35b503461013e575f36600319011261013e57805191818301908382106001600160401b0383111761041b57508152600582526020640352e302e360dc1b60208401528151928391602083528151918260208501525f5b8381106104055750505f83830185015250601f01601f19168101030190f35b81810183015187820187015286945082016103e6565b604190634e487b7160e01b5f525260245ffd5b503461013e578060031936011261013e578135602480359261044e611260565b825f52602091600283526003825f20019081546001600160401b038116156105ed5760ff8160681c166105d85760601c60ff166105c457670de0b6b3a76400008087106105a9575060015483516323b872dd60e01b815233898201523092810192909252604482018790528490829060649082905f906001600160a01b03165af190811561059f575f91610572575b501561056257805460ff60601b1916600160601b1790555f8381529482529384902080546001600160a01b03191633908117909155935192835290917f74b30b10e89fcaa4fc5ffe4cbad394399cd7cfe59529e41170312d28377b874d9190a35f7f9b779b17422d0df92223018b32b4d1fa46e071723d6817e2486d003becc55f005d005b8151631231ec2f60e21b81528690fd5b6105929150843d8611610598575b61058a8183610f92565b81019061103f565b5f6104dd565b503d610580565b83513d5f823e3d90fd5b83516322df051360e11b815280890188905291820152604490fd5b82516354745fcf60e01b8152808801869052fd5b5082516337208f6360e01b8152808801869052fd5b508251633ca4729560e21b8152808801869052fd5b50903461013e57602036600319011261013e57803591825f5260026020526003815f2001918254916001600160401b038316156106e05760ff8360681c166106ca5760ff8360601c166106b45763ffffffff83821c16908143106106985750505060ff60681b1916600160681b1790557ff92ff93868fa3ef75d1d4162f74a6c3c8788f6b096b69b80182c53a4ae7d0b225f80a2005b51633f1af8c760e21b8152918201859052602482015260449150fd5b51639d77e10d60e01b8152908101849052602490fd5b516337208f6360e01b8152908101849052602490fd5b51633ca4729560e21b8152908101849052602490fd5b503461013e575f36600319011261013e576020906005549051908152f35b503461013e575f36600319011261013e575f805160206113aa8339815191525490516001600160a01b039091168152602090f35b503461013e57602036600319011261013e5760e0915f60c0835161076b81610f63565b82815282602082015282858201528260608201528260808201528260a08201520152355f526002602052805f209080516107a481610f63565b82549283825260018101546020830190815260036002830154928585019384520154936001600160401b03906060850190828716825263ffffffff9460808701948689841c16865260ff60c060a08a0199828c60601c1615158b52019960681c16151589528251998a525160208a01525190880152511660608601525116608084015251151560a083015251151560c0820152f35b503461013e57602036600319011261013e57602091355f526002825260ff6003825f20015460681c1690519015158152f35b3461013e575f36600319011261013e5761088361129f565b5f805160206113aa83398151915280546001600160a01b031981169091555f906001600160a01b03167f8be0079c531659141344cd1fd0a4f28419497f9722a3daafe3b4186f6b6457e08280a3005b823461013e5760a036600319011261013e576101869060843590606435906044359060243590356110c8565b50903461013e57606036600319011261013e57803560249283356001600160401b039081811161013e576109359036908601610fce565b60449591953583811161013e57610950889136908501610fce565b92610959611260565b875f5260209860028a52875f20926003840197885490811615610bd85760601c60ff1615610bc257908a91600160a01b6001900396875f54169560020154928b5195869586019863189a0c4b60e31b8a5286016060905260848601906109be9261101f565b906023198583030160448601526109d49261101f565b90606483015203601f19810182526109ec9082610f92565b515a925f8094938194f13d15610bbd573d610a0681610fb3565b90610a1387519283610f92565b81525f883d92013e5b15610ae257604486925f61dead9360015416670de0b6b3a764000088519b8c96879563a9059cbb60e01b87528601528401525af1948515610ad8577fc960b0a8d05987d3303a43fbce4ccf8ccc3262a2b5517a35c97fc8848c23054c939495610abb575b50805460ff60601b191690555160018152339390a35b5f7f9b779b17422d0df92223018b32b4d1fa46e071723d6817e2486d003becc55f005d005b610ad190863d88116105985761058a8183610f92565b505f610a80565b82513d5f823e3d90fd5b85919250956044670de0b6b3a764000097865f528484525f818782205416916001541687519a8b95869463a9059cbb60e01b8652898601528401525af1948515610ad8577fc960b0a8d05987d3303a43fbce4ccf8ccc3262a2b5517a35c97fc8848c23054c939495610ba0575b50835f52600285525f6003838220828155826001820155826002820155015560038552815f20906001600160601b0360a01b918281541690558552815f2090815416905551925f84523393a3610a96565b610bb690863d88116105985761058a8183610f92565b505f610b4f565b610a1c565b8851633ca4729560e21b81528088018b90528590fd5b8951633ca4729560e21b81528089018c90528690fd5b503461013e575f36600319011261013e577f00000000000000000000000000000000000000000000000000000000000000006001600160a01b03163003610c5857602090517f360894a13ba1a3210667c828492db98dca3e2076cc3735a920a3ca505d382bbc8152f35b5163703e46dd60e11b8152fd5b50908160031936011261013e57610c7a610f4d565b6024928335916001600160401b03831161013e573660238401121561013e578284013590610ca782610fb3565b91610cb484519384610f92565b8083526020943688838301011161013e57815f928988930183870137840101526001600160a01b037f00000000000000000000000000000000000000000000000000000000000000008116308114908115610e50575b50610e4057610d1761129f565b83516352d1902d60e01b81529082169480828881895afa9182915f93610e10575b5050610d52575050505191634c9c8ce360e01b8352820152fd5b85938591887f360894a13ba1a3210667c828492db98dca3e2076cc3735a920a3ca505d382bbc91828103610dfb5750843b15610de7575080546001600160a01b0319168317905551907fbc7cd75a20ee27fd9adebab32041f755214dbc6bffa90cc0225b39da2e5c2d3b5f80a2825115610dd157506101869250611318565b91505034610ddb57005b63b398979f60e01b8152fd5b8251634c9c8ce360e01b8152808801859052fd5b8351632a87526960e21b815280890191909152fd5b9080929350813d8311610e39575b610e288183610f92565b8101031261013e5751905f80610d38565b503d610e1e565b835163703e46dd60e11b81528690fd5b9050817f360894a13ba1a3210667c828492db98dca3e2076cc3735a920a3ca505d382bbc541614155f610d0a565b503461013e57602090602060031936011261013e578235916001600160401b039384841161013e573660238501121561013e5783013593841161013e5760248301926024369160a0870201011161013e575f5b848110610eda57005b80610f2d610eeb6001938888610ffb565b3584610ef8848a8a610ffb565b013586610f06858b8b610ffb565b01356060610f15868c8c610ffb565b0135916080610f25878d8d610ffb565b0135936110c8565b01610ed1565b3461013e575f36600319011261013e578061012c60209252f35b600435906001600160a01b038216820361013e57565b60e081019081106001600160401b03821117610f7e57604052565b634e487b7160e01b5f52604160045260245ffd5b90601f801991011681019081106001600160401b03821117610f7e57604052565b6001600160401b038111610f7e57601f01601f191660200190565b9181601f8401121561013e578235916001600160401b03831161013e576020838186019501011161013e57565b919081101561100b5760a0020190565b634e487b7160e01b5f52603260045260245ffd5b908060209392818452848401375f828201840152601f01601f1916010190565b9081602091031261013e5751801515810361013e5790565b6001600160a01b039081169081156110b0575f805160206113aa83398151915280546001600160a01b031981168417909155167f8be0079c531659141344cd1fd0a4f28419497f9722a3daafe3b4186f6b6457e05f80a3565b604051631e4fbdf760e01b81525f6004820152602490fd5b9293909193604091825194602094858701918252848701528660608701524360808701526080865260a086016001600160401b039187821083831117610f7e578186528751902096875f5260028752826003875f2001541661124b57505060964301908143116112375784519261113e84610f63565b8884528684019185835286850191825260036060860195824316875263ffffffff608082019616865260a08101935f855260c08201955f87528c5f5260028c528a5f2092518355516001830155516002820155019451166bffffffff000000000000000085549451881b169160ff60601b9051151560601b169260ff60681b9051151560681b16936dffffffffffffffffffffffffffff191617171717905560038352815f20336001600160601b0360a01b825416179055600554925f1984146112375760017fbf49119d4786e07796fad8199d0d421751fbc58f29042db4d4fa69a0a71f3f52940160055582519586528501523393a3565b634e487b7160e01b5f52601160045260245ffd5b630841285f60e11b825260a401879052602490fd5b7f9b779b17422d0df92223018b32b4d1fa46e071723d6817e2486d003becc55f00805c61128d576001905d565b604051633ee5aeb560e01b8152600490fd5b5f805160206113aa833981519152546001600160a01b031633036112bf57565b60405163118cdaa760e01b8152336004820152602490fd5b60ff7ff0c57e16840df040f15088dc2f81fe391c3923bec73e23a9662efc9c229c6a005460401c161561130657565b604051631afcd79f60e31b8152600490fd5b905f8091602081519101845af48080611396575b1561134c5750506040513d81523d5f602083013e60203d82010160405290565b1561137357604051639996b31560e01b81526001600160a01b039091166004820152602490fd5b3d15611384576040513d5f823e3d90fd5b60405163d6bda27560e01b8152600490fd5b503d15158061132c5750813b151561132c56fe9016d09d72d40fdae2fd8ceac6b6234c7706214fd39c1cd1e609a0528c199300a2646970667358221220923c3277ce2c4bfa3a46f8f4769daaf165fbc19b31a5e0cf3668e588e0acbf5664736f6c63430008180033","opcodes":"PUSH1 0xA0 DUP1 PUSH1 0x40 MSTORE CALLVALUE PUSH2 0xCC JUMPI ADDRESS PUSH1 0x80 MSTORE PUSH32 0xF0C57E16840DF040F15088DC2F81FE391C3923BEC73E23A9662EFC9C229C6A00 SWAP1 DUP2 SLOAD SWAP1 PUSH1 0xFF DUP3 PUSH1 0x40 SHR AND PUSH2 0xBD JUMPI POP PUSH1 0x1 PUSH1 0x1 PUSH1 0x40 SHL SUB PUSH1 0x2 PUSH1 0x1 PUSH1 0x40 SHL SUB NOT DUP3 DUP3 AND ADD PUSH2 0x78 JUMPI JUMPDEST PUSH1 0x40 MLOAD PUSH2 0x13FF SWAP1 DUP2 PUSH2 0xD1 DUP3 CODECOPY PUSH1 0x80 MLOAD DUP2 DUP2 DUP2 PUSH2 0xC01 ADD MSTORE PUSH2 0xCDE ADD MSTORE RETURN JUMPDEST PUSH1 0x1 PUSH1 0x1 PUSH1 0x40 SHL SUB NOT SWAP1 SWAP2 AND DUP2 OR SWAP1 SWAP2 SSTORE PUSH1 0x40 MLOAD SWAP1 DUP2 MSTORE PUSH32 0xC7F505B2F371AE2175EE4913F4499E1F2633A7B5936321EED1CDAEB6115181D2 SWAP1 PUSH1 0x20 SWAP1 LOG1 PUSH0 DUP1 DUP1 PUSH2 0x59 JUMP JUMPDEST PUSH4 0xF92EE8A9 PUSH1 0xE0 SHL DUP2 MSTORE PUSH1 0x4 SWAP1 REVERT JUMPDEST PUSH0 DUP1 REVERT INVALID PUSH1 0x80 PUSH1 0x40 DUP2 DUP2 MSTORE PUSH1 0x4 SWAP2 DUP3 CALLDATASIZE LT ISZERO PUSH2 0x15 JUMPI PUSH0 DUP1 REVERT JUMPDEST PUSH0 CALLDATALOAD PUSH1 0xE0 SHR SWAP1 DUP2 PUSH4 0x2F2EAF1F EQ PUSH2 0xF33 JUMPI POP DUP1 PUSH4 0x3C57F7CF EQ PUSH2 0xE7E JUMPI DUP1 PUSH4 0x4F1EF286 EQ PUSH2 0xC65 JUMPI DUP1 PUSH4 0x52D1902D EQ PUSH2 0xBEE JUMPI DUP1 PUSH4 0x5AE3F660 EQ PUSH2 0x8FE JUMPI DUP1 PUSH4 0x5E3D91F0 EQ PUSH2 0x8D2 JUMPI DUP1 PUSH4 0x715018A6 EQ PUSH2 0x86B JUMPI DUP1 PUSH4 0x7F8D429E EQ PUSH2 0x839 JUMPI DUP1 PUSH4 0x8784EA96 EQ PUSH2 0x748 JUMPI DUP1 PUSH4 0x8DA5CB5B EQ PUSH2 0x714 JUMPI DUP1 PUSH4 0x9123988B EQ PUSH2 0x6F6 JUMPI DUP1 PUSH4 0x92584D80 EQ PUSH2 0x602 JUMPI DUP1 PUSH4 0xA1235847 EQ PUSH2 0x42E JUMPI DUP1 PUSH4 0xAD3CB1CC EQ PUSH2 0x391 JUMPI DUP1 PUSH4 0xB2D03518 EQ PUSH2 0x362 JUMPI DUP1 PUSH4 0xC0C53B8B EQ PUSH2 0x1F9 JUMPI DUP1 PUSH4 0xCB1C2B5C EQ PUSH2 0x1D7 JUMPI DUP1 PUSH4 0xD600D1C6 EQ PUSH2 0x1AF JUMPI DUP1 PUSH4 0xD6DF096D EQ PUSH2 0x188 JUMPI DUP1 PUSH4 0xF2FDE38B EQ PUSH2 0x15D JUMPI DUP1 PUSH4 0xF585DC57 EQ PUSH2 0x142 JUMPI PUSH4 0xFC322D73 EQ PUSH2 0x111 JUMPI PUSH0 DUP1 REVERT JUMPDEST CALLVALUE PUSH2 0x13E JUMPI PUSH1 0x20 CALLDATASIZE PUSH1 0x3 NOT ADD SLT PUSH2 0x13E JUMPI DUP2 PUSH1 0x20 SWAP3 CALLDATALOAD PUSH0 MSTORE DUP3 MSTORE PUSH1 0x1 DUP1 PUSH1 0xA0 SHL SUB DUP2 PUSH0 KECCAK256 SLOAD AND SWAP1 MLOAD SWAP1 DUP2 MSTORE RETURN JUMPDEST PUSH0 DUP1 REVERT JUMPDEST POP CALLVALUE PUSH2 0x13E JUMPI PUSH0 CALLDATASIZE PUSH1 0x3 NOT ADD SLT PUSH2 0x13E JUMPI PUSH1 0x20 SWAP1 MLOAD PUSH1 0x96 DUP2 MSTORE RETURN JUMPDEST CALLVALUE PUSH2 0x13E JUMPI PUSH1 0x20 CALLDATASIZE PUSH1 0x3 NOT ADD SLT PUSH2 0x13E JUMPI PUSH2 0x186 PUSH2 0x179 PUSH2 0xF4D JUMP JUMPDEST PUSH2 0x181 PUSH2 0x129F JUMP JUMPDEST PUSH2 0x1057 JUMP JUMPDEST STOP JUMPDEST POP CALLVALUE PUSH2 0x13E JUMPI PUSH0 CALLDATASIZE PUSH1 0x3 NOT ADD SLT PUSH2 0x13E JUMPI PUSH0 SLOAD SWAP1 MLOAD PUSH1 0x1 PUSH1 0x1 PUSH1 0xA0 SHL SUB SWAP1 SWAP2 AND DUP2 MSTORE PUSH1 0x20 SWAP1 RETURN JUMPDEST POP CALLVALUE PUSH2 0x13E JUMPI PUSH0 CALLDATASIZE PUSH1 0x3 NOT ADD SLT PUSH2 0x13E JUMPI PUSH1 0x1 SLOAD SWAP1 MLOAD PUSH1 0x1 PUSH1 0x1 PUSH1 0xA0 SHL SUB SWAP1 SWAP2 AND DUP2 MSTORE PUSH1 0x20 SWAP1 RETURN JUMPDEST POP CALLVALUE PUSH2 0x13E JUMPI PUSH0 CALLDATASIZE PUSH1 0x3 NOT ADD SLT PUSH2 0x13E JUMPI PUSH1 0x20 SWAP1 MLOAD PUSH8 0xDE0B6B3A7640000 DUP2 MSTORE RETURN JUMPDEST POP SWAP1 CALLVALUE PUSH2 0x13E JUMPI PUSH1 0x60 CALLDATASIZE PUSH1 0x3 NOT ADD SLT PUSH2 0x13E JUMPI PUSH2 0x214 PUSH2 0xF4D JUMP JUMPDEST SWAP1 PUSH1 0x1 PUSH1 0x1 PUSH1 0xA0 SHL SUB PUSH1 0x24 CALLDATALOAD DUP2 DUP2 AND SWAP1 DUP2 SWAP1 SUB PUSH2 0x13E JUMPI PUSH1 0x44 CALLDATALOAD SWAP2 DUP3 AND DUP1 SWAP3 SUB PUSH2 0x13E JUMPI PUSH32 0xF0C57E16840DF040F15088DC2F81FE391C3923BEC73E23A9662EFC9C229C6A00 SWAP4 DUP5 SLOAD PUSH1 0xFF DUP2 DUP9 SHR AND ISZERO SWAP5 PUSH1 0x1 PUSH1 0x1 PUSH1 0x40 SHL SUB DUP3 AND DUP1 ISZERO SWAP1 DUP2 PUSH2 0x35A JUMPI JUMPDEST PUSH1 0x1 EQ SWAP1 DUP2 PUSH2 0x350 JUMPI JUMPDEST ISZERO SWAP1 DUP2 PUSH2 0x347 JUMPI JUMPDEST POP PUSH2 0x339 JUMPI POP PUSH8 0xFFFFFFFFFFFFFFFF NOT DUP2 AND PUSH1 0x1 OR DUP7 SSTORE PUSH2 0x2BC SWAP2 SWAP1 DUP6 PUSH2 0x31A JUMPI JUMPDEST POP PUSH2 0x2B4 PUSH2 0x12D7 JUMP JUMPDEST PUSH2 0x181 PUSH2 0x12D7 JUMP JUMPDEST PUSH1 0x1 PUSH1 0x1 PUSH1 0x60 SHL SUB PUSH1 0xA0 SHL SWAP1 DUP2 PUSH0 SLOAD AND OR PUSH0 SSTORE PUSH1 0x1 SLOAD AND OR PUSH1 0x1 SSTORE PUSH2 0x2DD JUMPI STOP JUMPDEST DUP1 SLOAD PUSH9 0xFF0000000000000000 NOT AND SWAP1 SSTORE MLOAD PUSH1 0x1 DUP2 MSTORE PUSH32 0xC7F505B2F371AE2175EE4913F4499E1F2633A7B5936321EED1CDAEB6115181D2 SWAP1 PUSH1 0x20 SWAP1 LOG1 STOP JUMPDEST PUSH9 0xFFFFFFFFFFFFFFFFFF NOT AND PUSH9 0x10000000000000001 OR DUP7 SSTORE PUSH0 PUSH2 0x2AB JUMP JUMPDEST DUP8 MLOAD PUSH4 0xF92EE8A9 PUSH1 0xE0 SHL DUP2 MSTORE REVERT JUMPDEST SWAP1 POP ISZERO PUSH0 PUSH2 0x289 JUMP JUMPDEST ADDRESS EXTCODESIZE ISZERO SWAP2 POP PUSH2 0x281 JUMP JUMPDEST DUP8 SWAP2 POP PUSH2 0x277 JUMP JUMPDEST POP CALLVALUE PUSH2 0x13E JUMPI PUSH1 0x20 CALLDATASIZE PUSH1 0x3 NOT ADD SLT PUSH2 0x13E JUMPI PUSH1 0x20 SWAP2 CALLDATALOAD PUSH0 MSTORE PUSH1 0x3 DUP3 MSTORE PUSH1 0x1 DUP1 PUSH1 0xA0 SHL SUB DUP2 PUSH0 KECCAK256 SLOAD AND SWAP1 MLOAD SWAP1 DUP2 MSTORE RETURN JUMPDEST POP CALLVALUE PUSH2 0x13E JUMPI PUSH0 CALLDATASIZE PUSH1 0x3 NOT ADD SLT PUSH2 0x13E JUMPI DUP1 MLOAD SWAP2 DUP2 DUP4 ADD SWAP1 DUP4 DUP3 LT PUSH1 0x1 PUSH1 0x1 PUSH1 0x40 SHL SUB DUP4 GT OR PUSH2 0x41B JUMPI POP DUP2 MSTORE PUSH1 0x5 DUP3 MSTORE PUSH1 0x20 PUSH5 0x352E302E3 PUSH1 0xDC SHL PUSH1 0x20 DUP5 ADD MSTORE DUP2 MLOAD SWAP3 DUP4 SWAP2 PUSH1 0x20 DUP4 MSTORE DUP2 MLOAD SWAP2 DUP3 PUSH1 0x20 DUP6 ADD MSTORE PUSH0 JUMPDEST DUP4 DUP2 LT PUSH2 0x405 JUMPI POP POP PUSH0 DUP4 DUP4 ADD DUP6 ADD MSTORE POP PUSH1 0x1F ADD PUSH1 0x1F NOT AND DUP2 ADD SUB ADD SWAP1 RETURN JUMPDEST DUP2 DUP2 ADD DUP4 ADD MLOAD DUP8 DUP3 ADD DUP8 ADD MSTORE DUP7 SWAP5 POP DUP3 ADD PUSH2 0x3E6 JUMP JUMPDEST PUSH1 0x41 SWAP1 PUSH4 0x4E487B71 PUSH1 0xE0 SHL PUSH0 MSTORE MSTORE PUSH1 0x24 PUSH0 REVERT JUMPDEST POP CALLVALUE PUSH2 0x13E JUMPI DUP1 PUSH1 0x3 NOT CALLDATASIZE ADD SLT PUSH2 0x13E JUMPI DUP2 CALLDATALOAD PUSH1 0x24 DUP1 CALLDATALOAD SWAP3 PUSH2 0x44E PUSH2 0x1260 JUMP JUMPDEST DUP3 PUSH0 MSTORE PUSH1 0x20 SWAP2 PUSH1 0x2 DUP4 MSTORE PUSH1 0x3 DUP3 PUSH0 KECCAK256 ADD SWAP1 DUP2 SLOAD PUSH1 0x1 PUSH1 0x1 PUSH1 0x40 SHL SUB DUP2 AND ISZERO PUSH2 0x5ED JUMPI PUSH1 0xFF DUP2 PUSH1 0x68 SHR AND PUSH2 0x5D8 JUMPI PUSH1 0x60 SHR PUSH1 0xFF AND PUSH2 0x5C4 JUMPI PUSH8 0xDE0B6B3A7640000 DUP1 DUP8 LT PUSH2 0x5A9 JUMPI POP PUSH1 0x1 SLOAD DUP4 MLOAD PUSH4 0x23B872DD PUSH1 0xE0 SHL DUP2 MSTORE CALLER DUP10 DUP3 ADD MSTORE ADDRESS SWAP3 DUP2 ADD SWAP3 SWAP1 SWAP3 MSTORE PUSH1 0x44 DUP3 ADD DUP8 SWAP1 MSTORE DUP5 SWAP1 DUP3 SWAP1 PUSH1 0x64 SWAP1 DUP3 SWAP1 PUSH0 SWAP1 PUSH1 0x1 PUSH1 0x1 PUSH1 0xA0 SHL SUB AND GAS CALL SWAP1 DUP2 ISZERO PUSH2 0x59F JUMPI PUSH0 SWAP2 PUSH2 0x572 JUMPI JUMPDEST POP ISZERO PUSH2 0x562 JUMPI DUP1 SLOAD PUSH1 0xFF PUSH1 0x60 SHL NOT AND PUSH1 0x1 PUSH1 0x60 SHL OR SWAP1 SSTORE PUSH0 DUP4 DUP2 MSTORE SWAP5 DUP3 MSTORE SWAP4 DUP5 SWAP1 KECCAK256 DUP1 SLOAD PUSH1 0x1 PUSH1 0x1 PUSH1 0xA0 SHL SUB NOT AND CALLER SWAP1 DUP2 OR SWAP1 SWAP2 SSTORE SWAP4 MLOAD SWAP3 DUP4 MSTORE SWAP1 SWAP2 PUSH32 0x74B30B10E89FCAA4FC5FFE4CBAD394399CD7CFE59529E41170312D28377B874D SWAP2 SWAP1 LOG3 PUSH0 PUSH32 0x9B779B17422D0DF92223018B32B4D1FA46E071723D6817E2486D003BECC55F00 TSTORE STOP JUMPDEST DUP2 MLOAD PUSH4 0x1231EC2F PUSH1 0xE2 SHL DUP2 MSTORE DUP7 SWAP1 REVERT JUMPDEST PUSH2 0x592 SWAP2 POP DUP5 RETURNDATASIZE DUP7 GT PUSH2 0x598 JUMPI JUMPDEST PUSH2 0x58A DUP2 DUP4 PUSH2 0xF92 JUMP JUMPDEST DUP2 ADD SWAP1 PUSH2 0x103F JUMP JUMPDEST PUSH0 PUSH2 0x4DD JUMP JUMPDEST POP RETURNDATASIZE PUSH2 0x580 JUMP JUMPDEST DUP4 MLOAD RETURNDATASIZE PUSH0 DUP3 RETURNDATACOPY RETURNDATASIZE SWAP1 REVERT JUMPDEST DUP4 MLOAD PUSH4 0x22DF0513 PUSH1 0xE1 SHL DUP2 MSTORE DUP1 DUP10 ADD DUP9 SWAP1 MSTORE SWAP2 DUP3 ADD MSTORE PUSH1 0x44 SWAP1 REVERT JUMPDEST DUP3 MLOAD PUSH4 0x54745FCF PUSH1 0xE0 SHL DUP2 MSTORE DUP1 DUP9 ADD DUP7 SWAP1 MSTORE REVERT JUMPDEST POP DUP3 MLOAD PUSH4 0x37208F63 PUSH1 0xE0 SHL DUP2 MSTORE DUP1 DUP9 ADD DUP7 SWAP1 MSTORE REVERT JUMPDEST POP DUP3 MLOAD PUSH4 0x3CA47295 PUSH1 0xE2 SHL DUP2 MSTORE DUP1 DUP9 ADD DUP7 SWAP1 MSTORE REVERT JUMPDEST POP SWAP1 CALLVALUE PUSH2 0x13E JUMPI PUSH1 0x20 CALLDATASIZE PUSH1 0x3 NOT ADD SLT PUSH2 0x13E JUMPI DUP1 CALLDATALOAD SWAP2 DUP3 PUSH0 MSTORE PUSH1 0x2 PUSH1 0x20 MSTORE PUSH1 0x3 DUP2 PUSH0 KECCAK256 ADD SWAP2 DUP3 SLOAD SWAP2 PUSH1 0x1 PUSH1 0x1 PUSH1 0x40 SHL SUB DUP4 AND ISZERO PUSH2 0x6E0 JUMPI PUSH1 0xFF DUP4 PUSH1 0x68 SHR AND PUSH2 0x6CA JUMPI PUSH1 0xFF DUP4 PUSH1 0x60 SHR AND PUSH2 0x6B4 JUMPI PUSH4 0xFFFFFFFF DUP4 DUP3 SHR AND SWAP1 DUP2 NUMBER LT PUSH2 0x698 JUMPI POP POP POP PUSH1 0xFF PUSH1 0x68 SHL NOT AND PUSH1 0x1 PUSH1 0x68 SHL OR SWAP1 SSTORE PUSH32 0xF92FF93868FA3EF75D1D4162F74A6C3C8788F6B096B69B80182C53A4AE7D0B22 PUSH0 DUP1 LOG2 STOP JUMPDEST MLOAD PUSH4 0x3F1AF8C7 PUSH1 0xE2 SHL DUP2 MSTORE SWAP2 DUP3 ADD DUP6 SWAP1 MSTORE PUSH1 0x24 DUP3 ADD MSTORE PUSH1 0x44 SWAP2 POP REVERT JUMPDEST MLOAD PUSH4 0x9D77E10D PUSH1 0xE0 SHL DUP2 MSTORE SWAP1 DUP2 ADD DUP5 SWAP1 MSTORE PUSH1 0x24 SWAP1 REVERT JUMPDEST MLOAD PUSH4 0x37208F63 PUSH1 0xE0 SHL DUP2 MSTORE SWAP1 DUP2 ADD DUP5 SWAP1 MSTORE PUSH1 0x24 SWAP1 REVERT JUMPDEST MLOAD PUSH4 0x3CA47295 PUSH1 0xE2 SHL DUP2 MSTORE SWAP1 DUP2 ADD DUP5 SWAP1 MSTORE PUSH1 0x24 SWAP1 REVERT JUMPDEST POP CALLVALUE PUSH2 0x13E JUMPI PUSH0 CALLDATASIZE PUSH1 0x3 NOT ADD SLT PUSH2 0x13E JUMPI PUSH1 0x20 SWAP1 PUSH1 0x5 SLOAD SWAP1 MLOAD SWAP1 DUP2 MSTORE RETURN JUMPDEST POP CALLVALUE PUSH2 0x13E JUMPI PUSH0 CALLDATASIZE PUSH1 0x3 NOT ADD SLT PUSH2 0x13E JUMPI PUSH0 DUP1 MLOAD PUSH1 0x20 PUSH2 0x13AA DUP4 CODECOPY DUP2 MLOAD SWAP2 MSTORE SLOAD SWAP1 MLOAD PUSH1 0x1 PUSH1 0x1 PUSH1 0xA0 SHL SUB SWAP1 SWAP2 AND DUP2 MSTORE PUSH1 0x20 SWAP1 RETURN JUMPDEST POP CALLVALUE PUSH2 0x13E JUMPI PUSH1 0x20 CALLDATASIZE PUSH1 0x3 NOT ADD SLT PUSH2 0x13E JUMPI PUSH1 0xE0 SWAP2 PUSH0 PUSH1 0xC0 DUP4 MLOAD PUSH2 0x76B DUP2 PUSH2 0xF63 JUMP JUMPDEST DUP3 DUP2 MSTORE DUP3 PUSH1 0x20 DUP3 ADD MSTORE DUP3 DUP6 DUP3 ADD MSTORE DUP3 PUSH1 0x60 DUP3 ADD MSTORE DUP3 PUSH1 0x80 DUP3 ADD MSTORE DUP3 PUSH1 0xA0 DUP3 ADD MSTORE ADD MSTORE CALLDATALOAD PUSH0 MSTORE PUSH1 0x2 PUSH1 0x20 MSTORE DUP1 PUSH0 KECCAK256 SWAP1 DUP1 MLOAD PUSH2 0x7A4 DUP2 PUSH2 0xF63 JUMP JUMPDEST DUP3 SLOAD SWAP3 DUP4 DUP3 MSTORE PUSH1 0x1 DUP2 ADD SLOAD PUSH1 0x20 DUP4 ADD SWAP1 DUP2 MSTORE PUSH1 0x3 PUSH1 0x2 DUP4 ADD SLOAD SWAP3 DUP6 DUP6 ADD SWAP4 DUP5 MSTORE ADD SLOAD SWAP4 PUSH1 0x1 PUSH1 0x1 PUSH1 0x40 SHL SUB SWAP1 PUSH1 0x60 DUP6 ADD SWAP1 DUP3 DUP8 AND DUP3 MSTORE PUSH4 0xFFFFFFFF SWAP5 PUSH1 0x80 DUP8 ADD SWAP5 DUP7 DUP10 DUP5 SHR AND DUP7 MSTORE PUSH1 0xFF PUSH1 0xC0 PUSH1 0xA0 DUP11 ADD SWAP10 DUP3 DUP13 PUSH1 0x60 SHR AND ISZERO ISZERO DUP12 MSTORE ADD SWAP10 PUSH1 0x68 SHR AND ISZERO ISZERO DUP10 MSTORE DUP3 MLOAD SWAP10 DUP11 MSTORE MLOAD PUSH1 0x20 DUP11 ADD MSTORE MLOAD SWAP1 DUP9 ADD MSTORE MLOAD AND PUSH1 0x60 DUP7 ADD MSTORE MLOAD AND PUSH1 0x80 DUP5 ADD MSTORE MLOAD ISZERO ISZERO PUSH1 0xA0 DUP4 ADD MSTORE MLOAD ISZERO ISZERO PUSH1 0xC0 DUP3 ADD MSTORE RETURN JUMPDEST POP CALLVALUE PUSH2 0x13E JUMPI PUSH1 0x20 CALLDATASIZE PUSH1 0x3 NOT ADD SLT PUSH2 0x13E JUMPI PUSH1 0x20 SWAP2 CALLDATALOAD PUSH0 MSTORE PUSH1 0x2 DUP3 MSTORE PUSH1 0xFF PUSH1 0x3 DUP3 PUSH0 KECCAK256 ADD SLOAD PUSH1 0x68 SHR AND SWAP1 MLOAD SWAP1 ISZERO ISZERO DUP2 MSTORE RETURN JUMPDEST CALLVALUE PUSH2 0x13E JUMPI PUSH0 CALLDATASIZE PUSH1 0x3 NOT ADD SLT PUSH2 0x13E JUMPI PUSH2 0x883 PUSH2 0x129F JUMP JUMPDEST PUSH0 DUP1 MLOAD PUSH1 0x20 PUSH2 0x13AA DUP4 CODECOPY DUP2 MLOAD SWAP2 MSTORE DUP1 SLOAD PUSH1 0x1 PUSH1 0x1 PUSH1 0xA0 SHL SUB NOT DUP2 AND SWAP1 SWAP2 SSTORE PUSH0 SWAP1 PUSH1 0x1 PUSH1 0x1 PUSH1 0xA0 SHL SUB AND PUSH32 0x8BE0079C531659141344CD1FD0A4F28419497F9722A3DAAFE3B4186F6B6457E0 DUP3 DUP1 LOG3 STOP JUMPDEST DUP3 CALLVALUE PUSH2 0x13E JUMPI PUSH1 0xA0 CALLDATASIZE PUSH1 0x3 NOT ADD SLT PUSH2 0x13E JUMPI PUSH2 0x186 SWAP1 PUSH1 0x84 CALLDATALOAD SWAP1 PUSH1 0x64 CALLDATALOAD SWAP1 PUSH1 0x44 CALLDATALOAD SWAP1 PUSH1 0x24 CALLDATALOAD SWAP1 CALLDATALOAD PUSH2 0x10C8 JUMP JUMPDEST POP SWAP1 CALLVALUE PUSH2 0x13E JUMPI PUSH1 0x60 CALLDATASIZE PUSH1 0x3 NOT ADD SLT PUSH2 0x13E JUMPI DUP1 CALLDATALOAD PUSH1 0x24 SWAP3 DUP4 CALLDATALOAD PUSH1 0x1 PUSH1 0x1 PUSH1 0x40 SHL SUB SWAP1 DUP2 DUP2 GT PUSH2 0x13E JUMPI PUSH2 0x935 SWAP1 CALLDATASIZE SWAP1 DUP7 ADD PUSH2 0xFCE JUMP JUMPDEST PUSH1 0x44 SWAP6 SWAP2 SWAP6 CALLDATALOAD DUP4 DUP2 GT PUSH2 0x13E JUMPI PUSH2 0x950 DUP9 SWAP2 CALLDATASIZE SWAP1 DUP6 ADD PUSH2 0xFCE JUMP JUMPDEST SWAP3 PUSH2 0x959 PUSH2 0x1260 JUMP JUMPDEST DUP8 PUSH0 MSTORE PUSH1 0x20 SWAP9 PUSH1 0x2 DUP11 MSTORE DUP8 PUSH0 KECCAK256 SWAP3 PUSH1 0x3 DUP5 ADD SWAP8 DUP9 SLOAD SWAP1 DUP2 AND ISZERO PUSH2 0xBD8 JUMPI PUSH1 0x60 SHR PUSH1 0xFF AND ISZERO PUSH2 0xBC2 JUMPI SWAP1 DUP11 SWAP2 PUSH1 0x1 PUSH1 0xA0 SHL PUSH1 0x1 SWAP1 SUB SWAP7 DUP8 PUSH0 SLOAD AND SWAP6 PUSH1 0x2 ADD SLOAD SWAP3 DUP12 MLOAD SWAP6 DUP7 SWAP6 DUP7 ADD SWAP9 PUSH4 0x189A0C4B PUSH1 0xE3 SHL DUP11 MSTORE DUP7 ADD PUSH1 0x60 SWAP1 MSTORE PUSH1 0x84 DUP7 ADD SWAP1 PUSH2 0x9BE SWAP3 PUSH2 0x101F JUMP JUMPDEST SWAP1 PUSH1 0x23 NOT DUP6 DUP4 SUB ADD PUSH1 0x44 DUP7 ADD MSTORE PUSH2 0x9D4 SWAP3 PUSH2 0x101F JUMP JUMPDEST SWAP1 PUSH1 0x64 DUP4 ADD MSTORE SUB PUSH1 0x1F NOT DUP2 ADD DUP3 MSTORE PUSH2 0x9EC SWAP1 DUP3 PUSH2 0xF92 JUMP JUMPDEST MLOAD GAS SWAP3 PUSH0 DUP1 SWAP5 SWAP4 DUP2 SWAP5 CALL RETURNDATASIZE ISZERO PUSH2 0xBBD JUMPI RETURNDATASIZE PUSH2 0xA06 DUP2 PUSH2 0xFB3 JUMP JUMPDEST SWAP1 PUSH2 0xA13 DUP8 MLOAD SWAP3 DUP4 PUSH2 0xF92 JUMP JUMPDEST DUP2 MSTORE PUSH0 DUP9 RETURNDATASIZE SWAP3 ADD RETURNDATACOPY JUMPDEST ISZERO PUSH2 0xAE2 JUMPI PUSH1 0x44 DUP7 SWAP3 PUSH0 PUSH2 0xDEAD SWAP4 PUSH1 0x1 SLOAD AND PUSH8 0xDE0B6B3A7640000 DUP9 MLOAD SWAP12 DUP13 SWAP7 DUP8 SWAP6 PUSH4 0xA9059CBB PUSH1 0xE0 SHL DUP8 MSTORE DUP7 ADD MSTORE DUP5 ADD MSTORE GAS CALL SWAP5 DUP6 ISZERO PUSH2 0xAD8 JUMPI PUSH32 0xC960B0A8D05987D3303A43FBCE4CCF8CCC3262A2B5517A35C97FC8848C23054C SWAP4 SWAP5 SWAP6 PUSH2 0xABB JUMPI JUMPDEST POP DUP1 SLOAD PUSH1 0xFF PUSH1 0x60 SHL NOT AND SWAP1 SSTORE MLOAD PUSH1 0x1 DUP2 MSTORE CALLER SWAP4 SWAP1 LOG3 JUMPDEST PUSH0 PUSH32 0x9B779B17422D0DF92223018B32B4D1FA46E071723D6817E2486D003BECC55F00 TSTORE STOP JUMPDEST PUSH2 0xAD1 SWAP1 DUP7 RETURNDATASIZE DUP9 GT PUSH2 0x598 JUMPI PUSH2 0x58A DUP2 DUP4 PUSH2 0xF92 JUMP JUMPDEST POP PUSH0 PUSH2 0xA80 JUMP JUMPDEST DUP3 MLOAD RETURNDATASIZE PUSH0 DUP3 RETURNDATACOPY RETURNDATASIZE SWAP1 REVERT JUMPDEST DUP6 SWAP2 SWAP3 POP SWAP6 PUSH1 0x44 PUSH8 0xDE0B6B3A7640000 SWAP8 DUP7 PUSH0 MSTORE DUP5 DUP5 MSTORE PUSH0 DUP2 DUP8 DUP3 KECCAK256 SLOAD AND SWAP2 PUSH1 0x1 SLOAD AND DUP8 MLOAD SWAP11 DUP12 SWAP6 DUP7 SWAP5 PUSH4 0xA9059CBB PUSH1 0xE0 SHL DUP7 MSTORE DUP10 DUP7 ADD MSTORE DUP5 ADD MSTORE GAS CALL SWAP5 DUP6 ISZERO PUSH2 0xAD8 JUMPI PUSH32 0xC960B0A8D05987D3303A43FBCE4CCF8CCC3262A2B5517A35C97FC8848C23054C SWAP4 SWAP5 SWAP6 PUSH2 0xBA0 JUMPI JUMPDEST POP DUP4 PUSH0 MSTORE PUSH1 0x2 DUP6 MSTORE PUSH0 PUSH1 0x3 DUP4 DUP3 KECCAK256 DUP3 DUP2 SSTORE DUP3 PUSH1 0x1 DUP3 ADD SSTORE DUP3 PUSH1 0x2 DUP3 ADD SSTORE ADD SSTORE PUSH1 0x3 DUP6 MSTORE DUP2 PUSH0 KECCAK256 SWAP1 PUSH1 0x1 PUSH1 0x1 PUSH1 0x60 SHL SUB PUSH1 0xA0 SHL SWAP2 DUP3 DUP2 SLOAD AND SWAP1 SSTORE DUP6 MSTORE DUP2 PUSH0 KECCAK256 SWAP1 DUP2 SLOAD AND SWAP1 SSTORE MLOAD SWAP3 PUSH0 DUP5 MSTORE CALLER SWAP4 LOG3 PUSH2 0xA96 JUMP JUMPDEST PUSH2 0xBB6 SWAP1 DUP7 RETURNDATASIZE DUP9 GT PUSH2 0x598 JUMPI PUSH2 0x58A DUP2 DUP4 PUSH2 0xF92 JUMP JUMPDEST POP PUSH0 PUSH2 0xB4F JUMP JUMPDEST PUSH2 0xA1C JUMP JUMPDEST DUP9 MLOAD PUSH4 0x3CA47295 PUSH1 0xE2 SHL DUP2 MSTORE DUP1 DUP9 ADD DUP12 SWAP1 MSTORE DUP6 SWAP1 REVERT JUMPDEST DUP10 MLOAD PUSH4 0x3CA47295 PUSH1 0xE2 SHL DUP2 MSTORE DUP1 DUP10 ADD DUP13 SWAP1 MSTORE DUP7 SWAP1 REVERT JUMPDEST POP CALLVALUE PUSH2 0x13E JUMPI PUSH0 CALLDATASIZE PUSH1 0x3 NOT ADD SLT PUSH2 0x13E JUMPI PUSH32 0x0 PUSH1 0x1 PUSH1 0x1 PUSH1 0xA0 SHL SUB AND ADDRESS SUB PUSH2 0xC58 JUMPI PUSH1 0x20 SWAP1 MLOAD PUSH32 0x360894A13BA1A3210667C828492DB98DCA3E2076CC3735A920A3CA505D382BBC DUP2 MSTORE RETURN JUMPDEST MLOAD PUSH4 0x703E46DD PUSH1 0xE1 SHL DUP2 MSTORE REVERT JUMPDEST POP SWAP1 DUP2 PUSH1 0x3 NOT CALLDATASIZE ADD SLT PUSH2 0x13E JUMPI PUSH2 0xC7A PUSH2 0xF4D JUMP JUMPDEST PUSH1 0x24 SWAP3 DUP4 CALLDATALOAD SWAP2 PUSH1 0x1 PUSH1 0x1 PUSH1 0x40 SHL SUB DUP4 GT PUSH2 0x13E JUMPI CALLDATASIZE PUSH1 0x23 DUP5 ADD SLT ISZERO PUSH2 0x13E JUMPI DUP3 DUP5 ADD CALLDATALOAD SWAP1 PUSH2 0xCA7 DUP3 PUSH2 0xFB3 JUMP JUMPDEST SWAP2 PUSH2 0xCB4 DUP5 MLOAD SWAP4 DUP5 PUSH2 0xF92 JUMP JUMPDEST DUP1 DUP4 MSTORE PUSH1 0x20 SWAP5 CALLDATASIZE DUP9 DUP4 DUP4 ADD ADD GT PUSH2 0x13E JUMPI DUP2 PUSH0 SWAP3 DUP10 DUP9 SWAP4 ADD DUP4 DUP8 ADD CALLDATACOPY DUP5 ADD ADD MSTORE PUSH1 0x1 PUSH1 0x1 PUSH1 0xA0 SHL SUB PUSH32 0x0 DUP2 AND ADDRESS DUP2 EQ SWAP1 DUP2 ISZERO PUSH2 0xE50 JUMPI JUMPDEST POP PUSH2 0xE40 JUMPI PUSH2 0xD17 PUSH2 0x129F JUMP JUMPDEST DUP4 MLOAD PUSH4 0x52D1902D PUSH1 0xE0 SHL DUP2 MSTORE SWAP1 DUP3 AND SWAP5 DUP1 DUP3 DUP9 DUP2 DUP10 GAS STATICCALL SWAP2 DUP3 SWAP2 PUSH0 SWAP4 PUSH2 0xE10 JUMPI JUMPDEST POP POP PUSH2 0xD52 JUMPI POP POP POP MLOAD SWAP2 PUSH4 0x4C9C8CE3 PUSH1 0xE0 SHL DUP4 MSTORE DUP3 ADD MSTORE REVERT JUMPDEST DUP6 SWAP4 DUP6 SWAP2 DUP9 PUSH32 0x360894A13BA1A3210667C828492DB98DCA3E2076CC3735A920A3CA505D382BBC SWAP2 DUP3 DUP2 SUB PUSH2 0xDFB JUMPI POP DUP5 EXTCODESIZE ISZERO PUSH2 0xDE7 JUMPI POP DUP1 SLOAD PUSH1 0x1 PUSH1 0x1 PUSH1 0xA0 SHL SUB NOT AND DUP4 OR SWAP1 SSTORE MLOAD SWAP1 PUSH32 0xBC7CD75A20EE27FD9ADEBAB32041F755214DBC6BFFA90CC0225B39DA2E5C2D3B PUSH0 DUP1 LOG2 DUP3 MLOAD ISZERO PUSH2 0xDD1 JUMPI POP PUSH2 0x186 SWAP3 POP PUSH2 0x1318 JUMP JUMPDEST SWAP2 POP POP CALLVALUE PUSH2 0xDDB JUMPI STOP JUMPDEST PUSH4 0xB398979F PUSH1 0xE0 SHL DUP2 MSTORE REVERT JUMPDEST DUP3 MLOAD PUSH4 0x4C9C8CE3 PUSH1 0xE0 SHL DUP2 MSTORE DUP1 DUP9 ADD DUP6 SWAP1 MSTORE REVERT JUMPDEST DUP4 MLOAD PUSH4 0x2A875269 PUSH1 0xE2 SHL DUP2 MSTORE DUP1 DUP10 ADD SWAP2 SWAP1 SWAP2 MSTORE REVERT JUMPDEST SWAP1 DUP1 SWAP3 SWAP4 POP DUP2 RETURNDATASIZE DUP4 GT PUSH2 0xE39 JUMPI JUMPDEST PUSH2 0xE28 DUP2 DUP4 PUSH2 0xF92 JUMP JUMPDEST DUP2 ADD SUB SLT PUSH2 0x13E JUMPI MLOAD SWAP1 PUSH0 DUP1 PUSH2 0xD38 JUMP JUMPDEST POP RETURNDATASIZE PUSH2 0xE1E JUMP JUMPDEST DUP4 MLOAD PUSH4 0x703E46DD PUSH1 0xE1 SHL DUP2 MSTORE DUP7 SWAP1 REVERT JUMPDEST SWAP1 POP DUP2 PUSH32 0x360894A13BA1A3210667C828492DB98DCA3E2076CC3735A920A3CA505D382BBC SLOAD AND EQ ISZERO PUSH0 PUSH2 0xD0A JUMP JUMPDEST POP CALLVALUE PUSH2 0x13E JUMPI PUSH1 0x20 SWAP1 PUSH1 0x20 PUSH1 0x3 NOT CALLDATASIZE ADD SLT PUSH2 0x13E JUMPI DUP3 CALLDATALOAD SWAP2 PUSH1 0x1 PUSH1 0x1 PUSH1 0x40 SHL SUB SWAP4 DUP5 DUP5 GT PUSH2 0x13E JUMPI CALLDATASIZE PUSH1 0x23 DUP6 ADD SLT ISZERO PUSH2 0x13E JUMPI DUP4 ADD CALLDATALOAD SWAP4 DUP5 GT PUSH2 0x13E JUMPI PUSH1 0x24 DUP4 ADD SWAP3 PUSH1 0x24 CALLDATASIZE SWAP2 PUSH1 0xA0 DUP8 MUL ADD ADD GT PUSH2 0x13E JUMPI PUSH0 JUMPDEST DUP5 DUP2 LT PUSH2 0xEDA JUMPI STOP JUMPDEST DUP1 PUSH2 0xF2D PUSH2 0xEEB PUSH1 0x1 SWAP4 DUP9 DUP9 PUSH2 0xFFB JUMP JUMPDEST CALLDATALOAD DUP5 PUSH2 0xEF8 DUP5 DUP11 DUP11 PUSH2 0xFFB JUMP JUMPDEST ADD CALLDATALOAD DUP7 PUSH2 0xF06 DUP6 DUP12 DUP12 PUSH2 0xFFB JUMP JUMPDEST ADD CALLDATALOAD PUSH1 0x60 PUSH2 0xF15 DUP7 DUP13 DUP13 PUSH2 0xFFB JUMP JUMPDEST ADD CALLDATALOAD SWAP2 PUSH1 0x80 PUSH2 0xF25 DUP8 DUP14 DUP14 PUSH2 0xFFB JUMP JUMPDEST ADD CALLDATALOAD SWAP4 PUSH2 0x10C8 JUMP JUMPDEST ADD PUSH2 0xED1 JUMP JUMPDEST CALLVALUE PUSH2 0x13E JUMPI PUSH0 CALLDATASIZE PUSH1 0x3 NOT ADD SLT PUSH2 0x13E JUMPI DUP1 PUSH2 0x12C PUSH1 0x20 SWAP3 MSTORE RETURN JUMPDEST PUSH1 0x4 CALLDATALOAD SWAP1 PUSH1 0x1 PUSH1 0x1 PUSH1 0xA0 SHL SUB DUP3 AND DUP3 SUB PUSH2 0x13E JUMPI JUMP JUMPDEST PUSH1 0xE0 DUP2 ADD SWAP1 DUP2 LT PUSH1 0x1 PUSH1 0x1 PUSH1 0x40 SHL SUB DUP3 GT OR PUSH2 0xF7E JUMPI PUSH1 0x40 MSTORE JUMP JUMPDEST PUSH4 0x4E487B71 PUSH1 0xE0 SHL PUSH0 MSTORE PUSH1 0x41 PUSH1 0x4 MSTORE PUSH1 0x24 PUSH0 REVERT JUMPDEST SWAP1 PUSH1 0x1F DUP1 NOT SWAP2 ADD AND DUP2 ADD SWAP1 DUP2 LT PUSH1 0x1 PUSH1 0x1 PUSH1 0x40 SHL SUB DUP3 GT OR PUSH2 0xF7E JUMPI PUSH1 0x40 MSTORE JUMP JUMPDEST PUSH1 0x1 PUSH1 0x1 PUSH1 0x40 SHL SUB DUP2 GT PUSH2 0xF7E JUMPI PUSH1 0x1F ADD PUSH1 0x1F NOT AND PUSH1 0x20 ADD SWAP1 JUMP JUMPDEST SWAP2 DUP2 PUSH1 0x1F DUP5 ADD SLT ISZERO PUSH2 0x13E JUMPI DUP3 CALLDATALOAD SWAP2 PUSH1 0x1 PUSH1 0x1 PUSH1 0x40 SHL SUB DUP4 GT PUSH2 0x13E JUMPI PUSH1 0x20 DUP4 DUP2 DUP7 ADD SWAP6 ADD ADD GT PUSH2 0x13E JUMPI JUMP JUMPDEST SWAP2 SWAP1 DUP2 LT ISZERO PUSH2 0x100B JUMPI PUSH1 0xA0 MUL ADD SWAP1 JUMP JUMPDEST PUSH4 0x4E487B71 PUSH1 0xE0 SHL PUSH0 MSTORE PUSH1 0x32 PUSH1 0x4 MSTORE PUSH1 0x24 PUSH0 REVERT JUMPDEST SWAP1 DUP1 PUSH1 0x20 SWAP4 SWAP3 DUP2 DUP5 MSTORE DUP5 DUP5 ADD CALLDATACOPY PUSH0 DUP3 DUP3 ADD DUP5 ADD MSTORE PUSH1 0x1F ADD PUSH1 0x1F NOT AND ADD ADD SWAP1 JUMP JUMPDEST SWAP1 DUP2 PUSH1 0x20 SWAP2 SUB SLT PUSH2 0x13E JUMPI MLOAD DUP1 ISZERO ISZERO DUP2 SUB PUSH2 0x13E JUMPI SWAP1 JUMP JUMPDEST PUSH1 0x1 PUSH1 0x1 PUSH1 0xA0 SHL SUB SWAP1 DUP2 AND SWAP1 DUP2 ISZERO PUSH2 0x10B0 JUMPI PUSH0 DUP1 MLOAD PUSH1 0x20 PUSH2 0x13AA DUP4 CODECOPY DUP2 MLOAD SWAP2 MSTORE DUP1 SLOAD PUSH1 0x1 PUSH1 0x1 PUSH1 0xA0 SHL SUB NOT DUP2 AND DUP5 OR SWAP1 SWAP2 SSTORE AND PUSH32 0x8BE0079C531659141344CD1FD0A4F28419497F9722A3DAAFE3B4186F6B6457E0 PUSH0 DUP1 LOG3 JUMP JUMPDEST PUSH1 0x40 MLOAD PUSH4 0x1E4FBDF7 PUSH1 0xE0 SHL DUP2 MSTORE PUSH0 PUSH1 0x4 DUP3 ADD MSTORE PUSH1 0x24 SWAP1 REVERT JUMPDEST SWAP3 SWAP4 SWAP1 SWAP2 SWAP4 PUSH1 0x40 SWAP2 DUP3 MLOAD SWAP5 PUSH1 0x20 SWAP5 DUP6 DUP8 ADD SWAP2 DUP3 MSTORE DUP5 DUP8 ADD MSTORE DUP7 PUSH1 0x60 DUP8 ADD MSTORE NUMBER PUSH1 0x80 DUP8 ADD MSTORE PUSH1 0x80 DUP7 MSTORE PUSH1 0xA0 DUP7 ADD PUSH1 0x1 PUSH1 0x1 PUSH1 0x40 SHL SUB SWAP2 DUP8 DUP3 LT DUP4 DUP4 GT OR PUSH2 0xF7E JUMPI DUP2 DUP7 MSTORE DUP8 MLOAD SWAP1 KECCAK256 SWAP7 DUP8 PUSH0 MSTORE PUSH1 0x2 DUP8 MSTORE DUP3 PUSH1 0x3 DUP8 PUSH0 KECCAK256 ADD SLOAD AND PUSH2 0x124B JUMPI POP POP PUSH1 0x96 NUMBER ADD SWAP1 DUP2 NUMBER GT PUSH2 0x1237 JUMPI DUP5 MLOAD SWAP3 PUSH2 0x113E DUP5 PUSH2 0xF63 JUMP JUMPDEST DUP9 DUP5 MSTORE DUP7 DUP5 ADD SWAP2 DUP6 DUP4 MSTORE DUP7 DUP6 ADD SWAP2 DUP3 MSTORE PUSH1 0x3 PUSH1 0x60 DUP7 ADD SWAP6 DUP3 NUMBER AND DUP8 MSTORE PUSH4 0xFFFFFFFF PUSH1 0x80 DUP3 ADD SWAP7 AND DUP7 MSTORE PUSH1 0xA0 DUP2 ADD SWAP4 PUSH0 DUP6 MSTORE PUSH1 0xC0 DUP3 ADD SWAP6 PUSH0 DUP8 MSTORE DUP13 PUSH0 MSTORE PUSH1 0x2 DUP13 MSTORE DUP11 PUSH0 KECCAK256 SWAP3 MLOAD DUP4 SSTORE MLOAD PUSH1 0x1 DUP4 ADD SSTORE MLOAD PUSH1 0x2 DUP3 ADD SSTORE ADD SWAP5 MLOAD AND PUSH12 0xFFFFFFFF0000000000000000 DUP6 SLOAD SWAP5 MLOAD DUP9 SHL AND SWAP2 PUSH1 0xFF PUSH1 0x60 SHL SWAP1 MLOAD ISZERO ISZERO PUSH1 0x60 SHL AND SWAP3 PUSH1 0xFF PUSH1 0x68 SHL SWAP1 MLOAD ISZERO ISZERO PUSH1 0x68 SHL AND SWAP4 PUSH14 0xFFFFFFFFFFFFFFFFFFFFFFFFFFFF NOT AND OR OR OR OR SWAP1 SSTORE PUSH1 0x3 DUP4 MSTORE DUP2 PUSH0 KECCAK256 CALLER PUSH1 0x1 PUSH1 0x1 PUSH1 0x60 SHL SUB PUSH1 0xA0 SHL DUP3 SLOAD AND OR SWAP1 SSTORE PUSH1 0x5 SLOAD SWAP3 PUSH0 NOT DUP5 EQ PUSH2 0x1237 JUMPI PUSH1 0x1 PUSH32 0xBF49119D4786E07796FAD8199D0D421751FBC58F29042DB4D4FA69A0A71F3F52 SWAP5 ADD PUSH1 0x5 SSTORE DUP3 MLOAD SWAP6 DUP7 MSTORE DUP6 ADD MSTORE CALLER SWAP4 LOG3 JUMP JUMPDEST PUSH4 0x4E487B71 PUSH1 0xE0 SHL PUSH0 MSTORE PUSH1 0x11 PUSH1 0x4 MSTORE PUSH1 0x24 PUSH0 REVERT JUMPDEST PUSH4 0x841285F PUSH1 0xE1 SHL DUP3 MSTORE PUSH1 0xA4 ADD DUP8 SWAP1 MSTORE PUSH1 0x24 SWAP1 REVERT JUMPDEST PUSH32 0x9B779B17422D0DF92223018B32B4D1FA46E071723D6817E2486D003BECC55F00 DUP1 TLOAD PUSH2 0x128D JUMPI PUSH1 0x1 SWAP1 TSTORE JUMP JUMPDEST PUSH1 0x40 MLOAD PUSH4 0x3EE5AEB5 PUSH1 0xE0 SHL DUP2 MSTORE PUSH1 0x4 SWAP1 REVERT JUMPDEST PUSH0 DUP1 MLOAD PUSH1 0x20 PUSH2 0x13AA DUP4 CODECOPY DUP2 MLOAD SWAP2 MSTORE SLOAD PUSH1 0x1 PUSH1 0x1 PUSH1 0xA0 SHL SUB AND CALLER SUB PUSH2 0x12BF JUMPI JUMP JUMPDEST PUSH1 0x40 MLOAD PUSH4 0x118CDAA7 PUSH1 0xE0 SHL DUP2 MSTORE CALLER PUSH1 0x4 DUP3 ADD MSTORE PUSH1 0x24 SWAP1 REVERT JUMPDEST PUSH1 0xFF PUSH32 0xF0C57E16840DF040F15088DC2F81FE391C3923BEC73E23A9662EFC9C229C6A00 SLOAD PUSH1 0x40 SHR AND ISZERO PUSH2 0x1306 JUMPI JUMP JUMPDEST PUSH1 0x40 MLOAD PUSH4 0x1AFCD79F PUSH1 0xE3 SHL DUP2 MSTORE PUSH1 0x4 SWAP1 REVERT JUMPDEST SWAP1 PUSH0 DUP1 SWAP2 PUSH1 0x20 DUP2 MLOAD SWAP2 ADD DUP5 GAS DELEGATECALL DUP1 DUP1 PUSH2 0x1396 JUMPI JUMPDEST ISZERO PUSH2 0x134C JUMPI POP POP PUSH1 0x40 MLOAD RETURNDATASIZE DUP2 MSTORE RETURNDATASIZE PUSH0 PUSH1 0x20 DUP4 ADD RETURNDATACOPY PUSH1 0x20 RETURNDATASIZE DUP3 ADD ADD PUSH1 0x40 MSTORE SWAP1 JUMP JUMPDEST ISZERO PUSH2 0x1373 JUMPI PUSH1 0x40 MLOAD PUSH4 0x9996B315 PUSH1 0xE0 SHL DUP2 MSTORE PUSH1 0x1 PUSH1 0x1 PUSH1 0xA0 SHL SUB SWAP1 SWAP2 AND PUSH1 0x4 DUP3 ADD MSTORE PUSH1 0x24 SWAP1 REVERT JUMPDEST RETURNDATASIZE ISZERO PUSH2 0x1384 JUMPI PUSH1 0x40 MLOAD RETURNDATASIZE PUSH0 DUP3 RETURNDATACOPY RETURNDATASIZE SWAP1 REVERT JUMPDEST PUSH1 0x40 MLOAD PUSH4 0xD6BDA275 PUSH1 0xE0 SHL DUP2 MSTORE PUSH1 0x4 SWAP1 REVERT JUMPDEST POP RETURNDATASIZE ISZERO ISZERO DUP1 PUSH2 0x132C JUMPI POP DUP2 EXTCODESIZE ISZERO ISZERO PUSH2 0x132C JUMP INVALID SWAP1 AND 0xD0 SWAP14 PUSH19 0xD40FDAE2FD8CEAC6B6234C7706214FD39C1CD1 0xE6 MULMOD LOG0 MSTORE DUP13 NOT SWAP4 STOP LOG2 PUSH5 0x6970667358 0x22 SLT KECCAK256 SWAP3 EXTCODECOPY ORIGIN PUSH24 0xCE2C4BFA3A46F8F4769DAAF165FBC19B31A5E0CF3668E588 0xE0 0xAC 0xBF JUMP PUSH5 0x736F6C6343 STOP ADDMOD XOR STOP CALLER "},"methodIdentifiers":{"DISPUTE_WINDOW()":"f585dc57","MIN_STAKE()":"cb1c2b5c","STAKE_LOCK()":"2f2eaf1f","UPGRADE_INTERFACE_VERSION()":"ad3cb1cc","batchSubmit((bytes32,bytes32,bytes32,bytes32,bytes32)[])":"3c57f7cf","challengers(bytes32)":"fc322d73","commitCount()":"9123988b","dispute(bytes32,uint256)":"a1235847","finalize(bytes32)":"92584d80","getCommit(bytes32)":"8784ea96","initialize(address,address,address)":"c0c53b8b","isFinalized(bytes32)":"7f8d429e","owner()":"8da5cb5b","proxiableUUID()":"52d1902d","renounceOwnership()":"715018a6","resolveDispute(bytes32,bytes,bytes)":"5ae3f660","sequencers(bytes32)":"b2d03518","submitStateRoot(bytes32,bytes32,bytes32,bytes32,bytes32)":"5e3d91f0","transferOwnership(address)":"f2fde38b","upgradeToAndCall(address,bytes)":"4f1ef286","veriToken()":"d600d1c6","zkVerifier()":"d6df096d"}},"storageLayout":{"storage":[{"astId":10800,"contract":"contracts/VericastArbiter.sol:VericastArbiter","label":"zkVerifier","offset":0,"slot":"0","type":"t_address"},{"astId":10803,"contract":"contracts/VericastArbiter.sol:VericastArbiter","label":"veriToken","offset":0,"slot":"1","type":"t_address"},{"astId":10809,"contract":"contracts/VericastArbiter.sol:VericastArbiter","label":"_commits","offset":0,"slot":"2","type":"t_mapping(t_bytes32,t_struct(StateCommit)11379_storage)"},{"astId":10814,"contract":"contracts/VericastArbiter.sol:VericastArbiter","label":"sequencers","offset":0,"slot":"3","type":"t_mapping(t_bytes32,t_address)"},{"astId":10819,"contract":"contracts/VericastArbiter.sol:VericastArbiter","label":"challengers","offset":0,"slot":"4","type":"t_mapping(t_bytes32,t_address)"},{"astId":10822,"contract":"contracts/VericastArbiter.sol:VericastArbiter","label":"commitCount","offset":0,"slot":"5","type":"t_uint256"}],"types":{"t_address":{"encoding":"inplace","label":"address","numberOfBytes":"20"},"t_bool":{"encoding":"inplace","label":"bool","numberOfBytes":"1"},"t_bytes32":{"encoding":"inplace","label":"bytes32","numberOfBytes":"32"},"t_mapping(t_bytes32,t_address)":{"encoding":"mapping","key":"t_bytes32","label":"mapping(bytes32 => address)","numberOfBytes":"32","value":"t_address"},"t_mapping(t_bytes32,t_struct(StateCommit)11379_storage)":{"encoding":"mapping","key":"t_bytes32","label":"mapping(bytes32 => struct IVericastArbiter.StateCommit)","numberOfBytes":"32","value":"t_struct(StateCommit)11379_storage"},"t_struct(StateCommit)11379_storage":{"encoding":"inplace","label":"struct IVericastArbiter.StateCommit","members":[{"astId":11366,"contract":"contracts/VericastArbiter.sol:VericastArbiter","label":"stateRoot","offset":0,"slot":"0","type":"t_bytes32"},{"astId":11368,"contract":"contracts/VericastArbiter.sol:VericastArbiter","label":"teeSeal","offset":0,"slot":"1","type":"t_bytes32"},{"astId":11370,"contract":"contracts/VericastArbiter.sol:VericastArbiter","label":"proofHash","offset":0,"slot":"2","type":"t_bytes32"},{"astId":11372,"contract":"contracts/VericastArbiter.sol:VericastArbiter","label":"blockHeight","offset":0,"slot":"3","type":"t_uint64"},{"astId":11374,"contract":"contracts/VericastArbiter.sol:VericastArbiter","label":"disputeEnd","offset":8,"slot":"3","type":"t_uint32"},{"astId":11376,"contract":"contracts/VericastArbiter.sol:VericastArbiter","label":"disputed","offset":12,"slot":"3","type":"t_bool"},{"astId":11378,"contract":"contracts/VericastArbiter.sol:VericastArbiter","label":"finalized","offset":13,"slot":"3","type":"t_bool"}],"numberOfBytes":"128"},"t_uint256":{"encoding":"inplace","label":"uint256","numberOfBytes":"32"},"t_uint32":{"encoding":"inplace","label":"uint32","numberOfBytes":"4"},"t_uint64":{"encoding":"inplace","label":"uint64","numberOfBytes":"8"}}}}}}