{"contracts/VericastAgentID.sol":{"VericastAgentID":{"abi":[{"inputs":[],"stateMutability":"nonpayable","type":"constructor"},{"inputs":[{"internalType":"address","name":"target","type":"address"}],"name":"AddressEmptyCode","type":"error"},{"inputs":[{"internalType":"address","name":"implementation","type":"address"}],"name":"ERC1967InvalidImplementation","type":"error"},{"inputs":[],"name":"ERC1967NonPayable","type":"error"},{"inputs":[{"internalType":"address","name":"sender","type":"address"},{"internalType":"uint256","name":"tokenId","type":"uint256"},{"internalType":"address","name":"owner","type":"address"}],"name":"ERC721IncorrectOwner","type":"error"},{"inputs":[{"internalType":"address","name":"operator","type":"address"},{"internalType":"uint256","name":"tokenId","type":"uint256"}],"name":"ERC721InsufficientApproval","type":"error"},{"inputs":[{"internalType":"address","name":"approver","type":"address"}],"name":"ERC721InvalidApprover","type":"error"},{"inputs":[{"internalType":"address","name":"operator","type":"address"}],"name":"ERC721InvalidOperator","type":"error"},{"inputs":[{"internalType":"address","name":"owner","type":"address"}],"name":"ERC721InvalidOwner","type":"error"},{"inputs":[{"internalType":"address","name":"receiver","type":"address"}],"name":"ERC721InvalidReceiver","type":"error"},{"inputs":[{"internalType":"address","name":"sender","type":"address"}],"name":"ERC721InvalidSender","type":"error"},{"inputs":[{"internalType":"uint256","name":"tokenId","type":"uint256"}],"name":"ERC721NonexistentToken","type":"error"},{"inputs":[],"name":"FailedCall","type":"error"},{"inputs":[{"internalType":"uint8","name":"agentType","type":"uint8"}],"name":"InvalidAgentType","type":"error"},{"inputs":[],"name":"InvalidInitialization","type":"error"},{"inputs":[],"name":"MaxSupplyReached","type":"error"},{"inputs":[],"name":"NotInitializing","type":"error"},{"inputs":[{"internalType":"uint256","name":"tokenId","type":"uint256"},{"internalType":"address","name":"caller","type":"address"}],"name":"NotOwnerOrAuthorized","type":"error"},{"inputs":[{"internalType":"address","name":"owner","type":"address"}],"name":"OwnableInvalidOwner","type":"error"},{"inputs":[{"internalType":"address","name":"account","type":"address"}],"name":"OwnableUnauthorizedAccount","type":"error"},{"inputs":[{"internalType":"uint256","name":"tokenId","type":"uint256"}],"name":"TokenDoesNotExist","type":"error"},{"inputs":[],"name":"UUPSUnauthorizedCallContext","type":"error"},{"inputs":[{"internalType":"bytes32","name":"slot","type":"bytes32"}],"name":"UUPSUnsupportedProxiableUUID","type":"error"},{"anonymous":false,"inputs":[{"indexed":true,"internalType":"uint256","name":"sourceId","type":"uint256"},{"indexed":true,"internalType":"uint256","name":"newId","type":"uint256"},{"indexed":true,"internalType":"address","name":"owner","type":"address"}],"name":"AgentCloned","type":"event"},{"anonymous":false,"inputs":[{"indexed":true,"internalType":"uint256","name":"tokenId","type":"uint256"},{"indexed":true,"internalType":"address","name":"owner","type":"address"},{"indexed":false,"internalType":"uint8","name":"agentType","type":"uint8"},{"indexed":false,"internalType":"bytes32","name":"memoryRoot","type":"bytes32"}],"name":"AgentMinted","type":"event"},{"anonymous":false,"inputs":[{"indexed":true,"internalType":"address","name":"owner","type":"address"},{"indexed":true,"internalType":"address","name":"approved","type":"address"},{"indexed":true,"internalType":"uint256","name":"tokenId","type":"uint256"}],"name":"Approval","type":"event"},{"anonymous":false,"inputs":[{"indexed":true,"internalType":"address","name":"owner","type":"address"},{"indexed":true,"internalType":"address","name":"operator","type":"address"},{"indexed":false,"internalType":"bool","name":"approved","type":"bool"}],"name":"ApprovalForAll","type":"event"},{"anonymous":false,"inputs":[{"indexed":false,"internalType":"uint64","name":"version","type":"uint64"}],"name":"Initialized","type":"event"},{"anonymous":false,"inputs":[{"indexed":true,"internalType":"uint256","name":"tokenId","type":"uint256"},{"indexed":false,"internalType":"bytes32","name":"oldRoot","type":"bytes32"},{"indexed":false,"internalType":"bytes32","name":"newRoot","type":"bytes32"}],"name":"MemoryUpdated","type":"event"},{"anonymous":false,"inputs":[{"indexed":true,"internalType":"address","name":"previousOwner","type":"address"},{"indexed":true,"internalType":"address","name":"newOwner","type":"address"}],"name":"OwnershipTransferred","type":"event"},{"anonymous":false,"inputs":[{"indexed":true,"internalType":"address","name":"from","type":"address"},{"indexed":true,"internalType":"address","name":"to","type":"address"},{"indexed":true,"internalType":"uint256","name":"tokenId","type":"uint256"}],"name":"Transfer","type":"event"},{"anonymous":false,"inputs":[{"indexed":true,"internalType":"address","name":"implementation","type":"address"}],"name":"Upgraded","type":"event"},{"anonymous":false,"inputs":[{"indexed":true,"internalType":"uint256","name":"tokenId","type":"uint256"},{"indexed":true,"internalType":"address","name":"user","type":"address"},{"indexed":false,"internalType":"bool","name":"authorized","type":"bool"}],"name":"UsageAuthorized","type":"event"},{"inputs":[],"name":"MAX_SUPPLY","outputs":[{"internalType":"uint256","name":"","type":"uint256"}],"stateMutability":"view","type":"function"},{"inputs":[],"name":"UPGRADE_INTERFACE_VERSION","outputs":[{"internalType":"string","name":"","type":"string"}],"stateMutability":"view","type":"function"},{"inputs":[{"internalType":"uint256","name":"","type":"uint256"}],"name":"agentTypes","outputs":[{"internalType":"uint8","name":"","type":"uint8"}],"stateMutability":"view","type":"function"},{"inputs":[{"internalType":"address","name":"to","type":"address"},{"internalType":"uint256","name":"tokenId","type":"uint256"}],"name":"approve","outputs":[],"stateMutability":"nonpayable","type":"function"},{"inputs":[{"internalType":"uint256","name":"tokenId","type":"uint256"},{"internalType":"address","name":"user","type":"address"}],"name":"authorizeUsage","outputs":[],"stateMutability":"nonpayable","type":"function"},{"inputs":[{"internalType":"address","name":"owner","type":"address"}],"name":"balanceOf","outputs":[{"internalType":"uint256","name":"","type":"uint256"}],"stateMutability":"view","type":"function"},{"inputs":[{"internalType":"uint256","name":"tokenId","type":"uint256"},{"internalType":"bytes","name":"reEncryptedData","type":"bytes"},{"internalType":"bytes32","name":"newMemoryRoot","type":"bytes32"}],"name":"cloneAgent","outputs":[{"internalType":"uint256","name":"","type":"uint256"}],"stateMutability":"nonpayable","type":"function"},{"inputs":[{"internalType":"uint256","name":"","type":"uint256"}],"name":"encryptedMetadata","outputs":[{"internalType":"bytes","name":"","type":"bytes"}],"stateMutability":"view","type":"function"},{"inputs":[{"internalType":"uint256","name":"tokenId","type":"uint256"}],"name":"getApproved","outputs":[{"internalType":"address","name":"","type":"address"}],"stateMutability":"view","type":"function"},{"inputs":[{"internalType":"address","name":"initialOwner","type":"address"}],"name":"initialize","outputs":[],"stateMutability":"nonpayable","type":"function"},{"inputs":[{"internalType":"address","name":"owner","type":"address"},{"internalType":"address","name":"operator","type":"address"}],"name":"isApprovedForAll","outputs":[{"internalType":"bool","name":"","type":"bool"}],"stateMutability":"view","type":"function"},{"inputs":[{"internalType":"uint256","name":"","type":"uint256"}],"name":"memoryRoots","outputs":[{"internalType":"bytes32","name":"","type":"bytes32"}],"stateMutability":"view","type":"function"},{"inputs":[{"internalType":"bytes","name":"encryptedData","type":"bytes"},{"internalType":"bytes32","name":"memoryRoot","type":"bytes32"},{"internalType":"uint8","name":"agentType","type":"uint8"}],"name":"mintAgent","outputs":[{"internalType":"uint256","name":"","type":"uint256"}],"stateMutability":"nonpayable","type":"function"},{"inputs":[],"name":"name","outputs":[{"internalType":"string","name":"","type":"string"}],"stateMutability":"view","type":"function"},{"inputs":[],"name":"owner","outputs":[{"internalType":"address","name":"","type":"address"}],"stateMutability":"view","type":"function"},{"inputs":[{"internalType":"uint256","name":"tokenId","type":"uint256"}],"name":"ownerOf","outputs":[{"internalType":"address","name":"","type":"address"}],"stateMutability":"view","type":"function"},{"inputs":[],"name":"proxiableUUID","outputs":[{"internalType":"bytes32","name":"","type":"bytes32"}],"stateMutability":"view","type":"function"},{"inputs":[],"name":"renounceOwnership","outputs":[],"stateMutability":"nonpayable","type":"function"},{"inputs":[{"internalType":"address","name":"from","type":"address"},{"internalType":"address","name":"to","type":"address"},{"internalType":"uint256","name":"tokenId","type":"uint256"}],"name":"safeTransferFrom","outputs":[],"stateMutability":"nonpayable","type":"function"},{"inputs":[{"internalType":"address","name":"from","type":"address"},{"internalType":"address","name":"to","type":"address"},{"internalType":"uint256","name":"tokenId","type":"uint256"},{"internalType":"bytes","name":"data","type":"bytes"}],"name":"safeTransferFrom","outputs":[],"stateMutability":"nonpayable","type":"function"},{"inputs":[{"internalType":"address","name":"operator","type":"address"},{"internalType":"bool","name":"approved","type":"bool"}],"name":"setApprovalForAll","outputs":[],"stateMutability":"nonpayable","type":"function"},{"inputs":[{"internalType":"bytes4","name":"interfaceId","type":"bytes4"}],"name":"supportsInterface","outputs":[{"internalType":"bool","name":"","type":"bool"}],"stateMutability":"view","type":"function"},{"inputs":[],"name":"symbol","outputs":[{"internalType":"string","name":"","type":"string"}],"stateMutability":"view","type":"function"},{"inputs":[{"internalType":"uint256","name":"tokenId","type":"uint256"}],"name":"tokenURI","outputs":[{"internalType":"string","name":"","type":"string"}],"stateMutability":"view","type":"function"},{"inputs":[],"name":"totalMinted","outputs":[{"internalType":"uint256","name":"","type":"uint256"}],"stateMutability":"view","type":"function"},{"inputs":[{"internalType":"address","name":"from","type":"address"},{"internalType":"address","name":"to","type":"address"},{"internalType":"uint256","name":"tokenId","type":"uint256"}],"name":"transferFrom","outputs":[],"stateMutability":"nonpayable","type":"function"},{"inputs":[{"internalType":"address","name":"newOwner","type":"address"}],"name":"transferOwnership","outputs":[],"stateMutability":"nonpayable","type":"function"},{"inputs":[{"internalType":"uint256","name":"tokenId","type":"uint256"},{"internalType":"bytes32","name":"newRoot","type":"bytes32"}],"name":"updateMemory","outputs":[],"stateMutability":"nonpayable","type":"function"},{"inputs":[{"internalType":"address","name":"newImplementation","type":"address"},{"internalType":"bytes","name":"data","type":"bytes"}],"name":"upgradeToAndCall","outputs":[],"stateMutability":"payable","type":"function"},{"inputs":[{"internalType":"uint256","name":"","type":"uint256"},{"internalType":"address","name":"","type":"address"}],"name":"usageAuthorized","outputs":[{"internalType":"bool","name":"","type":"bool"}],"stateMutability":"view","type":"function"}],"evm":{"bytecode":{"linkReferences":{},"object":"60a080604052346100cc57306080527ff0c57e16840df040f15088dc2f81fe391c3923bec73e23a9662efc9c229c6a009081549060ff8260401c166100bd57506001600160401b036002600160401b031982821601610078575b60405161201790816100d18239608051818181610f060152610fa90152f35b6001600160401b031990911681179091556040519081527fc7f505b2f371ae2175ee4913f4499e1f2633a7b5936321eed1cdaeb6115181d290602090a15f8080610059565b63f92ee8a960e01b8152600490fd5b5f80fdfe608060409080825260049081361015610016575f80fd5b5f3560e01c90816301ffc9a7146115545750806306fdde0314611481578063081812fc1461143b578063095ea7b3146113595780631689ab99146111b157806323b872dd1461119a57806332cb6b0c1461117e57806342842e0e146111505780634f1ef28614610f6a57806352d1902d14610ef25780635ddf909614610eae5780636352211e14610e7e57806370a0823114610e2a578063715018a614610dc357806377738c2f14610cd75780638da5cb5b14610ca357806394fde36114610c0257806395d89b4114610af85780639a4269b714610ad0578063a22cb46514610a10578063a2309ff8146109d3578063aa0aa1a914610806578063ad3cb1cc146107c2578063b88d4fde14610768578063c38e8cda1461073d578063c4d66de8146102fa578063c87b56dd146102a7578063e985e9c51461025d578063f2fde38b146102325763fa83d14e1461016a575f80fd5b3461022e578160031936011261022e57803590610185611612565b9261018f83611aae565b6001600160a01b0390339082160361020d57916020917f2f694cefa9aec79e3b654a0847a5210267e409af05ea4369920badbe45ad76a393855f52828452815f20961695865f52835260ff815f2054161591855f528352805f20865f52835261020682825f209060ff801983541691151516179055565b51908152a3005b505163356cc0bf60e01b815290810182815233602082015281906040010390fd5b5f80fd5b3461022e57602036600319011261022e5761025b61024e6115fc565b610256611d2e565b611a3d565b005b823461022e578060031936011261022e576020906102796115fc565b61028a610284611612565b91611793565b9060018060a01b03165f52825260ff815f20541690519015158152f35b50903461022e57602036600319011261022e576102c76102f69235611aae565b505f81516102d48161168b565b528051906102e18261168b565b5f8252519182916020835260208301906115be565b0390f35b50903461022e576020908160031936011261022e576103176115fc565b907ff0c57e16840df040f15088dc2f81fe391c3923bec73e23a9662efc9c229c6a009384549260ff84841c16159167ffffffffffffffff80861695861580610736575b6001809814908161072c575b159081610723575b506107135767ffffffffffffffff19811687178955846106f4575b508451610395816116bb565b601181527015995c9a58d85cdd081059d95b9d081251607a1b888201528551926103be846116bb565b6006845265159051d1539560d21b898501526103d8611eaf565b6103e0611eaf565b81518381116106e1577f80bb2b638cc20bc4d0a60d66940f3ab4a00c1d7b313497ca82fb0b4ab00793009061041582546117cb565b93601f948c868211610696575b50508b9085831160011461060e5761045192915f9183610519575b50508160011b915f199060031b1c19161790565b90555b83519283116105fb57507f80bb2b638cc20bc4d0a60d66940f3ab4a00c1d7b313497ca82fb0b4ab00793019261048a84546117cb565b8281116105a7575b50889183116001146105245791806104c4926104d79695945f926105195750508160011b915f199060031b1c19161790565b90555b6104cf611eaf565b610256611eaf565b825f556104e057005b7fc7f505b2f371ae2175ee4913f4499e1f2633a7b5936321eed1cdaeb6115181d29368ff000000000000000019815416905551908152a1005b015190505f8061043d565b9392918791601f19821690845f527ff4bad0a69248f59680a4f2b3000328cec71a413447c96781cfe5996daa8c456e915f5b8c82821061059157505096836104d79810610579575b505050811b0190556104c7565b01515f1960f88460031b161c191690555f808061056c565b838a015185558c96909401939283019201610556565b6105ec90855f527ff4bad0a69248f59680a4f2b3000328cec71a413447c96781cfe5996daa8c456e8480870160051c8201928d88106105f2575b0160051c0190611825565b5f610492565b925081926105e1565b604190634e487b7160e01b5f525260245ffd5b8b92918d91601f198416865f527f37c58c799b6609234b945e882912ee9ad34948a1dfaa20a97485e1a7752bbf81935f905b828210610675575050841161065d575b505050811b019055610454565b01515f1960f88460031b161c191690555f8080610650565b91929395968291958786015181550195019301908f918f9695949392610640565b6106da91855f52877f37c58c799b6609234b945e882912ee9ad34948a1dfaa20a97485e1a7752bbf819181870160051c83019387106105f2570160051c0190611825565b5f8c610422565b604182634e487b7160e01b5f525260245ffd5b68ffffffffffffffffff1916680100000000000000011788555f610389565b855163f92ee8a960e01b81528390fd5b9050155f61036e565b303b159150610366565b508461035a565b50903461022e57602036600319011261022e57602091355f526003825260ff815f2054169051908152f35b503461022e57608036600319011261022e576107826115fc565b61078a611612565b6044359060643567ffffffffffffffff811161022e5761025b946107b091369101611715565b926107bc838383611880565b33611d66565b823461022e575f36600319011261022e5780516102f6916107e2826116bb565b60058252640352e302e360dc1b6020830152519182916020835260208301906115be565b50903461022e57606036600319011261022e5781359067ffffffffffffffff9060243582811161022e5761083d9036908601611628565b845f949294526020955f80516020611fa2833981519152875260018060a01b03845f205416156109bc575f549461271086116109ad5761087c86611803565b5f556108888633611af4565b855f5260019160018952855f209484116105fb57506108b1836108ab86546117cb565b8661183b565b5f91601f841160011461094657506108df92915f918361093b5750508160011b915f199060031b1c19161790565b90555b815f5260028452604435815f2055825f526003845260ff815f205416825f52815f209060ff1982541617905551918133917fafcb997b9dbf5ea2fdb1c69190293b8b3ad9fc98b62f467832a4a7bf050fc79d5f80a48152f35b013590505f8061043d565b91601f198416855f52895f20935f905b8b8383106109955750505090846001959493921061097c575b505050811b0190556108e2565b01355f19600384901b60f8161c191690555f808061096f565b85850135875595810195938401939190910190610956565b50835163d05cb60960e01b8152fd5b835163c927e5bf60e01b8152908101869052602490fd5b50903461022e575f36600319011261022e575f545f198101919082116109fd576020925051908152f35b601183634e487b7160e01b5f525260245ffd5b50903461022e578060031936011261022e57610a2a6115fc565b906024358015159283820361022e573315610aba576001600160a01b0316938415610aa35750610a7790610a5d33611793565b855f52602052825f209060ff801983541691151516179055565b519081527f17307eab39ab6107e8899845ad3d59bd9653f200f220920489ca2b5937696c3160203392a3005b8251630b61174360e31b8152908101859052602490fd5b825163a9fbf51f60e01b81525f81870152602490fd5b50903461022e57602036600319011261022e57602091355f5260028252805f20549051908152f35b823461022e575f36600319011261022e578051905f90827f80bb2b638cc20bc4d0a60d66940f3ab4a00c1d7b313497ca82fb0b4ab0079301928354610b3c816117cb565b90818452602095600191876001821691825f14610bdb575050600114610b7f575b5050506102f69291610b709103856116d7565b519282849384528301906115be565b5f90815286935091907ff4bad0a69248f59680a4f2b3000328cec71a413447c96781cfe5996daa8c456e5b828410610bc35750505082010181610b706102f6610b5d565b8054848a018601528895508794909301928101610baa565b60ff19168782015293151560051b86019093019350849250610b7091506102f69050610b5d565b503461022e576020908160031936011261022e57355f5260019160018252805f2081519384915f91815491610c36836117cb565b92838652876001821691825f14610bdb575050600114610c63575050506102f69291610b709103856116d7565b8693505f92919252825f20915f925b828410610c8b5750505082010181610b706102f6610b5d565b8054848a018601528895508794909301928101610c72565b823461022e575f36600319011261022e575f80516020611f828339815191525490516001600160a01b039091168152602090f35b50903461022e578060031936011261022e57813590602435825f525f80516020611fa283398151915260205260018060a01b0380835f20541615610dac57610d1e84611aae565b1633141580610d8e575b610d6d57907f14205800338f40587907c69ca0568ea18dda8726d9d9830123af51e1e82af9a791835f526002602052815f2090808254925582519182526020820152a2005b505163356cc0bf60e01b815291820190815233602082015281906040010390fd5b50825f5283602052815f20335f5260205260ff825f20541615610d28565b825163c927e5bf60e01b8152808601859052602490fd5b3461022e575f36600319011261022e57610ddb611d2e565b5f80516020611f8283398151915280546001600160a01b031981169091555f906001600160a01b03167f8be0079c531659141344cd1fd0a4f28419497f9722a3daafe3b4186f6b6457e08280a3005b503461022e57602036600319011261022e57610e446115fc565b906001600160a01b03821615610e6857602083610e608461175b565b549051908152f35b6024905f8451916322718ad960e21b8352820152fd5b50903461022e57602036600319011261022e57610e9d60209235611aae565b90516001600160a01b039091168152f35b50903461022e578060031936011261022e57602091610ecb611612565b9080355f528352815f209060018060a01b03165f52825260ff815f20541690519015158152f35b50903461022e575f36600319011261022e577f00000000000000000000000000000000000000000000000000000000000000006001600160a01b03163003610f5d57602090517f360894a13ba1a3210667c828492db98dca3e2076cc3735a920a3ca505d382bbc8152f35b5163703e46dd60e11b8152fd5b508160031936011261022e57610f7e6115fc565b9160243567ffffffffffffffff811161022e57610f9e9036908401611715565b906001600160a01b037f00000000000000000000000000000000000000000000000000000000000000008116308114908115611122575b5061111257610fe2611d2e565b8416918151946352d1902d60e01b86526020868681875afa5f96816110de575b5061101e57505051634c9c8ce360e01b81529182015260249150fd5b838593877f360894a13ba1a3210667c828492db98dca3e2076cc3735a920a3ca505d382bbc908181036110c85750833b156110b15780546001600160a01b0319168317905551907fbc7cd75a20ee27fd9adebab32041f755214dbc6bffa90cc0225b39da2e5c2d3b5f80a282511561109b575061025b9250611ef0565b915050346110a557005b63b398979f60e01b8152fd5b8151634c9c8ce360e01b8152808701849052602490fd5b86602491845191632a87526960e21b8352820152fd5b9096506020813d60201161110a575b816110fa602093836116d7565b8101031261022e5751955f611002565b3d91506110ed565b815163703e46dd60e11b81528490fd5b9050817f360894a13ba1a3210667c828492db98dca3e2076cc3735a920a3ca505d382bbc541614155f610fd5565b823461022e5761025b9061116336611656565b919251926111708461168b565b5f84526107bc838383611880565b823461022e575f36600319011261022e57602090516127108152f35b3461022e5761025b6111ab36611656565b91611880565b50903461022e57606036600319011261022e5767ffffffffffffffff90823582811161022e576111e49036908501611628565b9092602435906044359260ff841680940361022e575f5495612710871161134957600285116113325761121687611803565b5f556112228733611af4565b865f5260019060209860018a52875f209484116105fb5750611248836108ab86546117cb565b5f91601f84116001146112cb575061127692915f918361093b5750508160011b915f199060031b1c19161790565b90555b835f526002855280835f205560038552825f208260ff19825416179055825191825284820152827feee40c10855d5c03bb73d736da055981bb170a0d2e5f08f87a8abfd0a52fea76833393a351908152f35b91601f198416855f528a5f20935f905b8c83831061131a57505050908460019594939210611301575b505050811b019055611279565b01355f19600384901b60f8161c191690555f80806112f4565b858501358755958101959384019391909101906112db565b8551631328d54f60e11b8152808901869052602490fd5b855163d05cb60960e01b81528890fd5b50903461022e578060031936011261022e576113736115fc565b916024359061138182611aae565b9033151580611428575b8061140b575b6113f457506001600160a01b039384169382918591167f8c5be1e5ebec7d5bd14f71427d1e84f3dd0314c0f7b2291e5b200ac8c7c3b9255f80a45f9081525f80516020611fc28339815191526020522080546001600160a01b0319169091179055005b60249084519063a9fbf51f60e01b82523390820152fd5b5061141582611793565b335f5260205260ff845f20541615611391565b506001600160a01b03821633141561138b565b50903461022e57602036600319011261022e576020913561145b81611aae565b505f525f80516020611fc2833981519152825260018060a01b03815f2054169051908152f35b823461022e575f36600319011261022e578051905f90827f80bb2b638cc20bc4d0a60d66940f3ab4a00c1d7b313497ca82fb0b4ab00793009283546114c5816117cb565b90818452602095600191876001821691825f14610bdb5750506001146114f8575050506102f69291610b709103856116d7565b5f90815286935091907f37c58c799b6609234b945e882912ee9ad34948a1dfaa20a97485e1a7752bbf815b82841061153c5750505082010181610b706102f6610b5d565b8054848a018601528895508794909301928101611523565b823461022e57602036600319011261022e57359063ffffffff60e01b821680920361022e576020916380ac58cd60e01b81149081156115ad575b811561159c575b5015158152f35b6301ffc9a760e01b14905083611595565b635b5e139f60e01b8114915061158e565b91908251928382525f5b8481106115e8575050825f602080949584010152601f8019910116010190565b6020818301810151848301820152016115c8565b600435906001600160a01b038216820361022e57565b602435906001600160a01b038216820361022e57565b9181601f8401121561022e5782359167ffffffffffffffff831161022e576020838186019501011161022e57565b606090600319011261022e576001600160a01b0390600435828116810361022e5791602435908116810361022e579060443590565b6020810190811067ffffffffffffffff8211176116a757604052565b634e487b7160e01b5f52604160045260245ffd5b6040810190811067ffffffffffffffff8211176116a757604052565b90601f8019910116810190811067ffffffffffffffff8211176116a757604052565b67ffffffffffffffff81116116a757601f01601f191660200190565b81601f8201121561022e5780359061172c826116f9565b9261173a60405194856116d7565b8284526020838301011161022e57815f926020809301838601378301015290565b6001600160a01b03165f9081527f80bb2b638cc20bc4d0a60d66940f3ab4a00c1d7b313497ca82fb0b4ab00793036020526040902090565b6001600160a01b03165f9081527f80bb2b638cc20bc4d0a60d66940f3ab4a00c1d7b313497ca82fb0b4ab00793056020526040902090565b90600182811c921680156117f9575b60208310146117e557565b634e487b7160e01b5f52602260045260245ffd5b91607f16916117da565b5f1981146118115760010190565b634e487b7160e01b5f52601160045260245ffd5b818110611830575050565b5f8155600101611825565b9190601f811161184a57505050565b611874925f5260205f20906020601f840160051c83019310611876575b601f0160051c0190611825565b565b9091508190611867565b6001600160a01b0382811693918415611a2557825f52825f80516020611fa2833981519152958660205260409684885f2054169633151580611984575b506118cc90886119485761175b565b60018154019055825f52602052865f20816bffffffffffffffffffffffff60a01b825416179055857fddf252ad1be2c89b69c2b068fc378daa952ba7f163c4a11628f55a4df523b3ef5f80a416928383036119275750505050565b6064945051926364283d7b60e01b8452600484015260248301526044820152fd5b5f8581525f80516020611fc28339815191526020526040902080546001600160a01b03191690556119788961175b565b80545f1901905561175b565b9293509091806119d7575b1561199e57908592915f6118bd565b8786886119bb576024915190637e27328960e01b82526004820152fd5b604491519063177e802f60e01b82523360048301526024820152fd5b503387148015611a09575b8061198f5750855f525f80516020611fc28339815191526020523385895f2054161461198f565b50611a1387611793565b335f5260205260ff885f2054166119e2565b604051633250574960e11b81525f6004820152602490fd5b6001600160a01b03908116908115611a96575f80516020611f8283398151915280546001600160a01b031981168417909155167f8be0079c531659141344cd1fd0a4f28419497f9722a3daafe3b4186f6b6457e05f80a3565b604051631e4fbdf760e01b81525f6004820152602490fd5b5f8181525f80516020611fa283398151915260205260409020546001600160a01b0316908115611adc575090565b60249060405190637e27328960e01b82526004820152fd5b6040805192611b028461168b565b5f84526001600160a01b0393838516938415611d1757825f525f80516020611fa28339815191528386602098838a52875f2054168015159384611cdb575b611b498661175b565b60018154019055835f528a52875f20826bffffffffffffffffffffffff60a01b8254161790557fddf252ad1be2c89b69c2b068fc378daa952ba7f163c4a11628f55a4df523b3ef5f80a4611cc4573b611ba4575b5050505050565b84611be19184959697945180938192630a85bd0160e11b968784523360048501525f602485015260448401526080606484015260848301906115be565b03815f895af15f9181611c84575b50611c4d575050503d5f14611c45573d92611c09846116f9565b93611c16835195866116d7565b84523d5f8286013e5b83519384611c3f578251633250574960e11b815260048101859052602490fd5b84925001fd5b606092611c1f565b9194506001600160e01b031990911603611c6d5750505f80808080611b9d565b602492505190633250574960e11b82526004820152fd5b9091508681813d8311611cbd575b611c9c81836116d7565b8101031261022e57516001600160e01b03198116810361022e57905f611bef565b503d611c92565b83516339e3563760e11b81525f6004820152602490fd5b5f8481525f80516020611fc28339815191526020526040902080546001600160a01b0319169055611d0b8261175b565b80545f19019055611b40565b8351633250574960e11b81525f6004820152602490fd5b5f80516020611f82833981519152546001600160a01b03163303611d4e57565b60405163118cdaa760e01b8152336004820152602490fd5b9293909193843b611d78575050505050565b604051630a85bd0160e11b8082526001600160a01b039586166004830152938516602482015260448101919091526080606482015260209594909316939290859082908190611dcb9060848301906115be565b03815f885af15f9181611e6f575b50611e38575050503d5f14611e30573d91611df3836116f9565b92611e0160405194856116d7565b83523d5f8285013e5b82519283611e2b57604051633250574960e11b815260048101849052602490fd5b019050fd5b606091611e0a565b9193506001600160e01b031990911603611e5757505f80808080611b9d565b60249060405190633250574960e11b82526004820152fd5b9091508581813d8311611ea8575b611e8781836116d7565b8101031261022e57516001600160e01b03198116810361022e57905f611dd9565b503d611e7d565b60ff7ff0c57e16840df040f15088dc2f81fe391c3923bec73e23a9662efc9c229c6a005460401c1615611ede57565b604051631afcd79f60e31b8152600490fd5b905f8091602081519101845af48080611f6e575b15611f245750506040513d81523d5f602083013e60203d82010160405290565b15611f4b57604051639996b31560e01b81526001600160a01b039091166004820152602490fd5b3d15611f5c576040513d5f823e3d90fd5b60405163d6bda27560e01b8152600490fd5b503d151580611f045750813b1515611f0456fe9016d09d72d40fdae2fd8ceac6b6234c7706214fd39c1cd1e609a0528c19930080bb2b638cc20bc4d0a60d66940f3ab4a00c1d7b313497ca82fb0b4ab007930280bb2b638cc20bc4d0a60d66940f3ab4a00c1d7b313497ca82fb0b4ab0079304a2646970667358221220e09748315402f6ae2b7a3d46af18f0f7d23e8bf1a4d5134dc1b75174df8772ea64736f6c63430008180033","opcodes":"PUSH1 0xA0 DUP1 PUSH1 0x40 MSTORE CALLVALUE PUSH2 0xCC JUMPI ADDRESS PUSH1 0x80 MSTORE PUSH32 0xF0C57E16840DF040F15088DC2F81FE391C3923BEC73E23A9662EFC9C229C6A00 SWAP1 DUP2 SLOAD SWAP1 PUSH1 0xFF DUP3 PUSH1 0x40 SHR AND PUSH2 0xBD JUMPI POP PUSH1 0x1 PUSH1 0x1 PUSH1 0x40 SHL SUB PUSH1 0x2 PUSH1 0x1 PUSH1 0x40 SHL SUB NOT DUP3 DUP3 AND ADD PUSH2 0x78 JUMPI JUMPDEST PUSH1 0x40 MLOAD PUSH2 0x2017 SWAP1 DUP2 PUSH2 0xD1 DUP3 CODECOPY PUSH1 0x80 MLOAD DUP2 DUP2 DUP2 PUSH2 0xF06 ADD MSTORE PUSH2 0xFA9 ADD MSTORE RETURN JUMPDEST PUSH1 0x1 PUSH1 0x1 PUSH1 0x40 SHL SUB NOT SWAP1 SWAP2 AND DUP2 OR SWAP1 SWAP2 SSTORE PUSH1 0x40 MLOAD SWAP1 DUP2 MSTORE PUSH32 0xC7F505B2F371AE2175EE4913F4499E1F2633A7B5936321EED1CDAEB6115181D2 SWAP1 PUSH1 0x20 SWAP1 LOG1 PUSH0 DUP1 DUP1 PUSH2 0x59 JUMP JUMPDEST PUSH4 0xF92EE8A9 PUSH1 0xE0 SHL DUP2 MSTORE PUSH1 0x4 SWAP1 REVERT JUMPDEST PUSH0 DUP1 REVERT INVALID PUSH1 0x80 PUSH1 0x40 SWAP1 DUP1 DUP3 MSTORE PUSH1 0x4 SWAP1 DUP2 CALLDATASIZE LT ISZERO PUSH2 0x16 JUMPI PUSH0 DUP1 REVERT JUMPDEST PUSH0 CALLDATALOAD PUSH1 0xE0 SHR SWAP1 DUP2 PUSH4 0x1FFC9A7 EQ PUSH2 0x1554 JUMPI POP DUP1 PUSH4 0x6FDDE03 EQ PUSH2 0x1481 JUMPI DUP1 PUSH4 0x81812FC EQ PUSH2 0x143B JUMPI DUP1 PUSH4 0x95EA7B3 EQ PUSH2 0x1359 JUMPI DUP1 PUSH4 0x1689AB99 EQ PUSH2 0x11B1 JUMPI DUP1 PUSH4 0x23B872DD EQ PUSH2 0x119A JUMPI DUP1 PUSH4 0x32CB6B0C EQ PUSH2 0x117E JUMPI DUP1 PUSH4 0x42842E0E EQ PUSH2 0x1150 JUMPI DUP1 PUSH4 0x4F1EF286 EQ PUSH2 0xF6A JUMPI DUP1 PUSH4 0x52D1902D EQ PUSH2 0xEF2 JUMPI DUP1 PUSH4 0x5DDF9096 EQ PUSH2 0xEAE JUMPI DUP1 PUSH4 0x6352211E EQ PUSH2 0xE7E JUMPI DUP1 PUSH4 0x70A08231 EQ PUSH2 0xE2A JUMPI DUP1 PUSH4 0x715018A6 EQ PUSH2 0xDC3 JUMPI DUP1 PUSH4 0x77738C2F EQ PUSH2 0xCD7 JUMPI DUP1 PUSH4 0x8DA5CB5B EQ PUSH2 0xCA3 JUMPI DUP1 PUSH4 0x94FDE361 EQ PUSH2 0xC02 JUMPI DUP1 PUSH4 0x95D89B41 EQ PUSH2 0xAF8 JUMPI DUP1 PUSH4 0x9A4269B7 EQ PUSH2 0xAD0 JUMPI DUP1 PUSH4 0xA22CB465 EQ PUSH2 0xA10 JUMPI DUP1 PUSH4 0xA2309FF8 EQ PUSH2 0x9D3 JUMPI DUP1 PUSH4 0xAA0AA1A9 EQ PUSH2 0x806 JUMPI DUP1 PUSH4 0xAD3CB1CC EQ PUSH2 0x7C2 JUMPI DUP1 PUSH4 0xB88D4FDE EQ PUSH2 0x768 JUMPI DUP1 PUSH4 0xC38E8CDA EQ PUSH2 0x73D JUMPI DUP1 PUSH4 0xC4D66DE8 EQ PUSH2 0x2FA JUMPI DUP1 PUSH4 0xC87B56DD EQ PUSH2 0x2A7 JUMPI DUP1 PUSH4 0xE985E9C5 EQ PUSH2 0x25D JUMPI DUP1 PUSH4 0xF2FDE38B EQ PUSH2 0x232 JUMPI PUSH4 0xFA83D14E EQ PUSH2 0x16A JUMPI PUSH0 DUP1 REVERT JUMPDEST CALLVALUE PUSH2 0x22E JUMPI DUP2 PUSH1 0x3 NOT CALLDATASIZE ADD SLT PUSH2 0x22E JUMPI DUP1 CALLDATALOAD SWAP1 PUSH2 0x185 PUSH2 0x1612 JUMP JUMPDEST SWAP3 PUSH2 0x18F DUP4 PUSH2 0x1AAE JUMP JUMPDEST PUSH1 0x1 PUSH1 0x1 PUSH1 0xA0 SHL SUB SWAP1 CALLER SWAP1 DUP3 AND SUB PUSH2 0x20D JUMPI SWAP2 PUSH1 0x20 SWAP2 PUSH32 0x2F694CEFA9AEC79E3B654A0847A5210267E409AF05EA4369920BADBE45AD76A3 SWAP4 DUP6 PUSH0 MSTORE DUP3 DUP5 MSTORE DUP2 PUSH0 KECCAK256 SWAP7 AND SWAP6 DUP7 PUSH0 MSTORE DUP4 MSTORE PUSH1 0xFF DUP2 PUSH0 KECCAK256 SLOAD AND ISZERO SWAP2 DUP6 PUSH0 MSTORE DUP4 MSTORE DUP1 PUSH0 KECCAK256 DUP7 PUSH0 MSTORE DUP4 MSTORE PUSH2 0x206 DUP3 DUP3 PUSH0 KECCAK256 SWAP1 PUSH1 0xFF DUP1 NOT DUP4 SLOAD AND SWAP2 ISZERO ISZERO AND OR SWAP1 SSTORE JUMP JUMPDEST MLOAD SWAP1 DUP2 MSTORE LOG3 STOP JUMPDEST POP MLOAD PUSH4 0x356CC0BF PUSH1 0xE0 SHL DUP2 MSTORE SWAP1 DUP2 ADD DUP3 DUP2 MSTORE CALLER PUSH1 0x20 DUP3 ADD MSTORE DUP2 SWAP1 PUSH1 0x40 ADD SUB SWAP1 REVERT JUMPDEST PUSH0 DUP1 REVERT JUMPDEST CALLVALUE PUSH2 0x22E JUMPI PUSH1 0x20 CALLDATASIZE PUSH1 0x3 NOT ADD SLT PUSH2 0x22E JUMPI PUSH2 0x25B PUSH2 0x24E PUSH2 0x15FC JUMP JUMPDEST PUSH2 0x256 PUSH2 0x1D2E JUMP JUMPDEST PUSH2 0x1A3D JUMP JUMPDEST STOP JUMPDEST DUP3 CALLVALUE PUSH2 0x22E JUMPI DUP1 PUSH1 0x3 NOT CALLDATASIZE ADD SLT PUSH2 0x22E JUMPI PUSH1 0x20 SWAP1 PUSH2 0x279 PUSH2 0x15FC JUMP JUMPDEST PUSH2 0x28A PUSH2 0x284 PUSH2 0x1612 JUMP JUMPDEST SWAP2 PUSH2 0x1793 JUMP JUMPDEST SWAP1 PUSH1 0x1 DUP1 PUSH1 0xA0 SHL SUB AND PUSH0 MSTORE DUP3 MSTORE PUSH1 0xFF DUP2 PUSH0 KECCAK256 SLOAD AND SWAP1 MLOAD SWAP1 ISZERO ISZERO DUP2 MSTORE RETURN JUMPDEST POP SWAP1 CALLVALUE PUSH2 0x22E JUMPI PUSH1 0x20 CALLDATASIZE PUSH1 0x3 NOT ADD SLT PUSH2 0x22E JUMPI PUSH2 0x2C7 PUSH2 0x2F6 SWAP3 CALLDATALOAD PUSH2 0x1AAE JUMP JUMPDEST POP PUSH0 DUP2 MLOAD PUSH2 0x2D4 DUP2 PUSH2 0x168B JUMP JUMPDEST MSTORE DUP1 MLOAD SWAP1 PUSH2 0x2E1 DUP3 PUSH2 0x168B JUMP JUMPDEST PUSH0 DUP3 MSTORE MLOAD SWAP2 DUP3 SWAP2 PUSH1 0x20 DUP4 MSTORE PUSH1 0x20 DUP4 ADD SWAP1 PUSH2 0x15BE JUMP JUMPDEST SUB SWAP1 RETURN JUMPDEST POP SWAP1 CALLVALUE PUSH2 0x22E JUMPI PUSH1 0x20 SWAP1 DUP2 PUSH1 0x3 NOT CALLDATASIZE ADD SLT PUSH2 0x22E JUMPI PUSH2 0x317 PUSH2 0x15FC JUMP JUMPDEST SWAP1 PUSH32 0xF0C57E16840DF040F15088DC2F81FE391C3923BEC73E23A9662EFC9C229C6A00 SWAP4 DUP5 SLOAD SWAP3 PUSH1 0xFF DUP5 DUP5 SHR AND ISZERO SWAP2 PUSH8 0xFFFFFFFFFFFFFFFF DUP1 DUP7 AND SWAP6 DUP7 ISZERO DUP1 PUSH2 0x736 JUMPI JUMPDEST PUSH1 0x1 DUP1 SWAP9 EQ SWAP1 DUP2 PUSH2 0x72C JUMPI JUMPDEST ISZERO SWAP1 DUP2 PUSH2 0x723 JUMPI JUMPDEST POP PUSH2 0x713 JUMPI PUSH8 0xFFFFFFFFFFFFFFFF NOT DUP2 AND DUP8 OR DUP10 SSTORE DUP5 PUSH2 0x6F4 JUMPI JUMPDEST POP DUP5 MLOAD PUSH2 0x395 DUP2 PUSH2 0x16BB JUMP JUMPDEST PUSH1 0x11 DUP2 MSTORE PUSH17 0x15995C9A58D85CDD081059D95B9D081251 PUSH1 0x7A SHL DUP9 DUP3 ADD MSTORE DUP6 MLOAD SWAP3 PUSH2 0x3BE DUP5 PUSH2 0x16BB JUMP JUMPDEST PUSH1 0x6 DUP5 MSTORE PUSH6 0x159051D15395 PUSH1 0xD2 SHL DUP10 DUP6 ADD MSTORE PUSH2 0x3D8 PUSH2 0x1EAF JUMP JUMPDEST PUSH2 0x3E0 PUSH2 0x1EAF JUMP JUMPDEST DUP2 MLOAD DUP4 DUP2 GT PUSH2 0x6E1 JUMPI PUSH32 0x80BB2B638CC20BC4D0A60D66940F3AB4A00C1D7B313497CA82FB0B4AB0079300 SWAP1 PUSH2 0x415 DUP3 SLOAD PUSH2 0x17CB JUMP JUMPDEST SWAP4 PUSH1 0x1F SWAP5 DUP13 DUP7 DUP3 GT PUSH2 0x696 JUMPI JUMPDEST POP POP DUP12 SWAP1 DUP6 DUP4 GT PUSH1 0x1 EQ PUSH2 0x60E JUMPI PUSH2 0x451 SWAP3 SWAP2 PUSH0 SWAP2 DUP4 PUSH2 0x519 JUMPI JUMPDEST POP POP DUP2 PUSH1 0x1 SHL SWAP2 PUSH0 NOT SWAP1 PUSH1 0x3 SHL SHR NOT AND OR SWAP1 JUMP JUMPDEST SWAP1 SSTORE JUMPDEST DUP4 MLOAD SWAP3 DUP4 GT PUSH2 0x5FB JUMPI POP PUSH32 0x80BB2B638CC20BC4D0A60D66940F3AB4A00C1D7B313497CA82FB0B4AB0079301 SWAP3 PUSH2 0x48A DUP5 SLOAD PUSH2 0x17CB JUMP JUMPDEST DUP3 DUP2 GT PUSH2 0x5A7 JUMPI JUMPDEST POP DUP9 SWAP2 DUP4 GT PUSH1 0x1 EQ PUSH2 0x524 JUMPI SWAP2 DUP1 PUSH2 0x4C4 SWAP3 PUSH2 0x4D7 SWAP7 SWAP6 SWAP5 PUSH0 SWAP3 PUSH2 0x519 JUMPI POP POP DUP2 PUSH1 0x1 SHL SWAP2 PUSH0 NOT SWAP1 PUSH1 0x3 SHL SHR NOT AND OR SWAP1 JUMP JUMPDEST SWAP1 SSTORE JUMPDEST PUSH2 0x4CF PUSH2 0x1EAF JUMP JUMPDEST PUSH2 0x256 PUSH2 0x1EAF JUMP JUMPDEST DUP3 PUSH0 SSTORE PUSH2 0x4E0 JUMPI STOP JUMPDEST PUSH32 0xC7F505B2F371AE2175EE4913F4499E1F2633A7B5936321EED1CDAEB6115181D2 SWAP4 PUSH9 0xFF0000000000000000 NOT DUP2 SLOAD AND SWAP1 SSTORE MLOAD SWAP1 DUP2 MSTORE LOG1 STOP JUMPDEST ADD MLOAD SWAP1 POP PUSH0 DUP1 PUSH2 0x43D JUMP JUMPDEST SWAP4 SWAP3 SWAP2 DUP8 SWAP2 PUSH1 0x1F NOT DUP3 AND SWAP1 DUP5 PUSH0 MSTORE PUSH32 0xF4BAD0A69248F59680A4F2B3000328CEC71A413447C96781CFE5996DAA8C456E SWAP2 PUSH0 JUMPDEST DUP13 DUP3 DUP3 LT PUSH2 0x591 JUMPI POP POP SWAP7 DUP4 PUSH2 0x4D7 SWAP9 LT PUSH2 0x579 JUMPI JUMPDEST POP POP POP DUP2 SHL ADD SWAP1 SSTORE PUSH2 0x4C7 JUMP JUMPDEST ADD MLOAD PUSH0 NOT PUSH1 0xF8 DUP5 PUSH1 0x3 SHL AND SHR NOT AND SWAP1 SSTORE PUSH0 DUP1 DUP1 PUSH2 0x56C JUMP JUMPDEST DUP4 DUP11 ADD MLOAD DUP6 SSTORE DUP13 SWAP7 SWAP1 SWAP5 ADD SWAP4 SWAP3 DUP4 ADD SWAP3 ADD PUSH2 0x556 JUMP JUMPDEST PUSH2 0x5EC SWAP1 DUP6 PUSH0 MSTORE PUSH32 0xF4BAD0A69248F59680A4F2B3000328CEC71A413447C96781CFE5996DAA8C456E DUP5 DUP1 DUP8 ADD PUSH1 0x5 SHR DUP3 ADD SWAP3 DUP14 DUP9 LT PUSH2 0x5F2 JUMPI JUMPDEST ADD PUSH1 0x5 SHR ADD SWAP1 PUSH2 0x1825 JUMP JUMPDEST PUSH0 PUSH2 0x492 JUMP JUMPDEST SWAP3 POP DUP2 SWAP3 PUSH2 0x5E1 JUMP JUMPDEST PUSH1 0x41 SWAP1 PUSH4 0x4E487B71 PUSH1 0xE0 SHL PUSH0 MSTORE MSTORE PUSH1 0x24 PUSH0 REVERT JUMPDEST DUP12 SWAP3 SWAP2 DUP14 SWAP2 PUSH1 0x1F NOT DUP5 AND DUP7 PUSH0 MSTORE PUSH32 0x37C58C799B6609234B945E882912EE9AD34948A1DFAA20A97485E1A7752BBF81 SWAP4 PUSH0 SWAP1 JUMPDEST DUP3 DUP3 LT PUSH2 0x675 JUMPI POP POP DUP5 GT PUSH2 0x65D JUMPI JUMPDEST POP POP POP DUP2 SHL ADD SWAP1 SSTORE PUSH2 0x454 JUMP JUMPDEST ADD MLOAD PUSH0 NOT PUSH1 0xF8 DUP5 PUSH1 0x3 SHL AND SHR NOT AND SWAP1 SSTORE PUSH0 DUP1 DUP1 PUSH2 0x650 JUMP JUMPDEST SWAP2 SWAP3 SWAP4 SWAP6 SWAP7 DUP3 SWAP2 SWAP6 DUP8 DUP7 ADD MLOAD DUP2 SSTORE ADD SWAP6 ADD SWAP4 ADD SWAP1 DUP16 SWAP2 DUP16 SWAP7 SWAP6 SWAP5 SWAP4 SWAP3 PUSH2 0x640 JUMP JUMPDEST PUSH2 0x6DA SWAP2 DUP6 PUSH0 MSTORE DUP8 PUSH32 0x37C58C799B6609234B945E882912EE9AD34948A1DFAA20A97485E1A7752BBF81 SWAP2 DUP2 DUP8 ADD PUSH1 0x5 SHR DUP4 ADD SWAP4 DUP8 LT PUSH2 0x5F2 JUMPI ADD PUSH1 0x5 SHR ADD SWAP1 PUSH2 0x1825 JUMP JUMPDEST PUSH0 DUP13 PUSH2 0x422 JUMP JUMPDEST PUSH1 0x41 DUP3 PUSH4 0x4E487B71 PUSH1 0xE0 SHL PUSH0 MSTORE MSTORE PUSH1 0x24 PUSH0 REVERT JUMPDEST PUSH9 0xFFFFFFFFFFFFFFFFFF NOT AND PUSH9 0x10000000000000001 OR DUP9 SSTORE PUSH0 PUSH2 0x389 JUMP JUMPDEST DUP6 MLOAD PUSH4 0xF92EE8A9 PUSH1 0xE0 SHL DUP2 MSTORE DUP4 SWAP1 REVERT JUMPDEST SWAP1 POP ISZERO PUSH0 PUSH2 0x36E JUMP JUMPDEST ADDRESS EXTCODESIZE ISZERO SWAP2 POP PUSH2 0x366 JUMP JUMPDEST POP DUP5 PUSH2 0x35A JUMP JUMPDEST POP SWAP1 CALLVALUE PUSH2 0x22E JUMPI PUSH1 0x20 CALLDATASIZE PUSH1 0x3 NOT ADD SLT PUSH2 0x22E JUMPI PUSH1 0x20 SWAP2 CALLDATALOAD PUSH0 MSTORE PUSH1 0x3 DUP3 MSTORE PUSH1 0xFF DUP2 PUSH0 KECCAK256 SLOAD AND SWAP1 MLOAD SWAP1 DUP2 MSTORE RETURN JUMPDEST POP CALLVALUE PUSH2 0x22E JUMPI PUSH1 0x80 CALLDATASIZE PUSH1 0x3 NOT ADD SLT PUSH2 0x22E JUMPI PUSH2 0x782 PUSH2 0x15FC JUMP JUMPDEST PUSH2 0x78A PUSH2 0x1612 JUMP JUMPDEST PUSH1 0x44 CALLDATALOAD SWAP1 PUSH1 0x64 CALLDATALOAD PUSH8 0xFFFFFFFFFFFFFFFF DUP2 GT PUSH2 0x22E JUMPI PUSH2 0x25B SWAP5 PUSH2 0x7B0 SWAP2 CALLDATASIZE SWAP2 ADD PUSH2 0x1715 JUMP JUMPDEST SWAP3 PUSH2 0x7BC DUP4 DUP4 DUP4 PUSH2 0x1880 JUMP JUMPDEST CALLER PUSH2 0x1D66 JUMP JUMPDEST DUP3 CALLVALUE PUSH2 0x22E JUMPI PUSH0 CALLDATASIZE PUSH1 0x3 NOT ADD SLT PUSH2 0x22E JUMPI DUP1 MLOAD PUSH2 0x2F6 SWAP2 PUSH2 0x7E2 DUP3 PUSH2 0x16BB JUMP JUMPDEST PUSH1 0x5 DUP3 MSTORE PUSH5 0x352E302E3 PUSH1 0xDC SHL PUSH1 0x20 DUP4 ADD MSTORE MLOAD SWAP2 DUP3 SWAP2 PUSH1 0x20 DUP4 MSTORE PUSH1 0x20 DUP4 ADD SWAP1 PUSH2 0x15BE JUMP JUMPDEST POP SWAP1 CALLVALUE PUSH2 0x22E JUMPI PUSH1 0x60 CALLDATASIZE PUSH1 0x3 NOT ADD SLT PUSH2 0x22E JUMPI DUP2 CALLDATALOAD SWAP1 PUSH8 0xFFFFFFFFFFFFFFFF SWAP1 PUSH1 0x24 CALLDATALOAD DUP3 DUP2 GT PUSH2 0x22E JUMPI PUSH2 0x83D SWAP1 CALLDATASIZE SWAP1 DUP7 ADD PUSH2 0x1628 JUMP JUMPDEST DUP5 PUSH0 SWAP5 SWAP3 SWAP5 MSTORE PUSH1 0x20 SWAP6 PUSH0 DUP1 MLOAD PUSH1 0x20 PUSH2 0x1FA2 DUP4 CODECOPY DUP2 MLOAD SWAP2 MSTORE DUP8 MSTORE PUSH1 0x1 DUP1 PUSH1 0xA0 SHL SUB DUP5 PUSH0 KECCAK256 SLOAD AND ISZERO PUSH2 0x9BC JUMPI PUSH0 SLOAD SWAP5 PUSH2 0x2710 DUP7 GT PUSH2 0x9AD JUMPI PUSH2 0x87C DUP7 PUSH2 0x1803 JUMP JUMPDEST PUSH0 SSTORE PUSH2 0x888 DUP7 CALLER PUSH2 0x1AF4 JUMP JUMPDEST DUP6 PUSH0 MSTORE PUSH1 0x1 SWAP2 PUSH1 0x1 DUP10 MSTORE DUP6 PUSH0 KECCAK256 SWAP5 DUP5 GT PUSH2 0x5FB JUMPI POP PUSH2 0x8B1 DUP4 PUSH2 0x8AB DUP7 SLOAD PUSH2 0x17CB JUMP JUMPDEST DUP7 PUSH2 0x183B JUMP JUMPDEST PUSH0 SWAP2 PUSH1 0x1F DUP5 GT PUSH1 0x1 EQ PUSH2 0x946 JUMPI POP PUSH2 0x8DF SWAP3 SWAP2 PUSH0 SWAP2 DUP4 PUSH2 0x93B JUMPI POP POP DUP2 PUSH1 0x1 SHL SWAP2 PUSH0 NOT SWAP1 PUSH1 0x3 SHL SHR NOT AND OR SWAP1 JUMP JUMPDEST SWAP1 SSTORE JUMPDEST DUP2 PUSH0 MSTORE PUSH1 0x2 DUP5 MSTORE PUSH1 0x44 CALLDATALOAD DUP2 PUSH0 KECCAK256 SSTORE DUP3 PUSH0 MSTORE PUSH1 0x3 DUP5 MSTORE PUSH1 0xFF DUP2 PUSH0 KECCAK256 SLOAD AND DUP3 PUSH0 MSTORE DUP2 PUSH0 KECCAK256 SWAP1 PUSH1 0xFF NOT DUP3 SLOAD AND OR SWAP1 SSTORE MLOAD SWAP2 DUP2 CALLER SWAP2 PUSH32 0xAFCB997B9DBF5EA2FDB1C69190293B8B3AD9FC98B62F467832A4A7BF050FC79D PUSH0 DUP1 LOG4 DUP2 MSTORE RETURN JUMPDEST ADD CALLDATALOAD SWAP1 POP PUSH0 DUP1 PUSH2 0x43D JUMP JUMPDEST SWAP2 PUSH1 0x1F NOT DUP5 AND DUP6 PUSH0 MSTORE DUP10 PUSH0 KECCAK256 SWAP4 PUSH0 SWAP1 JUMPDEST DUP12 DUP4 DUP4 LT PUSH2 0x995 JUMPI POP POP POP SWAP1 DUP5 PUSH1 0x1 SWAP6 SWAP5 SWAP4 SWAP3 LT PUSH2 0x97C JUMPI JUMPDEST POP POP POP DUP2 SHL ADD SWAP1 SSTORE PUSH2 0x8E2 JUMP JUMPDEST ADD CALLDATALOAD PUSH0 NOT PUSH1 0x3 DUP5 SWAP1 SHL PUSH1 0xF8 AND SHR NOT AND SWAP1 SSTORE PUSH0 DUP1 DUP1 PUSH2 0x96F JUMP JUMPDEST DUP6 DUP6 ADD CALLDATALOAD DUP8 SSTORE SWAP6 DUP2 ADD SWAP6 SWAP4 DUP5 ADD SWAP4 SWAP2 SWAP1 SWAP2 ADD SWAP1 PUSH2 0x956 JUMP JUMPDEST POP DUP4 MLOAD PUSH4 0xD05CB609 PUSH1 0xE0 SHL DUP2 MSTORE REVERT JUMPDEST DUP4 MLOAD PUSH4 0xC927E5BF PUSH1 0xE0 SHL DUP2 MSTORE SWAP1 DUP2 ADD DUP7 SWAP1 MSTORE PUSH1 0x24 SWAP1 REVERT JUMPDEST POP SWAP1 CALLVALUE PUSH2 0x22E JUMPI PUSH0 CALLDATASIZE PUSH1 0x3 NOT ADD SLT PUSH2 0x22E JUMPI PUSH0 SLOAD PUSH0 NOT DUP2 ADD SWAP2 SWAP1 DUP3 GT PUSH2 0x9FD JUMPI PUSH1 0x20 SWAP3 POP MLOAD SWAP1 DUP2 MSTORE RETURN JUMPDEST PUSH1 0x11 DUP4 PUSH4 0x4E487B71 PUSH1 0xE0 SHL PUSH0 MSTORE MSTORE PUSH1 0x24 PUSH0 REVERT JUMPDEST POP SWAP1 CALLVALUE PUSH2 0x22E JUMPI DUP1 PUSH1 0x3 NOT CALLDATASIZE ADD SLT PUSH2 0x22E JUMPI PUSH2 0xA2A PUSH2 0x15FC JUMP JUMPDEST SWAP1 PUSH1 0x24 CALLDATALOAD DUP1 ISZERO ISZERO SWAP3 DUP4 DUP3 SUB PUSH2 0x22E JUMPI CALLER ISZERO PUSH2 0xABA JUMPI PUSH1 0x1 PUSH1 0x1 PUSH1 0xA0 SHL SUB AND SWAP4 DUP5 ISZERO PUSH2 0xAA3 JUMPI POP PUSH2 0xA77 SWAP1 PUSH2 0xA5D CALLER PUSH2 0x1793 JUMP JUMPDEST DUP6 PUSH0 MSTORE PUSH1 0x20 MSTORE DUP3 PUSH0 KECCAK256 SWAP1 PUSH1 0xFF DUP1 NOT DUP4 SLOAD AND SWAP2 ISZERO ISZERO AND OR SWAP1 SSTORE JUMP JUMPDEST MLOAD SWAP1 DUP2 MSTORE PUSH32 0x17307EAB39AB6107E8899845AD3D59BD9653F200F220920489CA2B5937696C31 PUSH1 0x20 CALLER SWAP3 LOG3 STOP JUMPDEST DUP3 MLOAD PUSH4 0xB611743 PUSH1 0xE3 SHL DUP2 MSTORE SWAP1 DUP2 ADD DUP6 SWAP1 MSTORE PUSH1 0x24 SWAP1 REVERT JUMPDEST DUP3 MLOAD PUSH4 0xA9FBF51F PUSH1 0xE0 SHL DUP2 MSTORE PUSH0 DUP2 DUP8 ADD MSTORE PUSH1 0x24 SWAP1 REVERT JUMPDEST POP SWAP1 CALLVALUE PUSH2 0x22E JUMPI PUSH1 0x20 CALLDATASIZE PUSH1 0x3 NOT ADD SLT PUSH2 0x22E JUMPI PUSH1 0x20 SWAP2 CALLDATALOAD PUSH0 MSTORE PUSH1 0x2 DUP3 MSTORE DUP1 PUSH0 KECCAK256 SLOAD SWAP1 MLOAD SWAP1 DUP2 MSTORE RETURN JUMPDEST DUP3 CALLVALUE PUSH2 0x22E JUMPI PUSH0 CALLDATASIZE PUSH1 0x3 NOT ADD SLT PUSH2 0x22E JUMPI DUP1 MLOAD SWAP1 PUSH0 SWAP1 DUP3 PUSH32 0x80BB2B638CC20BC4D0A60D66940F3AB4A00C1D7B313497CA82FB0B4AB0079301 SWAP3 DUP4 SLOAD PUSH2 0xB3C DUP2 PUSH2 0x17CB JUMP JUMPDEST SWAP1 DUP2 DUP5 MSTORE PUSH1 0x20 SWAP6 PUSH1 0x1 SWAP2 DUP8 PUSH1 0x1 DUP3 AND SWAP2 DUP3 PUSH0 EQ PUSH2 0xBDB JUMPI POP POP PUSH1 0x1 EQ PUSH2 0xB7F JUMPI JUMPDEST POP POP POP PUSH2 0x2F6 SWAP3 SWAP2 PUSH2 0xB70 SWAP2 SUB DUP6 PUSH2 0x16D7 JUMP JUMPDEST MLOAD SWAP3 DUP3 DUP5 SWAP4 DUP5 MSTORE DUP4 ADD SWAP1 PUSH2 0x15BE JUMP JUMPDEST PUSH0 SWAP1 DUP2 MSTORE DUP7 SWAP4 POP SWAP2 SWAP1 PUSH32 0xF4BAD0A69248F59680A4F2B3000328CEC71A413447C96781CFE5996DAA8C456E JUMPDEST DUP3 DUP5 LT PUSH2 0xBC3 JUMPI POP POP POP DUP3 ADD ADD DUP2 PUSH2 0xB70 PUSH2 0x2F6 PUSH2 0xB5D JUMP JUMPDEST DUP1 SLOAD DUP5 DUP11 ADD DUP7 ADD MSTORE DUP9 SWAP6 POP DUP8 SWAP5 SWAP1 SWAP4 ADD SWAP3 DUP2 ADD PUSH2 0xBAA JUMP JUMPDEST PUSH1 0xFF NOT AND DUP8 DUP3 ADD MSTORE SWAP4 ISZERO ISZERO PUSH1 0x5 SHL DUP7 ADD SWAP1 SWAP4 ADD SWAP4 POP DUP5 SWAP3 POP PUSH2 0xB70 SWAP2 POP PUSH2 0x2F6 SWAP1 POP PUSH2 0xB5D JUMP JUMPDEST POP CALLVALUE PUSH2 0x22E JUMPI PUSH1 0x20 SWAP1 DUP2 PUSH1 0x3 NOT CALLDATASIZE ADD SLT PUSH2 0x22E JUMPI CALLDATALOAD PUSH0 MSTORE PUSH1 0x1 SWAP2 PUSH1 0x1 DUP3 MSTORE DUP1 PUSH0 KECCAK256 DUP2 MLOAD SWAP4 DUP5 SWAP2 PUSH0 SWAP2 DUP2 SLOAD SWAP2 PUSH2 0xC36 DUP4 PUSH2 0x17CB JUMP JUMPDEST SWAP3 DUP4 DUP7 MSTORE DUP8 PUSH1 0x1 DUP3 AND SWAP2 DUP3 PUSH0 EQ PUSH2 0xBDB JUMPI POP POP PUSH1 0x1 EQ PUSH2 0xC63 JUMPI POP POP POP PUSH2 0x2F6 SWAP3 SWAP2 PUSH2 0xB70 SWAP2 SUB DUP6 PUSH2 0x16D7 JUMP JUMPDEST DUP7 SWAP4 POP PUSH0 SWAP3 SWAP2 SWAP3 MSTORE DUP3 PUSH0 KECCAK256 SWAP2 PUSH0 SWAP3 JUMPDEST DUP3 DUP5 LT PUSH2 0xC8B JUMPI POP POP POP DUP3 ADD ADD DUP2 PUSH2 0xB70 PUSH2 0x2F6 PUSH2 0xB5D JUMP JUMPDEST DUP1 SLOAD DUP5 DUP11 ADD DUP7 ADD MSTORE DUP9 SWAP6 POP DUP8 SWAP5 SWAP1 SWAP4 ADD SWAP3 DUP2 ADD PUSH2 0xC72 JUMP JUMPDEST DUP3 CALLVALUE PUSH2 0x22E JUMPI PUSH0 CALLDATASIZE PUSH1 0x3 NOT ADD SLT PUSH2 0x22E JUMPI PUSH0 DUP1 MLOAD PUSH1 0x20 PUSH2 0x1F82 DUP4 CODECOPY DUP2 MLOAD SWAP2 MSTORE SLOAD SWAP1 MLOAD PUSH1 0x1 PUSH1 0x1 PUSH1 0xA0 SHL SUB SWAP1 SWAP2 AND DUP2 MSTORE PUSH1 0x20 SWAP1 RETURN JUMPDEST POP SWAP1 CALLVALUE PUSH2 0x22E JUMPI DUP1 PUSH1 0x3 NOT CALLDATASIZE ADD SLT PUSH2 0x22E JUMPI DUP2 CALLDATALOAD SWAP1 PUSH1 0x24 CALLDATALOAD DUP3 PUSH0 MSTORE PUSH0 DUP1 MLOAD PUSH1 0x20 PUSH2 0x1FA2 DUP4 CODECOPY DUP2 MLOAD SWAP2 MSTORE PUSH1 0x20 MSTORE PUSH1 0x1 DUP1 PUSH1 0xA0 SHL SUB DUP1 DUP4 PUSH0 KECCAK256 SLOAD AND ISZERO PUSH2 0xDAC JUMPI PUSH2 0xD1E DUP5 PUSH2 0x1AAE JUMP JUMPDEST AND CALLER EQ ISZERO DUP1 PUSH2 0xD8E JUMPI JUMPDEST PUSH2 0xD6D JUMPI SWAP1 PUSH32 0x14205800338F40587907C69CA0568EA18DDA8726D9D9830123AF51E1E82AF9A7 SWAP2 DUP4 PUSH0 MSTORE PUSH1 0x2 PUSH1 0x20 MSTORE DUP2 PUSH0 KECCAK256 SWAP1 DUP1 DUP3 SLOAD SWAP3 SSTORE DUP3 MLOAD SWAP2 DUP3 MSTORE PUSH1 0x20 DUP3 ADD MSTORE LOG2 STOP JUMPDEST POP MLOAD PUSH4 0x356CC0BF PUSH1 0xE0 SHL DUP2 MSTORE SWAP2 DUP3 ADD SWAP1 DUP2 MSTORE CALLER PUSH1 0x20 DUP3 ADD MSTORE DUP2 SWAP1 PUSH1 0x40 ADD SUB SWAP1 REVERT JUMPDEST POP DUP3 PUSH0 MSTORE DUP4 PUSH1 0x20 MSTORE DUP2 PUSH0 KECCAK256 CALLER PUSH0 MSTORE PUSH1 0x20 MSTORE PUSH1 0xFF DUP3 PUSH0 KECCAK256 SLOAD AND ISZERO PUSH2 0xD28 JUMP JUMPDEST DUP3 MLOAD PUSH4 0xC927E5BF PUSH1 0xE0 SHL DUP2 MSTORE DUP1 DUP7 ADD DUP6 SWAP1 MSTORE PUSH1 0x24 SWAP1 REVERT JUMPDEST CALLVALUE PUSH2 0x22E JUMPI PUSH0 CALLDATASIZE PUSH1 0x3 NOT ADD SLT PUSH2 0x22E JUMPI PUSH2 0xDDB PUSH2 0x1D2E JUMP JUMPDEST PUSH0 DUP1 MLOAD PUSH1 0x20 PUSH2 0x1F82 DUP4 CODECOPY DUP2 MLOAD SWAP2 MSTORE DUP1 SLOAD PUSH1 0x1 PUSH1 0x1 PUSH1 0xA0 SHL SUB NOT DUP2 AND SWAP1 SWAP2 SSTORE PUSH0 SWAP1 PUSH1 0x1 PUSH1 0x1 PUSH1 0xA0 SHL SUB AND PUSH32 0x8BE0079C531659141344CD1FD0A4F28419497F9722A3DAAFE3B4186F6B6457E0 DUP3 DUP1 LOG3 STOP JUMPDEST POP CALLVALUE PUSH2 0x22E JUMPI PUSH1 0x20 CALLDATASIZE PUSH1 0x3 NOT ADD SLT PUSH2 0x22E JUMPI PUSH2 0xE44 PUSH2 0x15FC JUMP JUMPDEST SWAP1 PUSH1 0x1 PUSH1 0x1 PUSH1 0xA0 SHL SUB DUP3 AND ISZERO PUSH2 0xE68 JUMPI PUSH1 0x20 DUP4 PUSH2 0xE60 DUP5 PUSH2 0x175B JUMP JUMPDEST SLOAD SWAP1 MLOAD SWAP1 DUP2 MSTORE RETURN JUMPDEST PUSH1 0x24 SWAP1 PUSH0 DUP5 MLOAD SWAP2 PUSH4 0x22718AD9 PUSH1 0xE2 SHL DUP4 MSTORE DUP3 ADD MSTORE REVERT JUMPDEST POP SWAP1 CALLVALUE PUSH2 0x22E JUMPI PUSH1 0x20 CALLDATASIZE PUSH1 0x3 NOT ADD SLT PUSH2 0x22E JUMPI PUSH2 0xE9D PUSH1 0x20 SWAP3 CALLDATALOAD PUSH2 0x1AAE JUMP JUMPDEST SWAP1 MLOAD PUSH1 0x1 PUSH1 0x1 PUSH1 0xA0 SHL SUB SWAP1 SWAP2 AND DUP2 MSTORE RETURN JUMPDEST POP SWAP1 CALLVALUE PUSH2 0x22E JUMPI DUP1 PUSH1 0x3 NOT CALLDATASIZE ADD SLT PUSH2 0x22E JUMPI PUSH1 0x20 SWAP2 PUSH2 0xECB PUSH2 0x1612 JUMP JUMPDEST SWAP1 DUP1 CALLDATALOAD PUSH0 MSTORE DUP4 MSTORE DUP2 PUSH0 KECCAK256 SWAP1 PUSH1 0x1 DUP1 PUSH1 0xA0 SHL SUB AND PUSH0 MSTORE DUP3 MSTORE PUSH1 0xFF DUP2 PUSH0 KECCAK256 SLOAD AND SWAP1 MLOAD SWAP1 ISZERO ISZERO DUP2 MSTORE RETURN JUMPDEST POP SWAP1 CALLVALUE PUSH2 0x22E JUMPI PUSH0 CALLDATASIZE PUSH1 0x3 NOT ADD SLT PUSH2 0x22E JUMPI PUSH32 0x0 PUSH1 0x1 PUSH1 0x1 PUSH1 0xA0 SHL SUB AND ADDRESS SUB PUSH2 0xF5D JUMPI PUSH1 0x20 SWAP1 MLOAD PUSH32 0x360894A13BA1A3210667C828492DB98DCA3E2076CC3735A920A3CA505D382BBC DUP2 MSTORE RETURN JUMPDEST MLOAD PUSH4 0x703E46DD PUSH1 0xE1 SHL DUP2 MSTORE REVERT JUMPDEST POP DUP2 PUSH1 0x3 NOT CALLDATASIZE ADD SLT PUSH2 0x22E JUMPI PUSH2 0xF7E PUSH2 0x15FC JUMP JUMPDEST SWAP2 PUSH1 0x24 CALLDATALOAD PUSH8 0xFFFFFFFFFFFFFFFF DUP2 GT PUSH2 0x22E JUMPI PUSH2 0xF9E SWAP1 CALLDATASIZE SWAP1 DUP5 ADD PUSH2 0x1715 JUMP JUMPDEST SWAP1 PUSH1 0x1 PUSH1 0x1 PUSH1 0xA0 SHL SUB PUSH32 0x0 DUP2 AND ADDRESS DUP2 EQ SWAP1 DUP2 ISZERO PUSH2 0x1122 JUMPI JUMPDEST POP PUSH2 0x1112 JUMPI PUSH2 0xFE2 PUSH2 0x1D2E JUMP JUMPDEST DUP5 AND SWAP2 DUP2 MLOAD SWAP5 PUSH4 0x52D1902D PUSH1 0xE0 SHL DUP7 MSTORE PUSH1 0x20 DUP7 DUP7 DUP2 DUP8 GAS STATICCALL PUSH0 SWAP7 DUP2 PUSH2 0x10DE JUMPI JUMPDEST POP PUSH2 0x101E JUMPI POP POP MLOAD PUSH4 0x4C9C8CE3 PUSH1 0xE0 SHL DUP2 MSTORE SWAP2 DUP3 ADD MSTORE PUSH1 0x24 SWAP2 POP REVERT JUMPDEST DUP4 DUP6 SWAP4 DUP8 PUSH32 0x360894A13BA1A3210667C828492DB98DCA3E2076CC3735A920A3CA505D382BBC SWAP1 DUP2 DUP2 SUB PUSH2 0x10C8 JUMPI POP DUP4 EXTCODESIZE ISZERO PUSH2 0x10B1 JUMPI DUP1 SLOAD PUSH1 0x1 PUSH1 0x1 PUSH1 0xA0 SHL SUB NOT AND DUP4 OR SWAP1 SSTORE MLOAD SWAP1 PUSH32 0xBC7CD75A20EE27FD9ADEBAB32041F755214DBC6BFFA90CC0225B39DA2E5C2D3B PUSH0 DUP1 LOG2 DUP3 MLOAD ISZERO PUSH2 0x109B JUMPI POP PUSH2 0x25B SWAP3 POP PUSH2 0x1EF0 JUMP JUMPDEST SWAP2 POP POP CALLVALUE PUSH2 0x10A5 JUMPI STOP JUMPDEST PUSH4 0xB398979F PUSH1 0xE0 SHL DUP2 MSTORE REVERT JUMPDEST DUP2 MLOAD PUSH4 0x4C9C8CE3 PUSH1 0xE0 SHL DUP2 MSTORE DUP1 DUP8 ADD DUP5 SWAP1 MSTORE PUSH1 0x24 SWAP1 REVERT JUMPDEST DUP7 PUSH1 0x24 SWAP2 DUP5 MLOAD SWAP2 PUSH4 0x2A875269 PUSH1 0xE2 SHL DUP4 MSTORE DUP3 ADD MSTORE REVERT JUMPDEST SWAP1 SWAP7 POP PUSH1 0x20 DUP2 RETURNDATASIZE PUSH1 0x20 GT PUSH2 0x110A JUMPI JUMPDEST DUP2 PUSH2 0x10FA PUSH1 0x20 SWAP4 DUP4 PUSH2 0x16D7 JUMP JUMPDEST DUP2 ADD SUB SLT PUSH2 0x22E JUMPI MLOAD SWAP6 PUSH0 PUSH2 0x1002 JUMP JUMPDEST RETURNDATASIZE SWAP2 POP PUSH2 0x10ED JUMP JUMPDEST DUP2 MLOAD PUSH4 0x703E46DD PUSH1 0xE1 SHL DUP2 MSTORE DUP5 SWAP1 REVERT JUMPDEST SWAP1 POP DUP2 PUSH32 0x360894A13BA1A3210667C828492DB98DCA3E2076CC3735A920A3CA505D382BBC SLOAD AND EQ ISZERO PUSH0 PUSH2 0xFD5 JUMP JUMPDEST DUP3 CALLVALUE PUSH2 0x22E JUMPI PUSH2 0x25B SWAP1 PUSH2 0x1163 CALLDATASIZE PUSH2 0x1656 JUMP JUMPDEST SWAP2 SWAP3 MLOAD SWAP3 PUSH2 0x1170 DUP5 PUSH2 0x168B JUMP JUMPDEST PUSH0 DUP5 MSTORE PUSH2 0x7BC DUP4 DUP4 DUP4 PUSH2 0x1880 JUMP JUMPDEST DUP3 CALLVALUE PUSH2 0x22E JUMPI PUSH0 CALLDATASIZE PUSH1 0x3 NOT ADD SLT PUSH2 0x22E JUMPI PUSH1 0x20 SWAP1 MLOAD PUSH2 0x2710 DUP2 MSTORE RETURN JUMPDEST CALLVALUE PUSH2 0x22E JUMPI PUSH2 0x25B PUSH2 0x11AB CALLDATASIZE PUSH2 0x1656 JUMP JUMPDEST SWAP2 PUSH2 0x1880 JUMP JUMPDEST POP SWAP1 CALLVALUE PUSH2 0x22E JUMPI PUSH1 0x60 CALLDATASIZE PUSH1 0x3 NOT ADD SLT PUSH2 0x22E JUMPI PUSH8 0xFFFFFFFFFFFFFFFF SWAP1 DUP3 CALLDATALOAD DUP3 DUP2 GT PUSH2 0x22E JUMPI PUSH2 0x11E4 SWAP1 CALLDATASIZE SWAP1 DUP6 ADD PUSH2 0x1628 JUMP JUMPDEST SWAP1 SWAP3 PUSH1 0x24 CALLDATALOAD SWAP1 PUSH1 0x44 CALLDATALOAD SWAP3 PUSH1 0xFF DUP5 AND DUP1 SWAP5 SUB PUSH2 0x22E JUMPI PUSH0 SLOAD SWAP6 PUSH2 0x2710 DUP8 GT PUSH2 0x1349 JUMPI PUSH1 0x2 DUP6 GT PUSH2 0x1332 JUMPI PUSH2 0x1216 DUP8 PUSH2 0x1803 JUMP JUMPDEST PUSH0 SSTORE PUSH2 0x1222 DUP8 CALLER PUSH2 0x1AF4 JUMP JUMPDEST DUP7 PUSH0 MSTORE PUSH1 0x1 SWAP1 PUSH1 0x20 SWAP9 PUSH1 0x1 DUP11 MSTORE DUP8 PUSH0 KECCAK256 SWAP5 DUP5 GT PUSH2 0x5FB JUMPI POP PUSH2 0x1248 DUP4 PUSH2 0x8AB DUP7 SLOAD PUSH2 0x17CB JUMP JUMPDEST PUSH0 SWAP2 PUSH1 0x1F DUP5 GT PUSH1 0x1 EQ PUSH2 0x12CB JUMPI POP PUSH2 0x1276 SWAP3 SWAP2 PUSH0 SWAP2 DUP4 PUSH2 0x93B JUMPI POP POP DUP2 PUSH1 0x1 SHL SWAP2 PUSH0 NOT SWAP1 PUSH1 0x3 SHL SHR NOT AND OR SWAP1 JUMP JUMPDEST SWAP1 SSTORE JUMPDEST DUP4 PUSH0 MSTORE PUSH1 0x2 DUP6 MSTORE DUP1 DUP4 PUSH0 KECCAK256 SSTORE PUSH1 0x3 DUP6 MSTORE DUP3 PUSH0 KECCAK256 DUP3 PUSH1 0xFF NOT DUP3 SLOAD AND OR SWAP1 SSTORE DUP3 MLOAD SWAP2 DUP3 MSTORE DUP5 DUP3 ADD MSTORE DUP3 PUSH32 0xEEE40C10855D5C03BB73D736DA055981BB170A0D2E5F08F87A8ABFD0A52FEA76 DUP4 CALLER SWAP4 LOG3 MLOAD SWAP1 DUP2 MSTORE RETURN JUMPDEST SWAP2 PUSH1 0x1F NOT DUP5 AND DUP6 PUSH0 MSTORE DUP11 PUSH0 KECCAK256 SWAP4 PUSH0 SWAP1 JUMPDEST DUP13 DUP4 DUP4 LT PUSH2 0x131A JUMPI POP POP POP SWAP1 DUP5 PUSH1 0x1 SWAP6 SWAP5 SWAP4 SWAP3 LT PUSH2 0x1301 JUMPI JUMPDEST POP POP POP DUP2 SHL ADD SWAP1 SSTORE PUSH2 0x1279 JUMP JUMPDEST ADD CALLDATALOAD PUSH0 NOT PUSH1 0x3 DUP5 SWAP1 SHL PUSH1 0xF8 AND SHR NOT AND SWAP1 SSTORE PUSH0 DUP1 DUP1 PUSH2 0x12F4 JUMP JUMPDEST DUP6 DUP6 ADD CALLDATALOAD DUP8 SSTORE SWAP6 DUP2 ADD SWAP6 SWAP4 DUP5 ADD SWAP4 SWAP2 SWAP1 SWAP2 ADD SWAP1 PUSH2 0x12DB JUMP JUMPDEST DUP6 MLOAD PUSH4 0x1328D54F PUSH1 0xE1 SHL DUP2 MSTORE DUP1 DUP10 ADD DUP7 SWAP1 MSTORE PUSH1 0x24 SWAP1 REVERT JUMPDEST DUP6 MLOAD PUSH4 0xD05CB609 PUSH1 0xE0 SHL DUP2 MSTORE DUP9 SWAP1 REVERT JUMPDEST POP SWAP1 CALLVALUE PUSH2 0x22E JUMPI DUP1 PUSH1 0x3 NOT CALLDATASIZE ADD SLT PUSH2 0x22E JUMPI PUSH2 0x1373 PUSH2 0x15FC JUMP JUMPDEST SWAP2 PUSH1 0x24 CALLDATALOAD SWAP1 PUSH2 0x1381 DUP3 PUSH2 0x1AAE JUMP JUMPDEST SWAP1 CALLER ISZERO ISZERO DUP1 PUSH2 0x1428 JUMPI JUMPDEST DUP1 PUSH2 0x140B JUMPI JUMPDEST PUSH2 0x13F4 JUMPI POP PUSH1 0x1 PUSH1 0x1 PUSH1 0xA0 SHL SUB SWAP4 DUP5 AND SWAP4 DUP3 SWAP2 DUP6 SWAP2 AND PUSH32 0x8C5BE1E5EBEC7D5BD14F71427D1E84F3DD0314C0F7B2291E5B200AC8C7C3B925 PUSH0 DUP1 LOG4 PUSH0 SWAP1 DUP2 MSTORE PUSH0 DUP1 MLOAD PUSH1 0x20 PUSH2 0x1FC2 DUP4 CODECOPY DUP2 MLOAD SWAP2 MSTORE PUSH1 0x20 MSTORE KECCAK256 DUP1 SLOAD PUSH1 0x1 PUSH1 0x1 PUSH1 0xA0 SHL SUB NOT AND SWAP1 SWAP2 OR SWAP1 SSTORE STOP JUMPDEST PUSH1 0x24 SWAP1 DUP5 MLOAD SWAP1 PUSH4 0xA9FBF51F PUSH1 0xE0 SHL DUP3 MSTORE CALLER SWAP1 DUP3 ADD MSTORE REVERT JUMPDEST POP PUSH2 0x1415 DUP3 PUSH2 0x1793 JUMP JUMPDEST CALLER PUSH0 MSTORE PUSH1 0x20 MSTORE PUSH1 0xFF DUP5 PUSH0 KECCAK256 SLOAD AND ISZERO PUSH2 0x1391 JUMP JUMPDEST POP PUSH1 0x1 PUSH1 0x1 PUSH1 0xA0 SHL SUB DUP3 AND CALLER EQ ISZERO PUSH2 0x138B JUMP JUMPDEST POP SWAP1 CALLVALUE PUSH2 0x22E JUMPI PUSH1 0x20 CALLDATASIZE PUSH1 0x3 NOT ADD SLT PUSH2 0x22E JUMPI PUSH1 0x20 SWAP2 CALLDATALOAD PUSH2 0x145B DUP2 PUSH2 0x1AAE JUMP JUMPDEST POP PUSH0 MSTORE PUSH0 DUP1 MLOAD PUSH1 0x20 PUSH2 0x1FC2 DUP4 CODECOPY DUP2 MLOAD SWAP2 MSTORE DUP3 MSTORE PUSH1 0x1 DUP1 PUSH1 0xA0 SHL SUB DUP2 PUSH0 KECCAK256 SLOAD AND SWAP1 MLOAD SWAP1 DUP2 MSTORE RETURN JUMPDEST DUP3 CALLVALUE PUSH2 0x22E JUMPI PUSH0 CALLDATASIZE PUSH1 0x3 NOT ADD SLT PUSH2 0x22E JUMPI DUP1 MLOAD SWAP1 PUSH0 SWAP1 DUP3 PUSH32 0x80BB2B638CC20BC4D0A60D66940F3AB4A00C1D7B313497CA82FB0B4AB0079300 SWAP3 DUP4 SLOAD PUSH2 0x14C5 DUP2 PUSH2 0x17CB JUMP JUMPDEST SWAP1 DUP2 DUP5 MSTORE PUSH1 0x20 SWAP6 PUSH1 0x1 SWAP2 DUP8 PUSH1 0x1 DUP3 AND SWAP2 DUP3 PUSH0 EQ PUSH2 0xBDB JUMPI POP POP PUSH1 0x1 EQ PUSH2 0x14F8 JUMPI POP POP POP PUSH2 0x2F6 SWAP3 SWAP2 PUSH2 0xB70 SWAP2 SUB DUP6 PUSH2 0x16D7 JUMP JUMPDEST PUSH0 SWAP1 DUP2 MSTORE DUP7 SWAP4 POP SWAP2 SWAP1 PUSH32 0x37C58C799B6609234B945E882912EE9AD34948A1DFAA20A97485E1A7752BBF81 JUMPDEST DUP3 DUP5 LT PUSH2 0x153C JUMPI POP POP POP DUP3 ADD ADD DUP2 PUSH2 0xB70 PUSH2 0x2F6 PUSH2 0xB5D JUMP JUMPDEST DUP1 SLOAD DUP5 DUP11 ADD DUP7 ADD MSTORE DUP9 SWAP6 POP DUP8 SWAP5 SWAP1 SWAP4 ADD SWAP3 DUP2 ADD PUSH2 0x1523 JUMP JUMPDEST DUP3 CALLVALUE PUSH2 0x22E JUMPI PUSH1 0x20 CALLDATASIZE PUSH1 0x3 NOT ADD SLT PUSH2 0x22E JUMPI CALLDATALOAD SWAP1 PUSH4 0xFFFFFFFF PUSH1 0xE0 SHL DUP3 AND DUP1 SWAP3 SUB PUSH2 0x22E JUMPI PUSH1 0x20 SWAP2 PUSH4 0x80AC58CD PUSH1 0xE0 SHL DUP2 EQ SWAP1 DUP2 ISZERO PUSH2 0x15AD JUMPI JUMPDEST DUP2 ISZERO PUSH2 0x159C JUMPI JUMPDEST POP ISZERO ISZERO DUP2 MSTORE RETURN JUMPDEST PUSH4 0x1FFC9A7 PUSH1 0xE0 SHL EQ SWAP1 POP DUP4 PUSH2 0x1595 JUMP JUMPDEST PUSH4 0x5B5E139F PUSH1 0xE0 SHL DUP2 EQ SWAP2 POP PUSH2 0x158E JUMP JUMPDEST SWAP2 SWAP1 DUP3 MLOAD SWAP3 DUP4 DUP3 MSTORE PUSH0 JUMPDEST DUP5 DUP2 LT PUSH2 0x15E8 JUMPI POP POP DUP3 PUSH0 PUSH1 0x20 DUP1 SWAP5 SWAP6 DUP5 ADD ADD MSTORE PUSH1 0x1F DUP1 NOT SWAP2 ADD AND ADD ADD SWAP1 JUMP JUMPDEST PUSH1 0x20 DUP2 DUP4 ADD DUP2 ADD MLOAD DUP5 DUP4 ADD DUP3 ADD MSTORE ADD PUSH2 0x15C8 JUMP JUMPDEST PUSH1 0x4 CALLDATALOAD SWAP1 PUSH1 0x1 PUSH1 0x1 PUSH1 0xA0 SHL SUB DUP3 AND DUP3 SUB PUSH2 0x22E JUMPI JUMP JUMPDEST PUSH1 0x24 CALLDATALOAD SWAP1 PUSH1 0x1 PUSH1 0x1 PUSH1 0xA0 SHL SUB DUP3 AND DUP3 SUB PUSH2 0x22E JUMPI JUMP JUMPDEST SWAP2 DUP2 PUSH1 0x1F DUP5 ADD SLT ISZERO PUSH2 0x22E JUMPI DUP3 CALLDATALOAD SWAP2 PUSH8 0xFFFFFFFFFFFFFFFF DUP4 GT PUSH2 0x22E JUMPI PUSH1 0x20 DUP4 DUP2 DUP7 ADD SWAP6 ADD ADD GT PUSH2 0x22E JUMPI JUMP JUMPDEST PUSH1 0x60 SWAP1 PUSH1 0x3 NOT ADD SLT PUSH2 0x22E JUMPI PUSH1 0x1 PUSH1 0x1 PUSH1 0xA0 SHL SUB SWAP1 PUSH1 0x4 CALLDATALOAD DUP3 DUP2 AND DUP2 SUB PUSH2 0x22E JUMPI SWAP2 PUSH1 0x24 CALLDATALOAD SWAP1 DUP2 AND DUP2 SUB PUSH2 0x22E JUMPI SWAP1 PUSH1 0x44 CALLDATALOAD SWAP1 JUMP JUMPDEST PUSH1 0x20 DUP2 ADD SWAP1 DUP2 LT PUSH8 0xFFFFFFFFFFFFFFFF DUP3 GT OR PUSH2 0x16A7 JUMPI PUSH1 0x40 MSTORE JUMP JUMPDEST PUSH4 0x4E487B71 PUSH1 0xE0 SHL PUSH0 MSTORE PUSH1 0x41 PUSH1 0x4 MSTORE PUSH1 0x24 PUSH0 REVERT JUMPDEST PUSH1 0x40 DUP2 ADD SWAP1 DUP2 LT PUSH8 0xFFFFFFFFFFFFFFFF DUP3 GT OR PUSH2 0x16A7 JUMPI PUSH1 0x40 MSTORE JUMP JUMPDEST SWAP1 PUSH1 0x1F DUP1 NOT SWAP2 ADD AND DUP2 ADD SWAP1 DUP2 LT PUSH8 0xFFFFFFFFFFFFFFFF DUP3 GT OR PUSH2 0x16A7 JUMPI PUSH1 0x40 MSTORE JUMP JUMPDEST PUSH8 0xFFFFFFFFFFFFFFFF DUP2 GT PUSH2 0x16A7 JUMPI PUSH1 0x1F ADD PUSH1 0x1F NOT AND PUSH1 0x20 ADD SWAP1 JUMP JUMPDEST DUP2 PUSH1 0x1F DUP3 ADD SLT ISZERO PUSH2 0x22E JUMPI DUP1 CALLDATALOAD SWAP1 PUSH2 0x172C DUP3 PUSH2 0x16F9 JUMP JUMPDEST SWAP3 PUSH2 0x173A PUSH1 0x40 MLOAD SWAP5 DUP6 PUSH2 0x16D7 JUMP JUMPDEST DUP3 DUP5 MSTORE PUSH1 0x20 DUP4 DUP4 ADD ADD GT PUSH2 0x22E JUMPI DUP2 PUSH0 SWAP3 PUSH1 0x20 DUP1 SWAP4 ADD DUP4 DUP7 ADD CALLDATACOPY DUP4 ADD ADD MSTORE SWAP1 JUMP JUMPDEST PUSH1 0x1 PUSH1 0x1 PUSH1 0xA0 SHL SUB AND PUSH0 SWAP1 DUP2 MSTORE PUSH32 0x80BB2B638CC20BC4D0A60D66940F3AB4A00C1D7B313497CA82FB0B4AB0079303 PUSH1 0x20 MSTORE PUSH1 0x40 SWAP1 KECCAK256 SWAP1 JUMP JUMPDEST PUSH1 0x1 PUSH1 0x1 PUSH1 0xA0 SHL SUB AND PUSH0 SWAP1 DUP2 MSTORE PUSH32 0x80BB2B638CC20BC4D0A60D66940F3AB4A00C1D7B313497CA82FB0B4AB0079305 PUSH1 0x20 MSTORE PUSH1 0x40 SWAP1 KECCAK256 SWAP1 JUMP JUMPDEST SWAP1 PUSH1 0x1 DUP3 DUP2 SHR SWAP3 AND DUP1 ISZERO PUSH2 0x17F9 JUMPI JUMPDEST PUSH1 0x20 DUP4 LT EQ PUSH2 0x17E5 JUMPI JUMP JUMPDEST PUSH4 0x4E487B71 PUSH1 0xE0 SHL PUSH0 MSTORE PUSH1 0x22 PUSH1 0x4 MSTORE PUSH1 0x24 PUSH0 REVERT JUMPDEST SWAP2 PUSH1 0x7F AND SWAP2 PUSH2 0x17DA JUMP JUMPDEST PUSH0 NOT DUP2 EQ PUSH2 0x1811 JUMPI PUSH1 0x1 ADD SWAP1 JUMP JUMPDEST PUSH4 0x4E487B71 PUSH1 0xE0 SHL PUSH0 MSTORE PUSH1 0x11 PUSH1 0x4 MSTORE PUSH1 0x24 PUSH0 REVERT JUMPDEST DUP2 DUP2 LT PUSH2 0x1830 JUMPI POP POP JUMP JUMPDEST PUSH0 DUP2 SSTORE PUSH1 0x1 ADD PUSH2 0x1825 JUMP JUMPDEST SWAP2 SWAP1 PUSH1 0x1F DUP2 GT PUSH2 0x184A JUMPI POP POP POP JUMP JUMPDEST PUSH2 0x1874 SWAP3 PUSH0 MSTORE PUSH1 0x20 PUSH0 KECCAK256 SWAP1 PUSH1 0x20 PUSH1 0x1F DUP5 ADD PUSH1 0x5 SHR DUP4 ADD SWAP4 LT PUSH2 0x1876 JUMPI JUMPDEST PUSH1 0x1F ADD PUSH1 0x5 SHR ADD SWAP1 PUSH2 0x1825 JUMP JUMPDEST JUMP JUMPDEST SWAP1 SWAP2 POP DUP2 SWAP1 PUSH2 0x1867 JUMP JUMPDEST PUSH1 0x1 PUSH1 0x1 PUSH1 0xA0 SHL SUB DUP3 DUP2 AND SWAP4 SWAP2 DUP5 ISZERO PUSH2 0x1A25 JUMPI DUP3 PUSH0 MSTORE DUP3 PUSH0 DUP1 MLOAD PUSH1 0x20 PUSH2 0x1FA2 DUP4 CODECOPY DUP2 MLOAD SWAP2 MSTORE SWAP6 DUP7 PUSH1 0x20 MSTORE PUSH1 0x40 SWAP7 DUP5 DUP9 PUSH0 KECCAK256 SLOAD AND SWAP7 CALLER ISZERO ISZERO DUP1 PUSH2 0x1984 JUMPI JUMPDEST POP PUSH2 0x18CC SWAP1 DUP9 PUSH2 0x1948 JUMPI PUSH2 0x175B JUMP JUMPDEST PUSH1 0x1 DUP2 SLOAD ADD SWAP1 SSTORE DUP3 PUSH0 MSTORE PUSH1 0x20 MSTORE DUP7 PUSH0 KECCAK256 DUP2 PUSH12 0xFFFFFFFFFFFFFFFFFFFFFFFF PUSH1 0xA0 SHL DUP3 SLOAD AND OR SWAP1 SSTORE DUP6 PUSH32 0xDDF252AD1BE2C89B69C2B068FC378DAA952BA7F163C4A11628F55A4DF523B3EF PUSH0 DUP1 LOG4 AND SWAP3 DUP4 DUP4 SUB PUSH2 0x1927 JUMPI POP POP POP POP JUMP JUMPDEST PUSH1 0x64 SWAP5 POP MLOAD SWAP3 PUSH4 0x64283D7B PUSH1 0xE0 SHL DUP5 MSTORE PUSH1 0x4 DUP5 ADD MSTORE PUSH1 0x24 DUP4 ADD MSTORE PUSH1 0x44 DUP3 ADD MSTORE REVERT JUMPDEST PUSH0 DUP6 DUP2 MSTORE PUSH0 DUP1 MLOAD PUSH1 0x20 PUSH2 0x1FC2 DUP4 CODECOPY DUP2 MLOAD SWAP2 MSTORE PUSH1 0x20 MSTORE PUSH1 0x40 SWAP1 KECCAK256 DUP1 SLOAD PUSH1 0x1 PUSH1 0x1 PUSH1 0xA0 SHL SUB NOT AND SWAP1 SSTORE PUSH2 0x1978 DUP10 PUSH2 0x175B JUMP JUMPDEST DUP1 SLOAD PUSH0 NOT ADD SWAP1 SSTORE PUSH2 0x175B JUMP JUMPDEST SWAP3 SWAP4 POP SWAP1 SWAP2 DUP1 PUSH2 0x19D7 JUMPI JUMPDEST ISZERO PUSH2 0x199E JUMPI SWAP1 DUP6 SWAP3 SWAP2 PUSH0 PUSH2 0x18BD JUMP JUMPDEST DUP8 DUP7 DUP9 PUSH2 0x19BB JUMPI PUSH1 0x24 SWAP2 MLOAD SWAP1 PUSH4 0x7E273289 PUSH1 0xE0 SHL DUP3 MSTORE PUSH1 0x4 DUP3 ADD MSTORE REVERT JUMPDEST PUSH1 0x44 SWAP2 MLOAD SWAP1 PUSH4 0x177E802F PUSH1 0xE0 SHL DUP3 MSTORE CALLER PUSH1 0x4 DUP4 ADD MSTORE PUSH1 0x24 DUP3 ADD MSTORE REVERT JUMPDEST POP CALLER DUP8 EQ DUP1 ISZERO PUSH2 0x1A09 JUMPI JUMPDEST DUP1 PUSH2 0x198F JUMPI POP DUP6 PUSH0 MSTORE PUSH0 DUP1 MLOAD PUSH1 0x20 PUSH2 0x1FC2 DUP4 CODECOPY DUP2 MLOAD SWAP2 MSTORE PUSH1 0x20 MSTORE CALLER DUP6 DUP10 PUSH0 KECCAK256 SLOAD AND EQ PUSH2 0x198F JUMP JUMPDEST POP PUSH2 0x1A13 DUP8 PUSH2 0x1793 JUMP JUMPDEST CALLER PUSH0 MSTORE PUSH1 0x20 MSTORE PUSH1 0xFF DUP9 PUSH0 KECCAK256 SLOAD AND PUSH2 0x19E2 JUMP JUMPDEST PUSH1 0x40 MLOAD PUSH4 0x32505749 PUSH1 0xE1 SHL DUP2 MSTORE PUSH0 PUSH1 0x4 DUP3 ADD MSTORE PUSH1 0x24 SWAP1 REVERT JUMPDEST PUSH1 0x1 PUSH1 0x1 PUSH1 0xA0 SHL SUB SWAP1 DUP2 AND SWAP1 DUP2 ISZERO PUSH2 0x1A96 JUMPI PUSH0 DUP1 MLOAD PUSH1 0x20 PUSH2 0x1F82 DUP4 CODECOPY DUP2 MLOAD SWAP2 MSTORE DUP1 SLOAD PUSH1 0x1 PUSH1 0x1 PUSH1 0xA0 SHL SUB NOT DUP2 AND DUP5 OR SWAP1 SWAP2 SSTORE AND PUSH32 0x8BE0079C531659141344CD1FD0A4F28419497F9722A3DAAFE3B4186F6B6457E0 PUSH0 DUP1 LOG3 JUMP JUMPDEST PUSH1 0x40 MLOAD PUSH4 0x1E4FBDF7 PUSH1 0xE0 SHL DUP2 MSTORE PUSH0 PUSH1 0x4 DUP3 ADD MSTORE PUSH1 0x24 SWAP1 REVERT JUMPDEST PUSH0 DUP2 DUP2 MSTORE PUSH0 DUP1 MLOAD PUSH1 0x20 PUSH2 0x1FA2 DUP4 CODECOPY DUP2 MLOAD SWAP2 MSTORE PUSH1 0x20 MSTORE PUSH1 0x40 SWAP1 KECCAK256 SLOAD PUSH1 0x1 PUSH1 0x1 PUSH1 0xA0 SHL SUB AND SWAP1 DUP2 ISZERO PUSH2 0x1ADC JUMPI POP SWAP1 JUMP JUMPDEST PUSH1 0x24 SWAP1 PUSH1 0x40 MLOAD SWAP1 PUSH4 0x7E273289 PUSH1 0xE0 SHL DUP3 MSTORE PUSH1 0x4 DUP3 ADD MSTORE REVERT JUMPDEST PUSH1 0x40 DUP1 MLOAD SWAP3 PUSH2 0x1B02 DUP5 PUSH2 0x168B JUMP JUMPDEST PUSH0 DUP5 MSTORE PUSH1 0x1 PUSH1 0x1 PUSH1 0xA0 SHL SUB SWAP4 DUP4 DUP6 AND SWAP4 DUP5 ISZERO PUSH2 0x1D17 JUMPI DUP3 PUSH0 MSTORE PUSH0 DUP1 MLOAD PUSH1 0x20 PUSH2 0x1FA2 DUP4 CODECOPY DUP2 MLOAD SWAP2 MSTORE DUP4 DUP7 PUSH1 0x20 SWAP9 DUP4 DUP11 MSTORE DUP8 PUSH0 KECCAK256 SLOAD AND DUP1 ISZERO ISZERO SWAP4 DUP5 PUSH2 0x1CDB JUMPI JUMPDEST PUSH2 0x1B49 DUP7 PUSH2 0x175B JUMP JUMPDEST PUSH1 0x1 DUP2 SLOAD ADD SWAP1 SSTORE DUP4 PUSH0 MSTORE DUP11 MSTORE DUP8 PUSH0 KECCAK256 DUP3 PUSH12 0xFFFFFFFFFFFFFFFFFFFFFFFF PUSH1 0xA0 SHL DUP3 SLOAD AND OR SWAP1 SSTORE PUSH32 0xDDF252AD1BE2C89B69C2B068FC378DAA952BA7F163C4A11628F55A4DF523B3EF PUSH0 DUP1 LOG4 PUSH2 0x1CC4 JUMPI EXTCODESIZE PUSH2 0x1BA4 JUMPI JUMPDEST POP POP POP POP POP JUMP JUMPDEST DUP5 PUSH2 0x1BE1 SWAP2 DUP5 SWAP6 SWAP7 SWAP8 SWAP5 MLOAD DUP1 SWAP4 DUP2 SWAP3 PUSH4 0xA85BD01 PUSH1 0xE1 SHL SWAP7 DUP8 DUP5 MSTORE CALLER PUSH1 0x4 DUP6 ADD MSTORE PUSH0 PUSH1 0x24 DUP6 ADD MSTORE PUSH1 0x44 DUP5 ADD MSTORE PUSH1 0x80 PUSH1 0x64 DUP5 ADD MSTORE PUSH1 0x84 DUP4 ADD SWAP1 PUSH2 0x15BE JUMP JUMPDEST SUB DUP2 PUSH0 DUP10 GAS CALL PUSH0 SWAP2 DUP2 PUSH2 0x1C84 JUMPI JUMPDEST POP PUSH2 0x1C4D JUMPI POP POP POP RETURNDATASIZE PUSH0 EQ PUSH2 0x1C45 JUMPI RETURNDATASIZE SWAP3 PUSH2 0x1C09 DUP5 PUSH2 0x16F9 JUMP JUMPDEST SWAP4 PUSH2 0x1C16 DUP4 MLOAD SWAP6 DUP7 PUSH2 0x16D7 JUMP JUMPDEST DUP5 MSTORE RETURNDATASIZE PUSH0 DUP3 DUP7 ADD RETURNDATACOPY JUMPDEST DUP4 MLOAD SWAP4 DUP5 PUSH2 0x1C3F JUMPI DUP3 MLOAD PUSH4 0x32505749 PUSH1 0xE1 SHL DUP2 MSTORE PUSH1 0x4 DUP2 ADD DUP6 SWAP1 MSTORE PUSH1 0x24 SWAP1 REVERT JUMPDEST DUP5 SWAP3 POP ADD REVERT JUMPDEST PUSH1 0x60 SWAP3 PUSH2 0x1C1F JUMP JUMPDEST SWAP2 SWAP5 POP PUSH1 0x1 PUSH1 0x1 PUSH1 0xE0 SHL SUB NOT SWAP1 SWAP2 AND SUB PUSH2 0x1C6D JUMPI POP POP PUSH0 DUP1 DUP1 DUP1 DUP1 PUSH2 0x1B9D JUMP JUMPDEST PUSH1 0x24 SWAP3 POP MLOAD SWAP1 PUSH4 0x32505749 PUSH1 0xE1 SHL DUP3 MSTORE PUSH1 0x4 DUP3 ADD MSTORE REVERT JUMPDEST SWAP1 SWAP2 POP DUP7 DUP2 DUP2 RETURNDATASIZE DUP4 GT PUSH2 0x1CBD JUMPI JUMPDEST PUSH2 0x1C9C DUP2 DUP4 PUSH2 0x16D7 JUMP JUMPDEST DUP2 ADD SUB SLT PUSH2 0x22E JUMPI MLOAD PUSH1 0x1 PUSH1 0x1 PUSH1 0xE0 SHL SUB NOT DUP2 AND DUP2 SUB PUSH2 0x22E JUMPI SWAP1 PUSH0 PUSH2 0x1BEF JUMP JUMPDEST POP RETURNDATASIZE PUSH2 0x1C92 JUMP JUMPDEST DUP4 MLOAD PUSH4 0x39E35637 PUSH1 0xE1 SHL DUP2 MSTORE PUSH0 PUSH1 0x4 DUP3 ADD MSTORE PUSH1 0x24 SWAP1 REVERT JUMPDEST PUSH0 DUP5 DUP2 MSTORE PUSH0 DUP1 MLOAD PUSH1 0x20 PUSH2 0x1FC2 DUP4 CODECOPY DUP2 MLOAD SWAP2 MSTORE PUSH1 0x20 MSTORE PUSH1 0x40 SWAP1 KECCAK256 DUP1 SLOAD PUSH1 0x1 PUSH1 0x1 PUSH1 0xA0 SHL SUB NOT AND SWAP1 SSTORE PUSH2 0x1D0B DUP3 PUSH2 0x175B JUMP JUMPDEST DUP1 SLOAD PUSH0 NOT ADD SWAP1 SSTORE PUSH2 0x1B40 JUMP JUMPDEST DUP4 MLOAD PUSH4 0x32505749 PUSH1 0xE1 SHL DUP2 MSTORE PUSH0 PUSH1 0x4 DUP3 ADD MSTORE PUSH1 0x24 SWAP1 REVERT JUMPDEST PUSH0 DUP1 MLOAD PUSH1 0x20 PUSH2 0x1F82 DUP4 CODECOPY DUP2 MLOAD SWAP2 MSTORE SLOAD PUSH1 0x1 PUSH1 0x1 PUSH1 0xA0 SHL SUB AND CALLER SUB PUSH2 0x1D4E JUMPI JUMP JUMPDEST PUSH1 0x40 MLOAD PUSH4 0x118CDAA7 PUSH1 0xE0 SHL DUP2 MSTORE CALLER PUSH1 0x4 DUP3 ADD MSTORE PUSH1 0x24 SWAP1 REVERT JUMPDEST SWAP3 SWAP4 SWAP1 SWAP2 SWAP4 DUP5 EXTCODESIZE PUSH2 0x1D78 JUMPI POP POP POP POP POP JUMP JUMPDEST PUSH1 0x40 MLOAD PUSH4 0xA85BD01 PUSH1 0xE1 SHL DUP1 DUP3 MSTORE PUSH1 0x1 PUSH1 0x1 PUSH1 0xA0 SHL SUB SWAP6 DUP7 AND PUSH1 0x4 DUP4 ADD MSTORE SWAP4 DUP6 AND PUSH1 0x24 DUP3 ADD MSTORE PUSH1 0x44 DUP2 ADD SWAP2 SWAP1 SWAP2 MSTORE PUSH1 0x80 PUSH1 0x64 DUP3 ADD MSTORE PUSH1 0x20 SWAP6 SWAP5 SWAP1 SWAP4 AND SWAP4 SWAP3 SWAP1 DUP6 SWAP1 DUP3 SWAP1 DUP2 SWAP1 PUSH2 0x1DCB SWAP1 PUSH1 0x84 DUP4 ADD SWAP1 PUSH2 0x15BE JUMP JUMPDEST SUB DUP2 PUSH0 DUP9 GAS CALL PUSH0 SWAP2 DUP2 PUSH2 0x1E6F JUMPI JUMPDEST POP PUSH2 0x1E38 JUMPI POP POP POP RETURNDATASIZE PUSH0 EQ PUSH2 0x1E30 JUMPI RETURNDATASIZE SWAP2 PUSH2 0x1DF3 DUP4 PUSH2 0x16F9 JUMP JUMPDEST SWAP3 PUSH2 0x1E01 PUSH1 0x40 MLOAD SWAP5 DUP6 PUSH2 0x16D7 JUMP JUMPDEST DUP4 MSTORE RETURNDATASIZE PUSH0 DUP3 DUP6 ADD RETURNDATACOPY JUMPDEST DUP3 MLOAD SWAP3 DUP4 PUSH2 0x1E2B JUMPI PUSH1 0x40 MLOAD PUSH4 0x32505749 PUSH1 0xE1 SHL DUP2 MSTORE PUSH1 0x4 DUP2 ADD DUP5 SWAP1 MSTORE PUSH1 0x24 SWAP1 REVERT JUMPDEST ADD SWAP1 POP REVERT JUMPDEST PUSH1 0x60 SWAP2 PUSH2 0x1E0A JUMP JUMPDEST SWAP2 SWAP4 POP PUSH1 0x1 PUSH1 0x1 PUSH1 0xE0 SHL SUB NOT SWAP1 SWAP2 AND SUB PUSH2 0x1E57 JUMPI POP PUSH0 DUP1 DUP1 DUP1 DUP1 PUSH2 0x1B9D JUMP JUMPDEST PUSH1 0x24 SWAP1 PUSH1 0x40 MLOAD SWAP1 PUSH4 0x32505749 PUSH1 0xE1 SHL DUP3 MSTORE PUSH1 0x4 DUP3 ADD MSTORE REVERT JUMPDEST SWAP1 SWAP2 POP DUP6 DUP2 DUP2 RETURNDATASIZE DUP4 GT PUSH2 0x1EA8 JUMPI JUMPDEST PUSH2 0x1E87 DUP2 DUP4 PUSH2 0x16D7 JUMP JUMPDEST DUP2 ADD SUB SLT PUSH2 0x22E JUMPI MLOAD PUSH1 0x1 PUSH1 0x1 PUSH1 0xE0 SHL SUB NOT DUP2 AND DUP2 SUB PUSH2 0x22E JUMPI SWAP1 PUSH0 PUSH2 0x1DD9 JUMP JUMPDEST POP RETURNDATASIZE PUSH2 0x1E7D JUMP JUMPDEST PUSH1 0xFF PUSH32 0xF0C57E16840DF040F15088DC2F81FE391C3923BEC73E23A9662EFC9C229C6A00 SLOAD PUSH1 0x40 SHR AND ISZERO PUSH2 0x1EDE JUMPI JUMP JUMPDEST PUSH1 0x40 MLOAD PUSH4 0x1AFCD79F PUSH1 0xE3 SHL DUP2 MSTORE PUSH1 0x4 SWAP1 REVERT JUMPDEST SWAP1 PUSH0 DUP1 SWAP2 PUSH1 0x20 DUP2 MLOAD SWAP2 ADD DUP5 GAS DELEGATECALL DUP1 DUP1 PUSH2 0x1F6E JUMPI JUMPDEST ISZERO PUSH2 0x1F24 JUMPI POP POP PUSH1 0x40 MLOAD RETURNDATASIZE DUP2 MSTORE RETURNDATASIZE PUSH0 PUSH1 0x20 DUP4 ADD RETURNDATACOPY PUSH1 0x20 RETURNDATASIZE DUP3 ADD ADD PUSH1 0x40 MSTORE SWAP1 JUMP JUMPDEST ISZERO PUSH2 0x1F4B JUMPI PUSH1 0x40 MLOAD PUSH4 0x9996B315 PUSH1 0xE0 SHL DUP2 MSTORE PUSH1 0x1 PUSH1 0x1 PUSH1 0xA0 SHL SUB SWAP1 SWAP2 AND PUSH1 0x4 DUP3 ADD MSTORE PUSH1 0x24 SWAP1 REVERT JUMPDEST RETURNDATASIZE ISZERO PUSH2 0x1F5C JUMPI PUSH1 0x40 MLOAD RETURNDATASIZE PUSH0 DUP3 RETURNDATACOPY RETURNDATASIZE SWAP1 REVERT JUMPDEST PUSH1 0x40 MLOAD PUSH4 0xD6BDA275 PUSH1 0xE0 SHL DUP2 MSTORE PUSH1 0x4 SWAP1 REVERT JUMPDEST POP RETURNDATASIZE ISZERO ISZERO DUP1 PUSH2 0x1F04 JUMPI POP DUP2 EXTCODESIZE ISZERO ISZERO PUSH2 0x1F04 JUMP INVALID SWAP1 AND 0xD0 SWAP14 PUSH19 0xD40FDAE2FD8CEAC6B6234C7706214FD39C1CD1 0xE6 MULMOD LOG0 MSTORE DUP13 NOT SWAP4 STOP DUP1 0xBB 0x2B PUSH4 0x8CC20BC4 0xD0 0xA6 0xD PUSH7 0x940F3AB4A00C1D PUSH28 0x313497CA82FB0B4AB007930280BB2B638CC20BC4D0A60D66940F3AB4 LOG0 0xC SAR PUSH28 0x313497CA82FB0B4AB0079304A2646970667358221220E09748315402 0xF6 0xAE 0x2B PUSH27 0x3D46AF18F0F7D23E8BF1A4D5134DC1B75174DF8772EA64736F6C63 NUMBER STOP ADDMOD XOR STOP CALLER "},"methodIdentifiers":{"MAX_SUPPLY()":"32cb6b0c","UPGRADE_INTERFACE_VERSION()":"ad3cb1cc","agentTypes(uint256)":"c38e8cda","approve(address,uint256)":"095ea7b3","authorizeUsage(uint256,address)":"fa83d14e","balanceOf(address)":"70a08231","cloneAgent(uint256,bytes,bytes32)":"aa0aa1a9","encryptedMetadata(uint256)":"94fde361","getApproved(uint256)":"081812fc","initialize(address)":"c4d66de8","isApprovedForAll(address,address)":"e985e9c5","memoryRoots(uint256)":"9a4269b7","mintAgent(bytes,bytes32,uint8)":"1689ab99","name()":"06fdde03","owner()":"8da5cb5b","ownerOf(uint256)":"6352211e","proxiableUUID()":"52d1902d","renounceOwnership()":"715018a6","safeTransferFrom(address,address,uint256)":"42842e0e","safeTransferFrom(address,address,uint256,bytes)":"b88d4fde","setApprovalForAll(address,bool)":"a22cb465","supportsInterface(bytes4)":"01ffc9a7","symbol()":"95d89b41","tokenURI(uint256)":"c87b56dd","totalMinted()":"a2309ff8","transferFrom(address,address,uint256)":"23b872dd","transferOwnership(address)":"f2fde38b","updateMemory(uint256,bytes32)":"77738c2f","upgradeToAndCall(address,bytes)":"4f1ef286","usageAuthorized(uint256,address)":"5ddf9096"}},"storageLayout":{"storage":[{"astId":10397,"contract":"contracts/VericastAgentID.sol:VericastAgentID","label":"_nextTokenId","offset":0,"slot":"0","type":"t_uint256"},{"astId":10402,"contract":"contracts/VericastAgentID.sol:VericastAgentID","label":"encryptedMetadata","offset":0,"slot":"1","type":"t_mapping(t_uint256,t_bytes_storage)"},{"astId":10407,"contract":"contracts/VericastAgentID.sol:VericastAgentID","label":"memoryRoots","offset":0,"slot":"2","type":"t_mapping(t_uint256,t_bytes32)"},{"astId":10412,"contract":"contracts/VericastAgentID.sol:VericastAgentID","label":"agentTypes","offset":0,"slot":"3","type":"t_mapping(t_uint256,t_uint8)"},{"astId":10419,"contract":"contracts/VericastAgentID.sol:VericastAgentID","label":"usageAuthorized","offset":0,"slot":"4","type":"t_mapping(t_uint256,t_mapping(t_address,t_bool))"}],"types":{"t_address":{"encoding":"inplace","label":"address","numberOfBytes":"20"},"t_bool":{"encoding":"inplace","label":"bool","numberOfBytes":"1"},"t_bytes32":{"encoding":"inplace","label":"bytes32","numberOfBytes":"32"},"t_bytes_storage":{"encoding":"bytes","label":"bytes","numberOfBytes":"32"},"t_mapping(t_address,t_bool)":{"encoding":"mapping","key":"t_address","label":"mapping(address => bool)","numberOfBytes":"32","value":"t_bool"},"t_mapping(t_uint256,t_bytes32)":{"encoding":"mapping","key":"t_uint256","label":"mapping(uint256 => bytes32)","numberOfBytes":"32","value":"t_bytes32"},"t_mapping(t_uint256,t_bytes_storage)":{"encoding":"mapping","key":"t_uint256","label":"mapping(uint256 => bytes)","numberOfBytes":"32","value":"t_bytes_storage"},"t_mapping(t_uint256,t_mapping(t_address,t_bool))":{"encoding":"mapping","key":"t_uint256","label":"mapping(uint256 => mapping(address => bool))","numberOfBytes":"32","value":"t_mapping(t_address,t_bool)"},"t_mapping(t_uint256,t_uint8)":{"encoding":"mapping","key":"t_uint256","label":"mapping(uint256 => uint8)","numberOfBytes":"32","value":"t_uint8"},"t_uint256":{"encoding":"inplace","label":"uint256","numberOfBytes":"32"},"t_uint8":{"encoding":"inplace","label":"uint8","numberOfBytes":"1"}}}}}}