{
  "_format": "hh-sol-artifact-1",
  "contractName": "VERI",
  "sourceName": "contracts/VERI.sol",
  "abi": [
    {
      "inputs": [
        {
          "internalType": "address",
          "name": "initialOwner",
          "type": "address"
        }
      ],
      "stateMutability": "nonpayable",
      "type": "constructor"
    },
    {
      "inputs": [
        {
          "internalType": "address",
          "name": "spender",
          "type": "address"
        },
        {
          "internalType": "uint256",
          "name": "allowance",
          "type": "uint256"
        },
        {
          "internalType": "uint256",
          "name": "needed",
          "type": "uint256"
        }
      ],
      "name": "ERC20InsufficientAllowance",
      "type": "error"
    },
    {
      "inputs": [
        {
          "internalType": "address",
          "name": "sender",
          "type": "address"
        },
        {
          "internalType": "uint256",
          "name": "balance",
          "type": "uint256"
        },
        {
          "internalType": "uint256",
          "name": "needed",
          "type": "uint256"
        }
      ],
      "name": "ERC20InsufficientBalance",
      "type": "error"
    },
    {
      "inputs": [
        {
          "internalType": "address",
          "name": "approver",
          "type": "address"
        }
      ],
      "name": "ERC20InvalidApprover",
      "type": "error"
    },
    {
      "inputs": [
        {
          "internalType": "address",
          "name": "receiver",
          "type": "address"
        }
      ],
      "name": "ERC20InvalidReceiver",
      "type": "error"
    },
    {
      "inputs": [
        {
          "internalType": "address",
          "name": "sender",
          "type": "address"
        }
      ],
      "name": "ERC20InvalidSender",
      "type": "error"
    },
    {
      "inputs": [
        {
          "internalType": "address",
          "name": "spender",
          "type": "address"
        }
      ],
      "name": "ERC20InvalidSpender",
      "type": "error"
    },
    {
      "inputs": [
        {
          "internalType": "uint256",
          "name": "requested",
          "type": "uint256"
        },
        {
          "internalType": "uint256",
          "name": "available",
          "type": "uint256"
        }
      ],
      "name": "ExceedsMaxSupply",
      "type": "error"
    },
    {
      "inputs": [
        {
          "internalType": "address",
          "name": "owner",
          "type": "address"
        }
      ],
      "name": "OwnableInvalidOwner",
      "type": "error"
    },
    {
      "inputs": [
        {
          "internalType": "address",
          "name": "account",
          "type": "address"
        }
      ],
      "name": "OwnableUnauthorizedAccount",
      "type": "error"
    },
    {
      "anonymous": false,
      "inputs": [
        {
          "indexed": true,
          "internalType": "address",
          "name": "owner",
          "type": "address"
        },
        {
          "indexed": true,
          "internalType": "address",
          "name": "spender",
          "type": "address"
        },
        {
          "indexed": false,
          "internalType": "uint256",
          "name": "value",
          "type": "uint256"
        }
      ],
      "name": "Approval",
      "type": "event"
    },
    {
      "anonymous": false,
      "inputs": [
        {
          "indexed": true,
          "internalType": "address",
          "name": "previousOwner",
          "type": "address"
        },
        {
          "indexed": true,
          "internalType": "address",
          "name": "newOwner",
          "type": "address"
        }
      ],
      "name": "OwnershipTransferred",
      "type": "event"
    },
    {
      "anonymous": false,
      "inputs": [
        {
          "indexed": true,
          "internalType": "address",
          "name": "from",
          "type": "address"
        },
        {
          "indexed": true,
          "internalType": "address",
          "name": "to",
          "type": "address"
        },
        {
          "indexed": false,
          "internalType": "uint256",
          "name": "value",
          "type": "uint256"
        }
      ],
      "name": "Transfer",
      "type": "event"
    },
    {
      "inputs": [],
      "name": "INITIAL_MINT",
      "outputs": [
        {
          "internalType": "uint256",
          "name": "",
          "type": "uint256"
        }
      ],
      "stateMutability": "view",
      "type": "function"
    },
    {
      "inputs": [],
      "name": "MAX_SUPPLY",
      "outputs": [
        {
          "internalType": "uint256",
          "name": "",
          "type": "uint256"
        }
      ],
      "stateMutability": "view",
      "type": "function"
    },
    {
      "inputs": [
        {
          "internalType": "address",
          "name": "owner",
          "type": "address"
        },
        {
          "internalType": "address",
          "name": "spender",
          "type": "address"
        }
      ],
      "name": "allowance",
      "outputs": [
        {
          "internalType": "uint256",
          "name": "",
          "type": "uint256"
        }
      ],
      "stateMutability": "view",
      "type": "function"
    },
    {
      "inputs": [
        {
          "internalType": "address",
          "name": "spender",
          "type": "address"
        },
        {
          "internalType": "uint256",
          "name": "value",
          "type": "uint256"
        }
      ],
      "name": "approve",
      "outputs": [
        {
          "internalType": "bool",
          "name": "",
          "type": "bool"
        }
      ],
      "stateMutability": "nonpayable",
      "type": "function"
    },
    {
      "inputs": [
        {
          "internalType": "address",
          "name": "account",
          "type": "address"
        }
      ],
      "name": "balanceOf",
      "outputs": [
        {
          "internalType": "uint256",
          "name": "",
          "type": "uint256"
        }
      ],
      "stateMutability": "view",
      "type": "function"
    },
    {
      "inputs": [
        {
          "internalType": "uint256",
          "name": "value",
          "type": "uint256"
        }
      ],
      "name": "burn",
      "outputs": [],
      "stateMutability": "nonpayable",
      "type": "function"
    },
    {
      "inputs": [
        {
          "internalType": "address",
          "name": "account",
          "type": "address"
        },
        {
          "internalType": "uint256",
          "name": "value",
          "type": "uint256"
        }
      ],
      "name": "burnFrom",
      "outputs": [],
      "stateMutability": "nonpayable",
      "type": "function"
    },
    {
      "inputs": [],
      "name": "decimals",
      "outputs": [
        {
          "internalType": "uint8",
          "name": "",
          "type": "uint8"
        }
      ],
      "stateMutability": "view",
      "type": "function"
    },
    {
      "inputs": [
        {
          "internalType": "address",
          "name": "to",
          "type": "address"
        },
        {
          "internalType": "uint256",
          "name": "amount",
          "type": "uint256"
        }
      ],
      "name": "mint",
      "outputs": [],
      "stateMutability": "nonpayable",
      "type": "function"
    },
    {
      "inputs": [],
      "name": "name",
      "outputs": [
        {
          "internalType": "string",
          "name": "",
          "type": "string"
        }
      ],
      "stateMutability": "view",
      "type": "function"
    },
    {
      "inputs": [],
      "name": "owner",
      "outputs": [
        {
          "internalType": "address",
          "name": "",
          "type": "address"
        }
      ],
      "stateMutability": "view",
      "type": "function"
    },
    {
      "inputs": [],
      "name": "renounceOwnership",
      "outputs": [],
      "stateMutability": "nonpayable",
      "type": "function"
    },
    {
      "inputs": [],
      "name": "symbol",
      "outputs": [
        {
          "internalType": "string",
          "name": "",
          "type": "string"
        }
      ],
      "stateMutability": "view",
      "type": "function"
    },
    {
      "inputs": [],
      "name": "totalSupply",
      "outputs": [
        {
          "internalType": "uint256",
          "name": "",
          "type": "uint256"
        }
      ],
      "stateMutability": "view",
      "type": "function"
    },
    {
      "inputs": [
        {
          "internalType": "address",
          "name": "to",
          "type": "address"
        },
        {
          "internalType": "uint256",
          "name": "value",
          "type": "uint256"
        }
      ],
      "name": "transfer",
      "outputs": [
        {
          "internalType": "bool",
          "name": "",
          "type": "bool"
        }
      ],
      "stateMutability": "nonpayable",
      "type": "function"
    },
    {
      "inputs": [
        {
          "internalType": "address",
          "name": "from",
          "type": "address"
        },
        {
          "internalType": "address",
          "name": "to",
          "type": "address"
        },
        {
          "internalType": "uint256",
          "name": "value",
          "type": "uint256"
        }
      ],
      "name": "transferFrom",
      "outputs": [
        {
          "internalType": "bool",
          "name": "",
          "type": "bool"
        }
      ],
      "stateMutability": "nonpayable",
      "type": "function"
    },
    {
      "inputs": [
        {
          "internalType": "address",
          "name": "newOwner",
          "type": "address"
        }
      ],
      "name": "transferOwnership",
      "outputs": [],
      "stateMutability": "nonpayable",
      "type": "function"
    }
  ],
  "bytecode": "0x608034620003f457601f1990601f6001600160401b0362000ec5388190038381018616850183811186821017620003f857859282916040528339602094859181010312620003f457516001600160a01b038082169590929091869003620003f4576200006a6200040c565b600a8152692b22a924902a37b5b2b760b11b868201526200008a6200040c565b90600495868352635645524960e01b8884015281519284841162000300576003938454936001948581811c91168015620003e9575b8c821014620003d657908b828685941162000380575b50508b908583116001146200031f575f9262000313575b50505f1982871b1c191690841b1784555b8051948511620003005787548381811c91168015620002f5575b8a821014620002e2578281116200029a575b50889185116001146200023557849550908492915f9562000229575b50501b925f19911b1c19161782555b83156200021257600580546001600160a01b0319811686179091558491167f8be0079c531659141344cd1fd0a4f28419497f9722a3daafe3b4186f6b6457e05f80a36002546a084595161401484a00000091828201809211620001ff57506002555f838152808352604080822080548401905551918252917fddf252ad1be2c89b69c2b068fc378daa952ba7f163c4a11628f55a4df523b3ef91a3604051610a9890816200042d8239f35b601190634e487b7160e01b5f525260245ffd5b604051631e4fbdf760e01b81525f81840152602490fd5b015193505f8062000145565b929194841692875f5284895f20945f5b8b8983831062000282575050501062000268575b50505050811b01825562000154565b01519060f8845f19921b161c191690555f80808062000259565b86860151895590970196948501948893500162000245565b885f52895f208380880160051c8201928c8910620002d8575b0160051c019084905b828110620002cc57505062000129565b5f8155018490620002bc565b92508192620002b3565b602289634e487b7160e01b5f525260245ffd5b90607f169062000117565b604188634e487b7160e01b5f525260245ffd5b015190505f80620000ec565b908c918a889516895f52835f20935f905b82821062000368575050841162000350575b505050811b018455620000fd565b01515f1983891b60f8161c191690555f808062000342565b8385015186558a979095019493840193018f62000330565b90919250875f5285825f209181860160051c8301938610620003cc575b918891869594930160051c01915b828110620003bd57508d9150620000d5565b5f8155859450889101620003ab565b925081926200039d565b60228b634e487b7160e01b5f525260245ffd5b90607f1690620000bf565b5f80fd5b634e487b7160e01b5f52604160045260245ffd5b60408051919082016001600160401b03811183821017620003f85760405256fe608060409080825260049081361015610016575f80fd5b5f3560e01c90816306fdde031461066657508063095ea7b3146105bd57806318160ddd1461059f57806323b872dd14610563578063313ce5671461054857806332cb6b0c1461052357806340c10f191461043157806342966c681461041457806370a08231146103de578063715018a61461038357806379cc6790146103525780638da5cb5b1461032a57806395d89b411461020a578063a9059cbb146101da578063ca7df92c146101b5578063dd62ed3e1461016c5763f2fde38b146100db575f80fd5b34610168576020366003190112610168576100f46107a3565b906100fd610997565b6001600160a01b03918216928315610152575050600554826bffffffffffffffffffffffff60a01b821617600555167f8be0079c531659141344cd1fd0a4f28419497f9722a3daafe3b4186f6b6457e05f80a3005b905f6024925191631e4fbdf760e01b8352820152fd5b5f80fd5b82346101685780600319360112610168576020906101886107a3565b6101906107b9565b9060018060a01b038091165f5260018452825f2091165f528252805f20549051908152f35b8234610168575f36600319011261016857602090516a084595161401484a0000008152f35b82346101685780600319360112610168576020906102036101f96107a3565b60243590336108bd565b5160018152f35b509034610168575f366003190112610168578051905f835460018160011c9060018316928315610320575b602093848410811461030d578388529081156102f1575060011461029d575b505050829003601f01601f191682019267ffffffffffffffff84118385101761028a575082918261028692528261075c565b0390f35b604190634e487b7160e01b5f525260245ffd5b5f878152929350837f8a35acfbc15ff81a39ae7d344fd709f28e8600b4aa8c65c6b64bfe7fe36bd19b5b8385106102dd57505050508301015f8080610254565b8054888601830152930192849082016102c7565b60ff1916878501525050151560051b84010190505f8080610254565b602289634e487b7160e01b5f525260245ffd5b91607f1691610235565b8234610168575f3660031901126101685760055490516001600160a01b039091168152602090f35b8234610168573660031901126101685761038161036d6107a3565b6024359061037c8233836107f0565b6109c3565b005b34610168575f3660031901126101685761039b610997565b600580546001600160a01b031981169091555f906001600160a01b03167f8be0079c531659141344cd1fd0a4f28419497f9722a3daafe3b4186f6b6457e08280a3005b8234610168576020366003190112610168576020906001600160a01b036104036107a3565b165f525f8252805f20549051908152f35b5034610168576020366003190112610168576103819035336109c3565b50903461016857806003193601126101685761044b6107a3565b9060243591610458610997565b600254906a52b7d2dcc80cd2e40000008061047386856107cf565b116104e957506001600160a01b03169384156104d35750827fddf252ad1be2c89b69c2b068fc378daa952ba7f163c4a11628f55a4df523b3ef926104ba5f956020946107cf565b60025585855284835280852082815401905551908152a3005b6024905f84519163ec442f0560e01b8352820152fd5b9050838592820391821161051057604493519263adc3cee560e01b84528301526024820152fd5b601183634e487b7160e01b5f525260245ffd5b8234610168575f36600319011261016857602090516a52b7d2dcc80cd2e40000008152f35b8234610168575f366003190112610168576020905160128152f35b8234610168576060366003190112610168576020906102036105836107a3565b61058b6107b9565b6044359161059a8333836107f0565b6108bd565b8234610168575f366003190112610168576020906002549051908152f35b5090346101685780600319360112610168576105d76107a3565b602435903315610650576001600160a01b031690811561063a5760209350335f5260018452825f20825f52845280835f205582519081527f8c5be1e5ebec7d5bd14f71427d1e84f3dd0314c0f7b2291e5b200ac8c7c3b925843392a35160018152f35b8251634a1406b160e11b81525f81860152602490fd5b825163e602df0560e01b81525f81860152602490fd5b90508234610168575f366003190112610168575f60035460018160011c9060018316928315610752575b602093848410811461030d5783885290811561073657506001146106e057505050829003601f01601f191682019267ffffffffffffffff84118385101761028a575082918261028692528261075c565b60035f908152929350837fc2575a0e9e593c00f959f8c92f12db2869c3395a3b0502d05e2516446f71f85b5b8385106107225750505050830101848080610254565b80548886018301529301928490820161070c565b60ff1916878501525050151560051b8401019050848080610254565b91607f1691610690565b602080825282518183018190529093925f5b82811061078f57505060409293505f838284010152601f8019910116010190565b81810186015184820160400152850161076e565b600435906001600160a01b038216820361016857565b602435906001600160a01b038216820361016857565b919082018092116107dc57565b634e487b7160e01b5f52601160045260245ffd5b919060018060a01b0380931692835f526001602052604093845f2091831691825f52602052845f2054925f19841061082b575b505050505050565b84841061088d5750801561087657811561085f575f526001602052835f20905f5260205203905f20555f8080808080610823565b8451634a1406b160e11b81525f6004820152602490fd5b845163e602df0560e01b81525f6004820152602490fd5b8551637dc7a0d960e11b81526001600160a01b039190911660048201526024810184905260448101859052606490fd5b916001600160a01b0380841692831561097f571692831561096757825f525f60205260405f2054908282106109355750817fddf252ad1be2c89b69c2b068fc378daa952ba7f163c4a11628f55a4df523b3ef92602092855f525f84520360405f2055845f5260405f20818154019055604051908152a3565b60405163391434e360e21b81526001600160a01b03919091166004820152602481019190915260448101829052606490fd5b60405163ec442f0560e01b81525f6004820152602490fd5b604051634b637e8f60e11b81525f6004820152602490fd5b6005546001600160a01b031633036109ab57565b60405163118cdaa760e01b8152336004820152602490fd5b91906001600160a01b03831690811561097f57815f525f60205260405f205493818510610a3057506020817fddf252ad1be2c89b69c2b068fc378daa952ba7f163c4a11628f55a4df523b3ef925f95968587528684520360408620558060025403600255604051908152a3565b60405163391434e360e21b81526001600160a01b03919091166004820152602481018590526044810191909152606490fdfea264697066735822122052c360d4adbb95352d5e6d3154313b8026bbc960fde0c84f6a4b86ce449e04ea64736f6c63430008180033",
  "linkReferences": {},
  "deployedLinkReferences": {}
}