{
  "_format": "hh-sol-artifact-1",
  "contractName": "VericastArbiter",
  "sourceName": "contracts/VericastArbiter.sol",
  "abi": [
    {
      "inputs": [],
      "stateMutability": "nonpayable",
      "type": "constructor"
    },
    {
      "inputs": [
        {
          "internalType": "address",
          "name": "target",
          "type": "address"
        }
      ],
      "name": "AddressEmptyCode",
      "type": "error"
    },
    {
      "inputs": [
        {
          "internalType": "bytes32",
          "name": "commitId",
          "type": "bytes32"
        }
      ],
      "name": "CommitAlreadyDisputed",
      "type": "error"
    },
    {
      "inputs": [
        {
          "internalType": "bytes32",
          "name": "commitId",
          "type": "bytes32"
        }
      ],
      "name": "CommitAlreadyExists",
      "type": "error"
    },
    {
      "inputs": [
        {
          "internalType": "bytes32",
          "name": "commitId",
          "type": "bytes32"
        }
      ],
      "name": "CommitAlreadyFinalized",
      "type": "error"
    },
    {
      "inputs": [
        {
          "internalType": "bytes32",
          "name": "commitId",
          "type": "bytes32"
        }
      ],
      "name": "CommitIsDisputed",
      "type": "error"
    },
    {
      "inputs": [
        {
          "internalType": "bytes32",
          "name": "commitId",
          "type": "bytes32"
        }
      ],
      "name": "CommitNotFound",
      "type": "error"
    },
    {
      "inputs": [
        {
          "internalType": "bytes32",
          "name": "commitId",
          "type": "bytes32"
        },
        {
          "internalType": "uint32",
          "name": "disputeEnd",
          "type": "uint32"
        }
      ],
      "name": "CommitStillInDisputeWindow",
      "type": "error"
    },
    {
      "inputs": [
        {
          "internalType": "address",
          "name": "implementation",
          "type": "address"
        }
      ],
      "name": "ERC1967InvalidImplementation",
      "type": "error"
    },
    {
      "inputs": [],
      "name": "ERC1967NonPayable",
      "type": "error"
    },
    {
      "inputs": [],
      "name": "FailedCall",
      "type": "error"
    },
    {
      "inputs": [
        {
          "internalType": "uint256",
          "name": "provided",
          "type": "uint256"
        },
        {
          "internalType": "uint256",
          "name": "required",
          "type": "uint256"
        }
      ],
      "name": "InsufficientStake",
      "type": "error"
    },
    {
      "inputs": [],
      "name": "InvalidInitialization",
      "type": "error"
    },
    {
      "inputs": [],
      "name": "NotInitializing",
      "type": "error"
    },
    {
      "inputs": [
        {
          "internalType": "address",
          "name": "owner",
          "type": "address"
        }
      ],
      "name": "OwnableInvalidOwner",
      "type": "error"
    },
    {
      "inputs": [
        {
          "internalType": "address",
          "name": "account",
          "type": "address"
        }
      ],
      "name": "OwnableUnauthorizedAccount",
      "type": "error"
    },
    {
      "inputs": [],
      "name": "ReentrancyGuardReentrantCall",
      "type": "error"
    },
    {
      "inputs": [],
      "name": "StakeTransferFailed",
      "type": "error"
    },
    {
      "inputs": [],
      "name": "UUPSUnauthorizedCallContext",
      "type": "error"
    },
    {
      "inputs": [
        {
          "internalType": "bytes32",
          "name": "slot",
          "type": "bytes32"
        }
      ],
      "name": "UUPSUnsupportedProxiableUUID",
      "type": "error"
    },
    {
      "inputs": [
        {
          "internalType": "bytes32",
          "name": "commitId",
          "type": "bytes32"
        }
      ],
      "name": "ZKVerificationFailed",
      "type": "error"
    },
    {
      "anonymous": false,
      "inputs": [
        {
          "indexed": true,
          "internalType": "bytes32",
          "name": "commitId",
          "type": "bytes32"
        },
        {
          "indexed": true,
          "internalType": "address",
          "name": "challenger",
          "type": "address"
        },
        {
          "indexed": false,
          "internalType": "uint256",
          "name": "stake",
          "type": "uint256"
        }
      ],
      "name": "DisputeOpened",
      "type": "event"
    },
    {
      "anonymous": false,
      "inputs": [
        {
          "indexed": true,
          "internalType": "bytes32",
          "name": "commitId",
          "type": "bytes32"
        },
        {
          "indexed": false,
          "internalType": "bool",
          "name": "valid",
          "type": "bool"
        },
        {
          "indexed": true,
          "internalType": "address",
          "name": "resolver",
          "type": "address"
        }
      ],
      "name": "DisputeResolved",
      "type": "event"
    },
    {
      "anonymous": false,
      "inputs": [
        {
          "indexed": false,
          "internalType": "uint64",
          "name": "version",
          "type": "uint64"
        }
      ],
      "name": "Initialized",
      "type": "event"
    },
    {
      "anonymous": false,
      "inputs": [
        {
          "indexed": true,
          "internalType": "address",
          "name": "previousOwner",
          "type": "address"
        },
        {
          "indexed": true,
          "internalType": "address",
          "name": "newOwner",
          "type": "address"
        }
      ],
      "name": "OwnershipTransferred",
      "type": "event"
    },
    {
      "anonymous": false,
      "inputs": [
        {
          "indexed": true,
          "internalType": "bytes32",
          "name": "commitId",
          "type": "bytes32"
        }
      ],
      "name": "StateFinalized",
      "type": "event"
    },
    {
      "anonymous": false,
      "inputs": [
        {
          "indexed": true,
          "internalType": "bytes32",
          "name": "commitId",
          "type": "bytes32"
        },
        {
          "indexed": false,
          "internalType": "bytes32",
          "name": "stateRoot",
          "type": "bytes32"
        },
        {
          "indexed": false,
          "internalType": "bytes32",
          "name": "teeSeal",
          "type": "bytes32"
        },
        {
          "indexed": true,
          "internalType": "address",
          "name": "sequencer",
          "type": "address"
        }
      ],
      "name": "StateSubmitted",
      "type": "event"
    },
    {
      "anonymous": false,
      "inputs": [
        {
          "indexed": true,
          "internalType": "address",
          "name": "implementation",
          "type": "address"
        }
      ],
      "name": "Upgraded",
      "type": "event"
    },
    {
      "inputs": [],
      "name": "DISPUTE_WINDOW",
      "outputs": [
        {
          "internalType": "uint32",
          "name": "",
          "type": "uint32"
        }
      ],
      "stateMutability": "view",
      "type": "function"
    },
    {
      "inputs": [],
      "name": "MIN_STAKE",
      "outputs": [
        {
          "internalType": "uint256",
          "name": "",
          "type": "uint256"
        }
      ],
      "stateMutability": "view",
      "type": "function"
    },
    {
      "inputs": [],
      "name": "STAKE_LOCK",
      "outputs": [
        {
          "internalType": "uint32",
          "name": "",
          "type": "uint32"
        }
      ],
      "stateMutability": "view",
      "type": "function"
    },
    {
      "inputs": [],
      "name": "UPGRADE_INTERFACE_VERSION",
      "outputs": [
        {
          "internalType": "string",
          "name": "",
          "type": "string"
        }
      ],
      "stateMutability": "view",
      "type": "function"
    },
    {
      "inputs": [
        {
          "components": [
            {
              "internalType": "bytes32",
              "name": "streamId",
              "type": "bytes32"
            },
            {
              "internalType": "bytes32",
              "name": "key",
              "type": "bytes32"
            },
            {
              "internalType": "bytes32",
              "name": "stateRoot",
              "type": "bytes32"
            },
            {
              "internalType": "bytes32",
              "name": "teeSeal",
              "type": "bytes32"
            },
            {
              "internalType": "bytes32",
              "name": "proofHash",
              "type": "bytes32"
            }
          ],
          "internalType": "struct IVericastArbiter.Submission[]",
          "name": "subs",
          "type": "tuple[]"
        }
      ],
      "name": "batchSubmit",
      "outputs": [],
      "stateMutability": "nonpayable",
      "type": "function"
    },
    {
      "inputs": [
        {
          "internalType": "bytes32",
          "name": "",
          "type": "bytes32"
        }
      ],
      "name": "challengers",
      "outputs": [
        {
          "internalType": "address",
          "name": "",
          "type": "address"
        }
      ],
      "stateMutability": "view",
      "type": "function"
    },
    {
      "inputs": [],
      "name": "commitCount",
      "outputs": [
        {
          "internalType": "uint256",
          "name": "",
          "type": "uint256"
        }
      ],
      "stateMutability": "view",
      "type": "function"
    },
    {
      "inputs": [
        {
          "internalType": "bytes32",
          "name": "commitId",
          "type": "bytes32"
        },
        {
          "internalType": "uint256",
          "name": "stake",
          "type": "uint256"
        }
      ],
      "name": "dispute",
      "outputs": [],
      "stateMutability": "nonpayable",
      "type": "function"
    },
    {
      "inputs": [
        {
          "internalType": "bytes32",
          "name": "commitId",
          "type": "bytes32"
        }
      ],
      "name": "finalize",
      "outputs": [],
      "stateMutability": "nonpayable",
      "type": "function"
    },
    {
      "inputs": [
        {
          "internalType": "bytes32",
          "name": "commitId",
          "type": "bytes32"
        }
      ],
      "name": "getCommit",
      "outputs": [
        {
          "components": [
            {
              "internalType": "bytes32",
              "name": "stateRoot",
              "type": "bytes32"
            },
            {
              "internalType": "bytes32",
              "name": "teeSeal",
              "type": "bytes32"
            },
            {
              "internalType": "bytes32",
              "name": "proofHash",
              "type": "bytes32"
            },
            {
              "internalType": "uint64",
              "name": "blockHeight",
              "type": "uint64"
            },
            {
              "internalType": "uint32",
              "name": "disputeEnd",
              "type": "uint32"
            },
            {
              "internalType": "bool",
              "name": "disputed",
              "type": "bool"
            },
            {
              "internalType": "bool",
              "name": "finalized",
              "type": "bool"
            }
          ],
          "internalType": "struct IVericastArbiter.StateCommit",
          "name": "",
          "type": "tuple"
        }
      ],
      "stateMutability": "view",
      "type": "function"
    },
    {
      "inputs": [
        {
          "internalType": "address",
          "name": "_owner",
          "type": "address"
        },
        {
          "internalType": "address",
          "name": "_zkVerifier",
          "type": "address"
        },
        {
          "internalType": "address",
          "name": "_veriToken",
          "type": "address"
        }
      ],
      "name": "initialize",
      "outputs": [],
      "stateMutability": "nonpayable",
      "type": "function"
    },
    {
      "inputs": [
        {
          "internalType": "bytes32",
          "name": "commitId",
          "type": "bytes32"
        }
      ],
      "name": "isFinalized",
      "outputs": [
        {
          "internalType": "bool",
          "name": "",
          "type": "bool"
        }
      ],
      "stateMutability": "view",
      "type": "function"
    },
    {
      "inputs": [],
      "name": "owner",
      "outputs": [
        {
          "internalType": "address",
          "name": "",
          "type": "address"
        }
      ],
      "stateMutability": "view",
      "type": "function"
    },
    {
      "inputs": [],
      "name": "proxiableUUID",
      "outputs": [
        {
          "internalType": "bytes32",
          "name": "",
          "type": "bytes32"
        }
      ],
      "stateMutability": "view",
      "type": "function"
    },
    {
      "inputs": [],
      "name": "renounceOwnership",
      "outputs": [],
      "stateMutability": "nonpayable",
      "type": "function"
    },
    {
      "inputs": [
        {
          "internalType": "bytes32",
          "name": "commitId",
          "type": "bytes32"
        },
        {
          "internalType": "bytes",
          "name": "seal",
          "type": "bytes"
        },
        {
          "internalType": "bytes",
          "name": "journal",
          "type": "bytes"
        }
      ],
      "name": "resolveDispute",
      "outputs": [],
      "stateMutability": "nonpayable",
      "type": "function"
    },
    {
      "inputs": [
        {
          "internalType": "bytes32",
          "name": "",
          "type": "bytes32"
        }
      ],
      "name": "sequencers",
      "outputs": [
        {
          "internalType": "address",
          "name": "",
          "type": "address"
        }
      ],
      "stateMutability": "view",
      "type": "function"
    },
    {
      "inputs": [
        {
          "internalType": "bytes32",
          "name": "streamId",
          "type": "bytes32"
        },
        {
          "internalType": "bytes32",
          "name": "key",
          "type": "bytes32"
        },
        {
          "internalType": "bytes32",
          "name": "stateRoot",
          "type": "bytes32"
        },
        {
          "internalType": "bytes32",
          "name": "teeSeal",
          "type": "bytes32"
        },
        {
          "internalType": "bytes32",
          "name": "proofHash",
          "type": "bytes32"
        }
      ],
      "name": "submitStateRoot",
      "outputs": [],
      "stateMutability": "nonpayable",
      "type": "function"
    },
    {
      "inputs": [
        {
          "internalType": "address",
          "name": "newOwner",
          "type": "address"
        }
      ],
      "name": "transferOwnership",
      "outputs": [],
      "stateMutability": "nonpayable",
      "type": "function"
    },
    {
      "inputs": [
        {
          "internalType": "address",
          "name": "newImplementation",
          "type": "address"
        },
        {
          "internalType": "bytes",
          "name": "data",
          "type": "bytes"
        }
      ],
      "name": "upgradeToAndCall",
      "outputs": [],
      "stateMutability": "payable",
      "type": "function"
    },
    {
      "inputs": [],
      "name": "veriToken",
      "outputs": [
        {
          "internalType": "address",
          "name": "",
          "type": "address"
        }
      ],
      "stateMutability": "view",
      "type": "function"
    },
    {
      "inputs": [],
      "name": "zkVerifier",
      "outputs": [
        {
          "internalType": "address",
          "name": "",
          "type": "address"
        }
      ],
      "stateMutability": "view",
      "type": "function"
    }
  ],
  "bytecode": "0x60a080604052346100f0573060805260017f9b779b17422d0df92223018b32b4d1fa46e071723d6817e2486d003becc55f00557ff0c57e16840df040f15088dc2f81fe391c3923bec73e23a9662efc9c229c6a009081549060ff8260401c166100e157506001600160401b036002600160401b03198282160161009c575b60405161140490816100f58239608051818181610c030152610ce00152f35b6001600160401b031990911681179091556040519081527fc7f505b2f371ae2175ee4913f4499e1f2633a7b5936321eed1cdaeb6115181d290602090a15f808061007d565b63f92ee8a960e01b8152600490fd5b5f80fdfe6080604081815260049182361015610015575f80fd5b5f3560e01c9081632f2eaf1f14610f35575080633c57f7cf14610e805780634f1ef28614610c6757806352d1902d14610bf05780635ae3f660146108ff5780635e3d91f0146108d3578063715018a61461086c5780637f8d429e1461083a5780638784ea96146107495780638da5cb5b146107155780639123988b146106f757806392584d8014610603578063a12358471461042e578063ad3cb1cc14610391578063b2d0351814610362578063c0c53b8b146101f9578063cb1c2b5c146101d7578063d600d1c6146101af578063d6df096d14610188578063f2fde38b1461015d578063f585dc57146101425763fc322d7314610111575f80fd5b3461013e57602036600319011261013e5781602092355f52825260018060a01b03815f2054169051908152f35b5f80fd5b503461013e575f36600319011261013e576020905160968152f35b3461013e57602036600319011261013e57610186610179610f4f565b6101816112a4565b611059565b005b503461013e575f36600319011261013e575f5490516001600160a01b039091168152602090f35b503461013e575f36600319011261013e5760015490516001600160a01b039091168152602090f35b503461013e575f36600319011261013e5760209051670de0b6b3a76400008152f35b50903461013e57606036600319011261013e57610214610f4f565b906001600160a01b036024358181169081900361013e5760443591821680920361013e577ff0c57e16840df040f15088dc2f81fe391c3923bec73e23a9662efc9c229c6a0093845460ff81881c1615946001600160401b0382168015908161035a575b6001149081610350575b159081610347575b50610339575067ffffffffffffffff19811660011786556102bc91908561031a575b506102b46112dc565b6101816112dc565b6001600160601b0360a01b90815f5416175f5560015416176001556102dd57005b805468ff00000000000000001916905551600181527fc7f505b2f371ae2175ee4913f4499e1f2633a7b5936321eed1cdaeb6115181d290602090a1005b68ffffffffffffffffff1916680100000000000000011786555f6102ab565b875163f92ee8a960e01b8152fd5b9050155f610289565b303b159150610281565b879150610277565b503461013e57602036600319011261013e57602091355f526003825260018060a01b03815f2054169051908152f35b503461013e575f36600319011261013e57805191818301908382106001600160401b0383111761041b57508152600582526020640352e302e360dc1b60208401528151928391602083528151918260208501525f5b8381106104055750505f83830185015250601f01601f19168101030190f35b81810183015187820187015286945082016103e6565b604190634e487b7160e01b5f525260245ffd5b503461013e578060031936011261013e578135602480359261044e611262565b825f52602091600283526003825f20019081546001600160401b038116156105ee5760ff8160681c166105d95760601c60ff166105c557670de0b6b3a76400008087106105aa575060015483516323b872dd60e01b815233898201523092810192909252604482018790528490829060649082905f906001600160a01b03165af19081156105a0575f91610573575b501561056357805460ff60601b1916600160601b1790555f8381529482529384902080546001600160a01b03191633908117909155935192835290917f74b30b10e89fcaa4fc5ffe4cbad394399cd7cfe59529e41170312d28377b874d9190a360017f9b779b17422d0df92223018b32b4d1fa46e071723d6817e2486d003becc55f0055005b8151631231ec2f60e21b81528690fd5b6105939150843d8611610599575b61058b8183610f94565b810190611041565b5f6104dd565b503d610581565b83513d5f823e3d90fd5b83516322df051360e11b815280890188905291820152604490fd5b82516354745fcf60e01b8152808801869052fd5b5082516337208f6360e01b8152808801869052fd5b508251633ca4729560e21b8152808801869052fd5b50903461013e57602036600319011261013e57803591825f5260026020526003815f2001918254916001600160401b038316156106e15760ff8360681c166106cb5760ff8360601c166106b55763ffffffff83821c16908143106106995750505060ff60681b1916600160681b1790557ff92ff93868fa3ef75d1d4162f74a6c3c8788f6b096b69b80182c53a4ae7d0b225f80a2005b51633f1af8c760e21b8152918201859052602482015260449150fd5b51639d77e10d60e01b8152908101849052602490fd5b516337208f6360e01b8152908101849052602490fd5b51633ca4729560e21b8152908101849052602490fd5b503461013e575f36600319011261013e576020906005549051908152f35b503461013e575f36600319011261013e575f805160206113af8339815191525490516001600160a01b039091168152602090f35b503461013e57602036600319011261013e5760e0915f60c0835161076c81610f65565b82815282602082015282858201528260608201528260808201528260a08201520152355f526002602052805f209080516107a581610f65565b82549283825260018101546020830190815260036002830154928585019384520154936001600160401b03906060850190828716825263ffffffff9460808701948689841c16865260ff60c060a08a0199828c60601c1615158b52019960681c16151589528251998a525160208a01525190880152511660608601525116608084015251151560a083015251151560c0820152f35b503461013e57602036600319011261013e57602091355f526002825260ff6003825f20015460681c1690519015158152f35b3461013e575f36600319011261013e576108846112a4565b5f805160206113af83398151915280546001600160a01b031981169091555f906001600160a01b03167f8be0079c531659141344cd1fd0a4f28419497f9722a3daafe3b4186f6b6457e08280a3005b823461013e5760a036600319011261013e576101869060843590606435906044359060243590356110ca565b50903461013e57606036600319011261013e57803560249283356001600160401b039081811161013e576109369036908601610fd0565b60449591953583811161013e57610951889136908501610fd0565b9261095a611262565b875f5260209860028a52875f20926003840197885490811615610bda5760601c60ff1615610bc457908a91600160a01b6001900396875f54169560020154928b5195869586019863189a0c4b60e31b8a5286016060905260848601906109bf92611021565b906023198583030160448601526109d592611021565b90606483015203601f19810182526109ed9082610f94565b515a925f8094938194f13d15610bbf573d610a0781610fb5565b90610a1487519283610f94565b81525f883d92013e5b15610ae457604486925f61dead9360015416670de0b6b3a764000088519b8c96879563a9059cbb60e01b87528601528401525af1948515610ada577fc960b0a8d05987d3303a43fbce4ccf8ccc3262a2b5517a35c97fc8848c23054c939495610abd575b50805460ff60601b191690555160018152339390a35b60017f9b779b17422d0df92223018b32b4d1fa46e071723d6817e2486d003becc55f0055005b610ad390863d88116105995761058b8183610f94565b505f610a81565b82513d5f823e3d90fd5b85919250956044670de0b6b3a764000097865f528484525f818782205416916001541687519a8b95869463a9059cbb60e01b8652898601528401525af1948515610ada577fc960b0a8d05987d3303a43fbce4ccf8ccc3262a2b5517a35c97fc8848c23054c939495610ba2575b50835f52600285525f6003838220828155826001820155826002820155015560038552815f20906001600160601b0360a01b918281541690558552815f2090815416905551925f84523393a3610a97565b610bb890863d88116105995761058b8183610f94565b505f610b51565b610a1d565b8851633ca4729560e21b81528088018b90528590fd5b8951633ca4729560e21b81528089018c90528690fd5b503461013e575f36600319011261013e577f00000000000000000000000000000000000000000000000000000000000000006001600160a01b03163003610c5a57602090517f360894a13ba1a3210667c828492db98dca3e2076cc3735a920a3ca505d382bbc8152f35b5163703e46dd60e11b8152fd5b50908160031936011261013e57610c7c610f4f565b6024928335916001600160401b03831161013e573660238401121561013e578284013590610ca982610fb5565b91610cb684519384610f94565b8083526020943688838301011161013e57815f928988930183870137840101526001600160a01b037f00000000000000000000000000000000000000000000000000000000000000008116308114908115610e52575b50610e4257610d196112a4565b83516352d1902d60e01b81529082169480828881895afa9182915f93610e12575b5050610d54575050505191634c9c8ce360e01b8352820152fd5b85938591887f360894a13ba1a3210667c828492db98dca3e2076cc3735a920a3ca505d382bbc91828103610dfd5750843b15610de9575080546001600160a01b0319168317905551907fbc7cd75a20ee27fd9adebab32041f755214dbc6bffa90cc0225b39da2e5c2d3b5f80a2825115610dd35750610186925061131d565b91505034610ddd57005b63b398979f60e01b8152fd5b8251634c9c8ce360e01b8152808801859052fd5b8351632a87526960e21b815280890191909152fd5b9080929350813d8311610e3b575b610e2a8183610f94565b8101031261013e5751905f80610d3a565b503d610e20565b835163703e46dd60e11b81528690fd5b9050817f360894a13ba1a3210667c828492db98dca3e2076cc3735a920a3ca505d382bbc541614155f610d0c565b503461013e57602090602060031936011261013e578235916001600160401b039384841161013e573660238501121561013e5783013593841161013e5760248301926024369160a0870201011161013e575f5b848110610edc57005b80610f2f610eed6001938888610ffd565b3584610efa848a8a610ffd565b013586610f08858b8b610ffd565b01356060610f17868c8c610ffd565b0135916080610f27878d8d610ffd565b0135936110ca565b01610ed3565b3461013e575f36600319011261013e578061012c60209252f35b600435906001600160a01b038216820361013e57565b60e081019081106001600160401b03821117610f8057604052565b634e487b7160e01b5f52604160045260245ffd5b90601f801991011681019081106001600160401b03821117610f8057604052565b6001600160401b038111610f8057601f01601f191660200190565b9181601f8401121561013e578235916001600160401b03831161013e576020838186019501011161013e57565b919081101561100d5760a0020190565b634e487b7160e01b5f52603260045260245ffd5b908060209392818452848401375f828201840152601f01601f1916010190565b9081602091031261013e5751801515810361013e5790565b6001600160a01b039081169081156110b2575f805160206113af83398151915280546001600160a01b031981168417909155167f8be0079c531659141344cd1fd0a4f28419497f9722a3daafe3b4186f6b6457e05f80a3565b604051631e4fbdf760e01b81525f6004820152602490fd5b9293909193604091825194602094858701918252848701528660608701524360808701526080865260a086016001600160401b039187821083831117610f80578186528751902096875f5260028752826003875f2001541661124d57505060964301908143116112395784519261114084610f65565b8884528684019185835286850191825260036060860195824316875263ffffffff608082019616865260a08101935f855260c08201955f87528c5f5260028c528a5f2092518355516001830155516002820155019451166bffffffff000000000000000085549451881b169160ff60601b9051151560601b169260ff60681b9051151560681b16936dffffffffffffffffffffffffffff191617171717905560038352815f20336001600160601b0360a01b825416179055600554925f1984146112395760017fbf49119d4786e07796fad8199d0d421751fbc58f29042db4d4fa69a0a71f3f52940160055582519586528501523393a3565b634e487b7160e01b5f52601160045260245ffd5b630841285f60e11b825260a401879052602490fd5b7f9b779b17422d0df92223018b32b4d1fa46e071723d6817e2486d003becc55f0060028154146112925760029055565b604051633ee5aeb560e01b8152600490fd5b5f805160206113af833981519152546001600160a01b031633036112c457565b60405163118cdaa760e01b8152336004820152602490fd5b60ff7ff0c57e16840df040f15088dc2f81fe391c3923bec73e23a9662efc9c229c6a005460401c161561130b57565b604051631afcd79f60e31b8152600490fd5b905f8091602081519101845af4808061139b575b156113515750506040513d81523d5f602083013e60203d82010160405290565b1561137857604051639996b31560e01b81526001600160a01b039091166004820152602490fd5b3d15611389576040513d5f823e3d90fd5b60405163d6bda27560e01b8152600490fd5b503d1515806113315750813b151561133156fe9016d09d72d40fdae2fd8ceac6b6234c7706214fd39c1cd1e609a0528c199300a2646970667358221220bcf21dac41597641857ec53ab78a8c20c459634dbb3643a72c243d86baaf9d0164736f6c63430008180033",
  "linkReferences": {},
  "deployedLinkReferences": {}
}